:020000040800F2
:1000000000800020AD320008D1150008D31500088B
:10001000D5150008D7150008D91500080000000004
:10002000000000000000000000000000DB150008D8
:10003000DD15000800000000DF150008E1150008CC
:10004000FD320008FD320008FD320008FD320008D4
:10005000FD320008FD320008FD320008FD320008C4
:10006000FD320008FD320008FD320008FD320008B4
:10007000FD320008FD320008FD320008FD320008A4
:10008000FD32000800000000FD320008FD320008CB
:10009000FD320008FD320008FD320008FD32000884
:1000A000FD320008FD320008FD320008FD32000874
:1000B000FD320008FD320008FD320008FD32000864
:1000C000FD320008FD320008FD320008FD32000854
:1000D000FD320008FD320008FD320008FD32000844
:1000E000FD320008FD320008FD320008FD32000834
:1000F000FD320008FD320008FD320008000000005B
:1001000000000000FD32000800000000FD32000881
:10011000FD32000800000000FD320008FD3200083A
:10012000FD320008FD320008FD320008FD320008F3
:10013000FD3200080000000000000000FD32000851
:10014000FD320008FD320008000000000000000041
:10015000000000000000000000000000000000009F
:10016000000000000000000000000000FD32000858
:10017000FD32000800000000000000000000000048
:1001800000000000FD320008000000000000000038
:10019000000000000000000000000000000000005F
:1001A0000000000000000000FD320008FD320008E1
:1001B000FD320008FD320008FD320008000000009A
:1001C00000000000FD3200080000000000000000F8
:0801D000FD320008FD320008B9
:1001E00001F0FF01102A2BDB10F0070F08D010F8E8
:1001F000013B013A8B422DD010F0070F42B3F6D1EC
:10020000F0B441EA012141EA014122F007047FF004
:1002100000070023F0E80256083C85EA010586EA5B
:10022000010685FA47F5A3FA87F586FA47F6A5FA97
:1002300087F68EB9EED1F0BC01F0FF0102F00702A3
:1002400032B110F8013B013A83EA010313B1F8D14E
:100250000020704701387047002D06BF354603382F
:10026000073815F0010F07D1013015F4807F02BF68
:10027000013015F4C03F0130F0BC0138704700BFB9
:1002800070B54FF0FF0C4CF4E06C1CEA11541DBF2C
:100290001CEA135594EA0C0F95EA0C0F00F0DEF8F7
:1002A0002C4481EA030621EA4C5123EA4C5350EADC
:1002B000013518BF52EA033541F4801143F480132D
:1002C00038D0A0FB02CE4FF00005E1FB02E506F0BE
:1002D0000042E0FB03E54FF00006E1FB03569CF013
:1002E000000F18BF4EF0010EA4F1FF04B6F5007F19
:1002F00064F5407404D25FEA4E0E6D4146EB06068B
:1003000042EAC62141EA55514FEAC52040EA5E5013
:100310004FEACE2EB4F1FD0C88BFBCF5E06F1ED8BD
:10032000BEF1004F08BF5FEA500E50F1000041EBF4
:10033000045170BD06F0004646EA010140EA0200A1
:1003400081EA0301B4EB5C04C2BFD4EB0C0541EAC3
:10035000045170BD41F480114FF0000E013C00F3D8
:10036000AB8014F1360FDEBF002001F0004170BDFC
:10037000C4F10004203C35DA0C341BDC04F1140415
:10038000C4F1200500FA05F320FA04F001FA05F2A1
:1003900040EA020001F0004221F0004110EBD3706E
:1003A00021FA04F642EB06015EEA430E08BF20EA9A
:1003B000D37070BDC4F10C04C4F1200500FA04F33D
:1003C00020FA05F001FA04F240EA020001F00041CF
:1003D00010EBD37041F100015EEA430E08BF20EA42
:1003E000D37070BDC4F1200500FA05F24EEA020E8A
:1003F00020FA04F301FA05F243EA020321FA04F0B9
:1004000001F0004121FA04F220EA020000EBD3706F
:100410005EEA430E08BF20EAD37070BD94F0000F6F
:100420000FD101F00046400041EB010111F4801FA3
:1004300008BF013CF7D041EA060195F0000F18BF54
:10044000704703F00046520043EB030313F4801F90
:1004500008BF013DF7D043EA0603704794EA0C0F4A
:100460000CEA135518BF95EA0C0F0CD050EA410660
:1004700018BF52EA4306D1D181EA030101F00041DD
:100480004FF0000070BD50EA410606BF1046194605
:1004900052EA430619D094EA0C0F02D150EA013611
:1004A00013D195EA0C0F05D152EA03361CBF104652
:1004B00019460AD181EA030101F0004141F0FE41F1
:1004C00041F470014FF0000070BD41F0FE4141F475
:1004D000780170BD81F0004102E000BF83F000436D
:1004E00030B54FEA41044FEA430594EA050F08BFCF
:1004F00090EA020F1FBF54EA000C55EA020C7FEA93
:10050000645C7FEA655C00F0E2804FEA5454D4EB0F
:100510005555B8BF6D420CDD2C4480EA020281EAD9
:10052000030382EA000083EA010180EA020281EA11
:100530000303362D88BF30BD11F0004F4FEA013163
:100540004FF4801C4CEA113102D0404261EB410172
:1005500013F0004F4FEA03334CEA133302D05242F8
:1005600063EB430394EA050F00F0A780A4F10104B4
:10057000D5F1200E0DDB02FA0EFC22FA05F28018EE
:1005800041F1000103FA0EF2801843FA05F35941D4
:100590000EE0A5F120050EF1200E012A03FA0EFC53
:1005A00028BF4CF0020C43FA05F3C01851EBE3717D
:1005B00001F0004507D54FF0000EDCF1000C7EEB9A
:1005C00000006EEB0101B1F5801F1BD3B1F5001FD8
:1005D0000CD349085FEA30004FEA3C0C04F10104F7
:1005E0004FEA445212F5800F80F09A80BCF1004F20
:1005F00008BF5FEA500C50F1000041EB045141EAA2
:10060000050130BD5FEA4C0C404141EB0101013C6A
:1006100028BFB1F5801FE9D291F0000F04BF014659
:100620000020B1FA81F308BF2033A3F10B03B3F12B
:1006300020020CDA0C3208DD02F1140CC2F10C02BB
:1006400001FA0CF021FA02F10CE002F11402D8BF19
:10065000C2F1200C01FA02F120FA0CFCDCBF41EAE5
:100660000C019040E41AA2BF01EB0451294330BDB4
:100670006FEA04041F3C1CDA0C340EDC04F1140491
:10068000C4F1200220FA04F001FA02F340EA030068
:1006900021FA04F345EA030130BDC4F10C04C4F1AE
:1006A000200220FA02F001FA04F340EA030029468E
:1006B00030BD21FA04F0294630BD94F0000F83F4D8
:1006C000801306BF81F480110134013D4EE77FEABB
:1006D000645C18BF7FEA655C29D094EA050F08BF07
:1006E00090EA020F05D054EA000C04BF19461046E8
:1006F00030BD91EA030F1EBF0021002030BD5FEA2C
:10070000545C05D14000494128BF41F0004130BD53
:1007100014F580043CBF01F5801130BD01F00045A7
:1007200045F0FE4141F470014FF0000030BD7FEA1A
:10073000645C1ABF194610467FEA655C1CBF0B4615
:10074000024650EA013406BF52EA033591EA030F2C
:1007500041F4002130BD00BF90F0000F04BF002124
:10076000704730B54FF4806404F132044FF0000557
:100770004FF0000150E700BF90F0000F04BF0021D0
:10078000704730B54FF4806404F1320410F0004536
:1007900048BF40424FF000013EE700BF42004FEA31
:1007A000E2014FEA31014FEA02701FBF12F07F43AE
:1007B00093F07F4F81F06051704732F07F4208BF65
:1007C000704793F07F4F04BF41F40021704730B56C
:1007D0004FF4607401F0004521F000411CE700BFB8
:1007E00050EA010208BF704730B54FF000050AE03B
:1007F00050EA010208BF704730B511F0004502D53C
:10080000404261EB41014FF4806404F132045FEA3D
:10081000915C3FF4D8AE4FF003025FEADC0C18BFE6
:1008200003325FEADC0C18BF033202EBDC02C2F1D8
:10083000200300FA03FC20FA02F001FA03FE40EA6A
:100840000E0021FA02F11444BDE600BF4FEA410256
:10085000B2F1E04324BFB3F5001CDCF1FE5C0DD91E
:1008600001F0004C4FEAC0024CEA5070B2F1004F68
:1008700040EB830008BF20F00100704711F0804F6B
:1008800021D113F13872BCBF01F00040704741F430
:1008900080114FEA5252C2F11802C2F1200C10FA34
:1008A0000CF320FA02F018BF40F001004FEAC12318
:1008B0004FEAD32303FA0CFC40EA0C0023FA02F3BC
:1008C0004FEA4303CCE77FEA625307D150EA013392
:1008D0001EBF4FF0FE4040F44000704701F0004062
:1008E00040F0FE4040F40000704700BF10B5054CDA
:1008F000237833B9044B13B10448AFF300800123CC
:10090000237010BD6800002000000000A847000808
:1009100008B5034B1BB103490348AFF3008008BD82
:10092000000000006C000020A847000870B588B0E7
:10093000002403940494059406940794234BDA6CE2
:1009400042F00102DA64DA6C02F001020192019ACB
:10095000DA6C42F00202DA64DB6C03F00203029309
:10096000029B22464FF4B0514FF0904001F0A1F8A5
:10097000174D22464021284601F09BF840F6971378
:1009800003930494059403A94FF0904000F0A0FF56
:10099000012603960494059403A9284600F098FFC5
:1009A0004FF4B053039304960594069403A94FF0B3
:1009B000904000F08DFF4023039304960594069425
:1009C00003A9284600F084FF08B070BD0010024063
:1009D00000040048F0B58FB007460D4616460024C7
:1009E0000B940C940D940794089409948DF8284066
:1009F000ADF81840ADF814408DF816402146284651
:100A000002F0B7FD2549384602F0E2FD014608E054
:100A10000B220BA802F0C8FD2049002002F0D8FDEF
:100A2000014661B30134E31E052BF5D801A252F84B
:100A300023F000BF110A00084D0A0008570A0008F9
:100A4000610A00086B0A0008750A000801220BA859
:100A500002F097FDE0E70C2207A802F0A5FDDBE716
:100A6000012207A802F08DFDD6E7012206A802F0B8
:100A70009BFDD1E7022205A802F096FDCCE705AB6D
:100A8000029306AB019307AB00930BAB044A3146CC
:100A9000284602F0F7FC0FB0F0BD00BF2048000868
:100AA000244800082DE9F04186B005460F46164659
:100AB00000238DF817308DF816304FF0FF38CDF841
:100AC0000880012401940DF1170300932346FD22B1
:100AD000842101F0CFFBCDF8088001940DF11603BD
:100AE00000932346FE228421284601F0C3FB9DF893
:100AF00017209DF8163053EA022405D100233380D5
:100B0000002006B0BDE8F081CDF808800194009780
:100B10000123FF228421284601F0ACFB3480EFE75B
:100B200008B51548154B0360A3F17563A3F57A2347
:100B3000A3F605434360002383600122C260036182
:100B400043618361C361036201F0A0F950B90021E0
:100B5000094801F006FD40B90021074801F02FFDCA
:100B600030B908BD00F066F8F1E700F063F8F3E78C
:100B700000F060F8F5E700BF84000020005400405A
:100B8000F0B59BB00446002115911691179118916C
:100B90001991442204A802F0ECFC2268224B9A42EC
:100BA00001D01BB0F0BD4023049304A802F098F9D3
:100BB000002835D11D4CE36C43F00103E364E36C82
:100BC00003F001030193019BE36C43F00203E36430
:100BD000E36C03F002030293029B4FF4004315936E
:100BE000122716970025179518950426199615A90A
:100BF0004FF0904000F06CFE8023159316971795E8
:100C00001895199615A90A4800F062FEA36D43F4E1
:100C10000013A365A36D03F400130393039BC0E7C4
:100C200000F008F8C6E700BF005400400010024082
:100C30000004004872B6FEE700B595B038220021E6
:100C400006A802F096FC0020019002900390049008
:100C5000059001F0E1FC022306934FF480720992A3
:100C600040220A920D930E9304220F925522109265
:100C700011931293139306A801F080FD80B90F23FE
:100C80000193032302930023039304930593042108
:100C90000DEB010002F028F820B915B05DF804FB57
:100CA000FFF7C8FFFFF7C6FF70B5ADF59F5D82B0D7
:100CB00000F06EFDFFF7C0FFFFF738FEFFF730FFD3
:100CC00000F04CFB4FF4965200214AA802F051FC70
:100CD000012408E0611EE2B28C4B03EB41018C4819
:100CE00000F039FA0134062CF4DD44AD894C94E867
:100CF0000F0085E80F0040AD04F110030FCB85E82D
:100D00000F003CAD04F120030FCB85E80F0038AD98
:100D100004F130030FCB85E80F0034AD04F140033C
:100D20000FCB85E80F0030AD503494E80F0007C5B5
:100D30002B800DF15A0364221A80754C4FF47A759A
:100D40000095102344AA8421204601F003F90520D0
:100D500000F040FD0095102340AA8421204601F0B8
:100D6000F9F8052000F036FD009510233CAA8421F7
:100D7000204601F0EFF8052000F02CFD009510232F
:100D800038AA8421204601F0E5F8052000F022FD74
:100D90000095102334AA8421204601F0DBF80520B9
:100DA00000F018FD00950E2330AA8421204601F0A2
:100DB000D1F8052000F00EFD2B460A2284212046A2
:100DC00001F030FB204600F0B5F92B460A22EC2159
:100DD000204601F027FB01234F4A137000244F4A9D
:100DE00014704F4A13704F4B1C70DCE001224FF41B
:100DF00080514FF0904000F05CFE01234A4A13708E
:100E00004A4A13704A4A13704A4A13704A4A13787E
:100E10000133DBB2137002E101224021474800F0A8
:100E200048FE0123464A1370464A13700023404A85
:100E30001370454A1370F7E001224FF480614FF0C0
:100E4000904000F036FE0123404A1370404A137070
:100E50000023354A13703F4A1370EAE03E4B1B787B
:100E6000002B40F0EC803D4B01221A70E7E000229D
:100E70004FF480514FF0904000F01BFE00232B4AAE
:100E80001370374A1370DFE0002240212B4800F036
:100E900010FE00232A4A1370324A1370D9E0002250
:100EA0004FF400714FF0904000F003FE0023274AFA
:100EB00013702D4A1370D1E000211A4B1970184B92
:100EC000197048AB49AA124800F0AAF9B4F5966F18
:100ED00010DB00249DED487ADFED247AB4EEE77A4A
:100EE000F1EE10FA02DD224B01221A700C4B0122A6
:100EF0001A70B8E09DED480A4AAB03EB840383ED1A
:100F0000000A01340DA800F07DFAE3E7FC000020A0
:100F100084000020C0470008E8000020E70000200F
:100F2000E6000020E5000020F4000020F200002090
:100F3000EC000020E1000020E9000020000400484F
:100F4000F0000020E0000020EB000020EE00002078
:100F5000DF000020F3000020D9000020E200002084
:100F6000F1000020EF000020ED0000200000FA4416
:100F7000EA0000204D4B01221A700EAE02233246C9
:100F80004B494C4800F042FA26252A46002103A886
:100F900002F0EFFA01960DAB00930FAB464A2946DB
:100FA00003A802F06FFA00F00FFC444B1860012117
:100FB000434800F077FD434B187001214FF09040FB
:100FC00000F070FD404B18704FF480714FF090406E
:100FD00000F068FD3D4B187010214FF0904000F07C
:100FE00061FD3B4B187004214FF0904000F05AFD1A
:100FF000384B187080214FF0904000F053FD364B75
:10100000187002214FF0904000F04CFD334B1870E7
:101010001B7823B9324B1B78002B3FF4E7AE314BE2
:101020001B78002B7FF4F8AE2F4B1B78002B7FF43E
:1010300003AF284B1B78DBB2012B3FF40FAF2B4BD8
:101040001B78002B7FF413AF294B1B78002B7FF408
:101050001BAF284B1B78002B7FF421AF264B1B784E
:10106000002B7FF429AF254B1B78002B85D0002166
:10107000224B19700D4B19706422ADF85A2017A835
:1010800002F077FA0DF15A0217A91D48FFF70AFD81
:1010900000287FF46FAFBDF85A303C2B7FF66AAF63
:1010A0001E220FA917A8FFF795FC63E7E8000020B0
:1010B000E3000020E400002030480008F800002091
:1010C00000040048DE000020DD000020DC000020DD
:1010D000DB000020DA000020D9000020D80000202A
:1010E000E9000020EB000020F3000020F1000020C8
:1010F000EF000020ED000020E5000020E7000020C8
:101100008400002000B583B01346012200920A46F5
:10111000EC2100F0F1FF03B05DF804FB00B583B0F3
:101120001346012200920A46EC2100F013FF03B09F
:101130005DF804FB10B586B01E228DF80C2001234B
:101140000093EC2100F006FF0446032000F042FB70
:10115000204606B010BD30B585B005460C4652009D
:10116000D2B2603A8DF80420012201A9FFF7D6FF20
:10117000022000F02FFB022269462846FFF7C2FF3B
:101180009DF800209DF8013003EB0223238005B079
:1011900030BD30B587B0054614468B1840338DF806
:1011A0000C30012203A9FFF7B9FF002300E001334F
:1011B00045F2EF518B42FAD9023C062C08D8DFE801
:1011C00004F00407220726072A00032000F002FB90
:1011D00000238DF80C30012203A92846FFF79EFF5B
:1011E000032202A92846FFF78DFF8DF807009DF81E
:1011F00008209DF809301B0203EB02439DF80A000A
:10120000184407B030BD042000F0E4FAE0E70620FF
:1012100000F0E0FADCE70A2000F0DCFAD8E7000092
:10122000F8B52DED048B07460E4615461C460A46BA
:101230001021FFF7AEFF08EE900A32460021384633
:10124000FFF7A7FF08EE100A394908884B8809EE16
:10125000103AB8EE499A8B8809EE903AF8EE699AFE
:10126000CB8807EE903AB8EE677A0B8906EE903A93
:10127000F8EE666A4B8907EE903AF8EE677A9FEDD2
:101280002D6A66EE866AF8EE688A78EEE68A67EE80
:10129000A87ADFED296A67EEA67ADFED286A77EE95
:1012A000A67A9FED276AC7EE866AC5ED006A67EEEB
:1012B000287A9FED247A67EE877A9FED237A29EECC
:1012C000079A39EE279A07EE900AF8EE677A17EE3A
:1012D000900AFFF763FA00221C4BFEF7D1FF064687
:1012E0000F4669EEA89ADFED1A7A69EEA77A17EE33
:1012F000900AFFF753FA02460B4630463946FFF78D
:10130000EFF8FFF7A3FA07EE900AB8EE488A28EE46
:10131000278ADFED107A28EE278A38EE498A9FED7A
:101320000E7AC8EE077AC4ED007ABDEC048BF8BDE6
:10133000FC00002000008043000000340000FA445C
:101340000000C8420000003C000080470000E04070
:101350000000803B000000350000A04808B50E48A2
:101360000E4B03600023436083604FF44072C26001
:10137000036143614FF400728261036243628362DE
:101380000722C2620363436301F01CFF00B908BD7A
:10139000FFF750FCFBE700BF08010020003C0040C5
:1013A00000B589B000230393049305930693079334
:1013B0000268124B9A4202D009B05DF804FB03F5B3
:1013C000EA339A6D42F400429A659A6D02F4004243
:1013D0000192019ADA6C42F00202DA64DB6C03F0EB
:1013E00002030293029B38230393022304930623F0
:1013F000079303A9024800F06BFADDE7003C0040C8
:101400000004004810EE103A0360704770B50C46B7
:1014100015461E46564B1B78DBB2012B6CD0037869
:1014200003F07F030370534B1B78DBB2012B68D0B2
:10143000037803F0BF0303704F4B1B78DBB2012B23
:1014400064D0037803F0DF0303704C4B1B78DBB2EE
:10145000012B60D0037803F0EF030370484B1B7837
:10146000DBB2012B5CD0037803F0F7030370454B2C
:101470001B78DBB2012B58D0037803F0FB03037019
:10148000414B1B78DBB2012B54D0037803F0FD03F2
:1014900003703E4B1B78002B51D0237843F0800320
:1014A00023703B4B1B78002B4ED0237843F0400336
:1014B0002370384B1B78002B4BD0237843F020034C
:1014C0002370354B1B78002B48D0237843F0100352
:1014D0002370324B1B78002B45D0237843F0080350
:1014E0002370721E0146284602F05EF832462146FD
:1014F000284602F059F870BD037843F0800303706A
:1015000091E7037843F04003037095E7037843F0D5
:101510002003037099E7037843F0100303709DE7FD
:10152000037843F008030370A1E7037843F0040352
:101530000370A5E7037843F002030370A9E723785B
:1015400003F07F032370ACE7237803F0BF0323701D
:10155000AFE7237803F0DF032370B2E7237803F0CB
:10156000EF032370B5E7237803F0F7032370B8E7A0
:10157000DE000020DD000020DC000020DB00002079
:10158000DA000020D9000020D8000020E20000206E
:10159000EA000020E1000020E0000020DF00002041
:1015A00082B00A4B1A6E42F001021A661A6E02F0FD
:1015B00001020092009A9A6D42F080529A659B6DEA
:1015C00003F080530193019B02B07047001002406A
:1015D000FEE7FEE7FEE7FEE7FEE77047704770476D
:1015E00008B53D4B1B7873B13C4A138801339BB25D
:1015F000138047F22F52934205D9394B01221A70BA
:10160000364B00221A80374B1B786BB1364A138851
:1016100001339BB21380B3F5FA6F05D3334B01222C
:101620001A70314B00221A80314B1B786BB1314A52
:10163000138801339BB21380B3F5FA6F05D32E4B99
:1016400001221A702B4B00221A802C4B1B786BB195
:101650002B4A138801339BB21380B3F5FA6F05D37D
:10166000284B01221A70264B00221A80264B1B7829
:1016700063B1264A13780133DBB21370632B05D9AB
:10168000234B01221A70214B00221A70214B1B7828
:1016900063B1214A13780133DBB21370132B05D9E0
:1016A0001E4B01221A701C4B00221A701C4B1B7817
:1016B00073B11C4A138801339BB2138040F6B732D2
:1016C000934205D9184B01221A70164B00221A803A
:1016D00000F06EF808BD00BFF40000207601002085
:1016E000F3000020F200002074010020F10000202F
:1016F000F000002072010020EF000020EE0000202A
:1017000070010020ED000020E80000206F010020A3
:10171000E7000020E60000206E010020E500002028
:10172000EC0000206C010020EB000020034AD2F8FE
:10173000883043F47003C2F88830704700ED00E051
:10174000104B1B680BB90120704710B504464FF4CD
:101750007A70B0FBF3F30C4A1068B0FBF3F000F0C2
:10176000A3F868B90F2C01D901200AE00022214614
:101770004FF0FF3000F088F8044B1C60002000E0C0
:10178000012010BD040000200000002008000020FF
:1017900010B5032000F066F80020FFF7D1FF10B16C
:1017A0000124204610BD0446FFF7FAFEF9E70000C9
:1017B000034A1368034909680B441360704700BF6C
:1017C0007801002004000020014B1868704700BF1A
:1017D0007801002038B50446FFF7F6FF0546B4F15E
:1017E000FF3F02D0044B1B681C44FFF7EDFF401B7A
:1017F000A042FAD338BD00BF04000020002808DB57
:101800000901C9B200F1604000F5614080F80013A1
:10181000704700F00F000901C9B2014B195470471D
:1018200014ED00E000B500F00700C0F1070CBCF1BA
:10183000040F28BF4FF0040C031D062B0FD9C31E45
:101840004FF0FF3E0EFA0CF021EA000199400EFA2B
:1018500003FE22EA0E0241EA02005DF804FB0023C7
:10186000EEE70000074AD36823F4E0631B041B0C77
:10187000000200F4E060034343F0BF6343F400332D
:10188000D360704700ED00E010B50446054BD86802
:10189000C0F30220FFF7C6FF01462046FFF7AEFF68
:1018A00010BD00BF00ED00E00138B0F1807F0BD229
:1018B0004FF0E0235861054AF02182F82310002000
:1018C000986107221A6170470120704700ED00E01F
:1018D000F0B583B0002362E085685E000324B44065
:1018E00025EA0405CC68B4402C438460456825EAA9
:1018F0000C054C68C4F300149C402C4344605FE02A
:10190000DD08083550F8254003F0070C4FEA8C0C31
:101910004FF00F0E0EFA0CFE24EA0E0E0C6904FABC
:101920000CF444EA0E0440F8254060E0052400E091
:10193000002404FA0EF42C430CF1020C554D45F82A
:101940002C40554CA568D44325EA02064F6817F48D
:10195000801F01D042EA05064F4DAE60ED6804EAF3
:1019600005064F6817F4001F01D042EA05064A4DEC
:10197000EE606D6804EA05064F6817F4003F01D079
:1019800042EA0506444D6E602D682C404E6816F400
:10199000803F01D042EA05043F4A146001330A68DF
:1019A00032FA03F474D04FF0010C0CFA03FC1CEA79
:1019B0000202F3D04C6804F00304013C012C8BD9E3
:1019C0004C6804F00304032C0CD0C4685D004FF095
:1019D000030C0CFA05FC24EA0C0C8C68AC4044EABD
:1019E0000C04C4604C6804F00304022C88D0046822
:1019F0004FEA430E4FF0030C0CFA0EFC24EA0C0CD9
:101A00004C6804F0030404FA0EF444EA0C04046085
:101A10004C6814F4403FC1D0204C256E45F00105C0
:101A20002566246E04F001040194019C4FEA930C96
:101A30000CF10205174C54F8255003F0030E4FEA41
:101A40008E0E0F2404FA0EF425EA0405B0F1904F2F
:101A50003FF46EAF124CA04212D004F58064A04255
:101A600010D004F58064A0420ED004F58064A0423A
:101A70000CD004F58064A0423FF458AF062458E728
:101A8000012456E7022454E7032452E7042450E7D4
:101A900003B0F0BD0000014000040140001002400E
:101AA000000400480369194201D00120704700205A
:101AB00070470AB1816170478162704703689A6913
:101AC00012F0020F01D000229A6203689A6912F0A4
:101AD000010F03D19A6942F001029A61704710B474
:101AE000019CC1F3090141EA02411943214321F05C
:101AF000004102685368640D04F4806444F07F740C
:101B000044F4583444F47F7444F0030423EA040397
:101B10000B4353605DF8044B70472DE9F0410446D8
:101B200003689E6916F010067CD00D469046102280
:101B3000DA61002637462368986910F0200F30D10B
:101B40007FBBB5F1FF3FF6D0FFF73EFEA0EB0800EC
:101B5000A84201D8002DEED121684B6803F48043E0
:101B600094F84220D2B2886910F4004F02D00BB929
:101B7000202A0ED123689B6913F0200FDBD1FFF7D9
:101B800023FEA0EB08001928F4D946F0200601270F
:101B9000D1E74B6843F480434B60FFF715FE804666
:101BA000E8E70FB92022DA6146F004060125226831
:101BB000936913F4807F05D046F001064FF48071DD
:101BC000D161012513F4806F06D046F00806226823
:101BD0004FF48061D161012513F4007F24D046F0D9
:101BE000020623684FF40072DA6101252046FFF7F0
:101BF00065FF2268536823F0FF7323F48B3323F4CB
:101C0000FF7323F001035360636C33436364202349
:101C100084F84130002384F8423084F8403028466C
:101C2000BDE8F0810025C2E7002DF8D0DEE770B5F1
:101C300004460D46164623689B6913F0020F22D115
:101C4000324629462046FFF768FFF0B9B5F1FF3F5D
:101C5000F1D0FFF7B9FD801BA84201D8002DEAD1D1
:101C600023689B6913F0020FE5D1636C43F02003F6
:101C70006364202384F84130002384F8423084F8E0
:101C80004030012000E0002070BD0120FCE72DE97C
:101C9000F8430546884617461E46DDF820902B6817
:101CA0009C6938EA04040CBF01230023BB4227D1FE
:101CB0004A4631462846FFF730FF20BBB6F1FF3FCA
:101CC000EDD0FFF781FDA0EB0900B04201D8002E56
:101CD000E5D12B689B6938EA03030CBF012300237D
:101CE000BB42DCD16B6C43F020036B64202385F88E
:101CF0004130002385F8423085F84030012000E073
:101D00000020BDE8F8830120FBE700002DE9F04149
:101D100082B0044690461D46089E099F184B0093CA
:101D20000023EAB2FFF7DBFE3A4631462046FFF7D2
:101D30007EFFF8B9012D0ED123685FFA88F29A620E
:101D400000973346002240212046FFF7A0FFA8B9A4
:101D500002B0BDE8F08123684FEA18229A623A4641
:101D600031462046FFF763FF30B923685FFA88F2F7
:101D70009A62E5E70120EBE70120E9E70120E7E7C8
:101D80000020008070B504460D46164604E0236826
:101D90009B6913F0200F12D023689B6913F0200F6A
:101DA0001BD1324629462046FFF7B7FEB8B9FFF7E8
:101DB0000BFD801BA842EAD8002DEDD1E7E7636C4C
:101DC00043F020036364202384F84130002384F827
:101DD000423084F84030012000E0002070BD012036
:101DE000FCE7F8B504460E461746002518E0002328
:101DF0006364FFF7E9FCC01BB04200D886B97DB927
:101E000023689B6913F0040F0AD1636C43F020032D
:101E10006364202384F84130002384F84030012596
:101E200023689B6913F0040F2ED16DBB3A463146EF
:101E30002046FFF772FE00B1012523689A6912F06F
:101E4000200FD6D0002DD4D19A699A6912F0100FC4
:101E5000CDD01022DA610423636423682022DA6182
:101E600021684B6823F0FF7323F48B3323F4FF7353
:101E700023F001034B6084F84120002384F84230B2
:101E800084F840300125B4E72846F8BD00285FD02B
:101E900010B5044690F84130002B48D0242384F834
:101EA00041302268136823F00103136063682268DD
:101EB00023F0706313612268936823F400439360F6
:101EC000E368012B38D0A368226843F4044393608D
:101ED000E368022B36D02268536823F40063536012
:101EE0002268536843F0007343F400435360226850
:101EF000D36823F40043D360236962691343A16963
:101F0000226843EA0123D360E369216A22680B4314
:101F100013602268136843F00103136000206064BB
:101F2000202384F84130206384F8420010BD80F8FB
:101F30004030FEF725FEB1E7A368226843F4004372
:101F40009360C5E72268536843F400635360C7E7B2
:101F5000012070472DE9F04782B00F460A9E90F8A5
:101F60004110C9B2202940F0B780044690469946F6
:101F700090F84030012B00F0B3804FF0010A80F858
:101F800040A0FFF721FC05460090192352464FF46C
:101F900000412046FFF77BFE002840F0A38021236C
:101FA00084F84130102384F8423000236364C4F87D
:101FB0002480A4F82A906363638D9BB2FF2B1ED903
:101FC000FF2323854FF08073228DEAB1226898F8B1
:101FD00000109162626A01326262628D92B2013ACD
:101FE00092B26285228D013A92B222850132414934
:101FF0000091D2B239462046FFF771FD18E0638D9B
:1020000023854FF00073DFE73A490091D2B2394699
:102010002046FFF764FD0BE0628D92B2228500231B
:1020200000934FF00073D2B239462046FFF757FDB8
:10203000638D9BB2002B33D02A4631462046FFF7F2
:10204000F6FD002850D1626A236812789A62636AAA
:1020500001336362638D9BB2013B9BB26385238D29
:10206000013B9BB22385628D92B2002AE0D0002B07
:10207000DED100953346002280212046FFF707FE7F
:10208000A0BB638D9BB2FF2BC6D9FF222285002304
:1020900000934FF0807339462046FFF720FDC7E7D5
:1020A0002A4631462046FFF76DFE08BB23682022F2
:1020B000DA6121684B6823F0FF7323F48B3323F438
:1020C000FF7323F001034B6084F84120002384F860
:1020D000423084F8403000E0022002B0BDE8F087D2
:1020E0000220FAE70120F8E70120F6E70120F4E7F3
:1020F0000120F2E7002000802DE9F04782B00F4672
:102100000A9E90F84110C9B2202940F0A2800446EE
:102110009046994690F84030012B00F09E804FF099
:10212000010A80F840A0FFF74FFB054600901923F5
:1021300052464FF400412046FFF7A9FD002840F029
:102140008E80222384F84130102384F8423000230B
:102150006364C4F82480A4F82A906363638D9BB2FF
:10216000FF2B0AD9FF222285414B00934FF0807349
:1021700039462046FFF7B3FC18E0628D92B2228503
:102180003B4B00934FF00073D2B239462046FFF725
:10219000A6FC0BE0628D92B22285002300934FF0E3
:1021A0000073D2B239462046FFF799FC638D9BB28B
:1021B000002B32D02A4631462046FFF712FE002877
:1021C0004FD123685A6A636A1A70636A0133636283
:1021D000228D013A92B22285638D9BB2013B9BB264
:1021E0006385638D9BB2002BE0D0002ADED1009581
:1021F000334680212046FFF74AFDA0BB638D9BB28A
:10220000FF2BC7D9FF222285002300934FF0807354
:1022100039462046FFF763FCC8E72A463146204688
:10222000FFF7B0FD08BB23682022DA6121684B6804
:1022300023F0FF7323F48B3323F4FF7323F00103A4
:102240004B6084F84120002384F8423084F8403009
:1022500000E0022002B0BDE8F0870220FAE701208A
:10226000F8E70120F6E70120F4E70120F2E700BFDC
:10227000002400802DE9F04F83B00E46BDF834A055
:102280000E9D90F84110C9B2202940F0BC80044650
:10229000904699460C9BCBB1BAF1000F16D090F83E
:1022A0004030012B00F0B3804FF0010B80F840B0BC
:1022B000FFF78AFA0746009019235A464FF4004167
:1022C0002046FFF7E4FC30B101209DE04FF400739D
:1022D0006364012098E0222384F84130402384F88D
:1022E0004230002363640C9A6262A4F82AA06363FC
:1022F000019700954B46424631462046FFF706FDC2
:1023000070B9638D9BB2FF2B0FD9FF222285444BFE
:1023100000934FF0807331462046FFF7E0FB21E049
:10232000002384F8403058466EE0628D92B22285D8
:102330003B4B00934FF00073D2B231462046FFF77B
:10234000CEFB0FE0628D92B22285002300934FF006
:102350000073D2B231462046FFF7C1FB638D9BB2BA
:10236000002B34D000972B46002204212046FFF793
:102370008EFC00284DD123685A6A636A1A70636A1A
:1023800001336362228D013A92B22285638D9BB242
:10239000013B9BB26385638D9BB2002BDED0002A8C
:1023A000DCD100972B4680212046FFF770FC90BBC4
:1023B000638D9BB2FF2BC5D9FF222285002300939A
:1023C0004FF0807331462046FFF789FBC6E73A4657
:1023D00029462046FFF7D6FCF8B923682022DA61A7
:1023E00021684B6823F0FF7323F48B3323F4FF73CE
:1023F00023F001034B6084F84120002384F842302D
:1024000084F8403000E0022003B0BDE8F08F0220E5
:10241000FAE70120F8E70120F6E70120F4E700BF22
:10242000002400802DE9F04385B01D46002303936E
:1024300090F84130DBB2202B40F089800646884678
:10244000914603689B6913F4004F40F0828090F836
:102450004030012B7FD0012380F84030242380F8C6
:1024600041300023436441E0C8F3090343F00073A3
:1024700043F4005343E033689C69C4F340149B6900
:10248000C3F30013C4B9BBB9B5F1FF3FF3D0FFF7F5
:102490009BF9C01BA84201D8002DECD1202386F85F
:1024A0004130736C43F020037364002386F840309E
:1024B000012005B0BDE8F08333689B6913F0100F6D
:1024C0002AD000972B46002220213046FFF7DFFB61
:1024D000002844D133681022DA6133682022DA619F
:1024E000039B01330393039B4B4526D2F368012BD7
:1024F000BAD0C8F3090343F0007343F420533268A1
:102500005360FFF761F9074633689C69C4F34014D0
:102510009B69C3F30013B5E700972B4600222021E7
:102520003046FFF7B4FBC0B932682023D36186F888
:102530004130002386F84030BBE786F84120736CB9
:1025400013437364002386F840300120B1E7022072
:10255000AFE70220ADE70220ABE70120A9E70120A9
:10256000A7E7034690F84120D2B2202A23D190F861
:102570004020012A21D0012280F84020242280F826
:1025800041200068026822F00102026018680268B7
:1025900022F48052026018680268114301601968D1
:1025A0000A6842F001020A60202283F841200020DC
:1025B00083F84000704702207047022070470346AE
:1025C00090F84120D2B2202A21D190F84020012A4F
:1025D0001FD0012280F84020242280F8412000688A
:1025E000026822F0010202601868026822F4706238
:1025F00042EA0122026019680A6842F001020A6098
:10260000202283F84120002083F8400070470220F8
:102610007047022070470000002836D13E4B1B68EF
:1026200003F4C063B3F5806F08D03B4AD2F8803022
:1026300023F48073C2F8803000207047364AD2F805
:10264000803023F48073C2F88030136823F4C063B1
:1026500043F400731360314B1B68322202FB03F317
:102660002F4AA2FB03239B0C013300E0013B2A4AC3
:10267000526912F4806F01D0002BF7D1264B5B69B1
:1026800013F4806F44D100207047B0F5007F08D06C
:10269000214A136823F4C06343F48063136000206D
:1026A00070471D4B1B6803F4C063B3F5806F08D0FF
:1026B000194AD2F8803043F48073C2F88030002089
:1026C0007047154AD2F8803043F48073C2F88030E6
:1026D000136823F4C06343F4007313600F4B1B684B
:1026E000322202FB03F30E4AA2FB03239B0C0133AD
:1026F00000E0013B084A526912F4806F01D0002BC0
:10270000F7D1054B5B6913F4806F03D1002070474C
:102710000320704703207047007000400000002035
:1027200083DE1B43124BDA6802F00302DB68C3F35B
:1027300003130133032A11D00E48B0FBF3F00C4B06
:10274000DB68C3F3062303FB00F0094BDB68C3F32C
:10275000416301335B00B0FBF3F070470648B0FB08
:10276000F3F0034BDB68C3F3062303FB00F0ECE755
:10277000001002400024F40000127A00002800F04B
:102780004F8270B582B00446036813F0010F37D052
:10279000A44A936803F00C03D26802F003020C2BE6
:1027A00023D0082B23D06368B3F5803F4ED0B3F518
:1027B000A02F51D09B4B1A6822F480321A601A68FD
:1027C00022F480221A606368002B52D0FEF7FCFFCF
:1027D0000546944B1B6813F4003F11D1FEF7F4FF3C
:1027E000401B6428F5D9032023E2032AD9D18D4B5D
:1027F0001B6813F4003F03D06368002B00F01282C3
:10280000236813F0020F5DD0864A936803F00C032F
:10281000D26802F003020C2B3AD0042B3AD0E368C2
:10282000002B75D07F4A136843F480731360FEF762
:10283000CBFF05467B4B1B6813F4806F5FD1FEF71F
:10284000C3FF401B0228F5D90320F2E1754A136843
:1028500043F480331360B6E703F18043A3F53C33C0
:102860001A6842F480221A601A6842F480321A60B0
:10287000A9E7FEF7A9FF05466A4B1B6813F4003F62
:10288000BED0FEF7A1FF401B6428F5D90320D0E19C
:10289000022AC2D1634B1B6813F4806F03D0E36834
:1028A000002B00F0C1815F4A536823F0FE43216989
:1028B00043EA016353605C4B1868FEF741FF002850
:1028C00040F0B481236813F0080F4CD063699BB3C8
:1028D000544AD2F8943043F00103C2F89430FEF722
:1028E00073FF05464F4BD3F8943013F0020F3AD1E3
:1028F000FEF76AFF401B0228F4D9032099E1494AF8
:10290000536823F0FE43216943EA01635360D9E72A
:10291000444A136823F480731360FEF755FF05469D
:10292000404B1B6813F4806FCCD0FEF74DFF401B6B
:102930000228F5D903207CE13A4AD2F8943023F0FA
:102940000103C2F89430FEF73FFF0546354BD3F83C
:10295000943013F0020F06D0FEF736FF401B02281A
:10296000F4D9032065E1236813F0040F00F081809F
:102970002C4B9B6D13F0805F36D12A4B9A6D42F041
:1029800080529A659B6D03F080530193019B012552
:10299000264B1B6813F4807F28D0A368012B39D005
:1029A000052B45D01F4BD3F8902022F00102C3F82D
:1029B0009020D3F8902022F00402C3F89020A3685E
:1029C000002B43D0FEF700FF0646164BD3F890309D
:1029D00013F0020F4CD1FEF7F7FE801B41F2883353
:1029E0009842F2D9032024E10025D1E70F4A136869
:1029F00043F480731360FEF7E7FE06460B4B1B683B
:102A000013F4807FC9D1FEF7DFFE801B0228F5D9C1
:102A100003200EE1034AD2F8903043F00103C2F8DC
:102A20009030CCE700100240080000200070004009
:102A3000884BD3F8902042F00402C3F89020D3F8DA
:102A4000902042F00102C3F89020B8E7FEF7BCFEE8
:102A50000646804BD3F8903013F0020F08D0FEF7F3
:102A6000B3FE801B41F288339842F2D90320E0E0A4
:102A7000E5B9236813F0200F35D0A369E3B1754A97
:102A8000D2F8983043F00103C2F89830FEF79CFE6C
:102A90000546704BD3F8983013F0020F23D1FEF7A0
:102AA00093FE401B0228F4D90320C2E0694A936DCB
:102AB00023F080539365DCE7664AD2F8983023F020
:102AC0000103C2F89830FEF77FFE0546614BD3F84C
:102AD000983013F0020F06D0FEF776FE401B022856
:102AE000F4D90320A5E0E369002B00F0A180594A46
:102AF000926802F00C020C2A64D0022B13D0554AC3
:102B0000136823F080731360FEF75EFE0446514B9A
:102B10001B6813F0007F4ED0FEF756FE001B022804
:102B2000F5D9032085E04B4A136823F080731360C6
:102B3000FEF74AFE0546474B1B6813F0007F06D0A0
:102B4000FEF742FE401B0228F5D9032071E0414AFE
:102B5000D36841491940236A606A013843EA001387
:102B6000A06A43EA0023206B4008013843EA40533F
:102B7000606B4008013843EA4063E06A43EAC0639F
:102B80001943D160136843F080731360D36843F036
:102B90008073D360FEF718FE04462E4B1B6813F0BB
:102BA000007F06D1FEF710FE001B0228F5D9032096
:102BB0003FE000203DE0274AD168284B0B40D3601E
:102BC000002036E0012B36D0224BDB6803F00301F6
:102BD000226A914231D103F0F002616A0139B2EB0D
:102BE000011F2CD103F4FE42A16AB2EB012F28D1C0
:102BF00003F07842E16AB2EBC16F24D103F4C00163
:102C0000226B5208013AB1EB425F1ED103F0C06360
:102C1000626B5208013AB3EB426F18D1002008E012
:102C200001207047012004E0012002E0012000E0C3
:102C3000002002B070BD0120FBE70120F9E7012070
:102C4000F7E70120F5E70120F3E70120F1E7012094
:102C5000EFE700BF001002400C809F01FCFFEEFE7A
:102C60001E4B9B6803F00C03042B33D01B4B9B685B
:102C700003F00C03082B2FD0184B9B6803F00C03B8
:102C80000C2B01D000207047144BDA6802F00302CD
:102C9000DB68C3F303130133032A11D01048B0FBE0
:102CA000F3F00E4BDB68C3F3062303FB00F00B4B82
:102CB000DB68C3F3416301335B00B0FBF3F07047A3
:102CC0000848B0FBF3F0054BDB68C3F3062303FBB6
:102CD00000F0ECE7024870470248704700100240DD
:102CE0000024F40000127A00002800F0E680F8B515
:102CF0000C460546744B1B6803F00F038B420BD246
:102D0000714A136823F00F030B431360136803F039
:102D10000F038B4240F0D3802E6816F001065FD07F
:102D20006B68032B2FD0022B4DD0684B1B6813F41C
:102D3000806F00F0C680FFF793FF654B98424DD936
:102D4000624A936823F0F00343F080039360802687
:102D50005E4A936823F0030369680B439360FEF7B0
:102D600033FD0746594B9B6803F00C036A68B3EBCD
:102D7000820F35D0FEF728FDC01B41F28833984200
:102D8000F0D9032078E0514B1B6813F0007F01D18C
:102D9000012071E0FFF7C6FC4D4B98421AD94B4B0E
:102DA0009B6813F0F00F05D02E6816F00206CFD006
:102DB000AB688BB9454A936823F0F00343F0800376
:102DC00093608026C4E7414B1B6813F4003FB2D1E7
:102DD000012051E00026BBE70026B9E70026B7E74F
:102DE0002B6813F0020F48D013F0040F04D0374AB9
:102DF000936843F4E06393602B6813F0080F06D0E8
:102E0000324A936823F47C5343F4E06393602F4A7F
:102E1000936823F0F003A9680B4393602A4B1B6867
:102E200003F00F03A34230D82B6813F0040F06D031
:102E3000264A936823F4E063E9680B4393602B68A8
:102E400013F0080F07D0214A936823F460532969CF
:102E500043EAC1039360FFF703FF1C4B9B68C3F376
:102E600003131C4AD35C03F01F03D8401A4B1860AD
:102E70001A4B1868FEF764FCF8BD802ECED1134AB9
:102E8000936823F0F0039360C8E70F4A136823F0B8
:102E90000F0323431360FEF797FC06460A4B1B689B
:102EA00003F00F03A342BFD0FEF78EFC801B41F25C
:102EB00088339842F2D90320DEE7012070470120D1
:102EC000DAE70120D8E700BF0020024000100240EE
:102ED00000B4C4043C4800080000002008000020A2
:102EE000F0B583B00446036813F4002F69D0AE4BED
:102EF0009B6D13F0805F1ED1AB4B9A6D42F08052F8
:102F00009A659B6D03F080530193019B0126A74AAC
:102F1000136843F480731360FEF756FC0546A34B19
:102F20001B6813F4807F08D1FEF74EFC401B02287B
:102F3000F5D9032502E00026E9E7002545BB9A4BB9
:102F4000D3F8903013F4407315D0226C9A4212D00B
:102F5000954AD2F8903023F44073D2F8901041F49F
:102F60008031C2F89010D2F8901021F48031C2F86C
:102F70009010C2F8903013F0010F10D145B98A4A71
:102F8000D2F8903023F44073216C0B43C2F8903098
:102F9000C6B1854A936D23F08053936512E0FEF726
:102FA00013FC0746804BD3F8903013F0020FE5D1A5
:102FB000FEF70AFCC01B41F288339842F2D9032580
:102FC000DCE70025236813F0010F08D0764AD2F819
:102FD000883023F0030361680B43C2F8883023680C
:102FE00013F0020F08D0704AD2F8883023F00C0397
:102FF000A1680B43C2F88830236813F0040F08D08F
:10300000694AD2F8883023F03003E1680B43C2F8F4
:103010008830236813F0080F08D0634AD2F888304C
:1030200023F0C00321690B43C2F88830236813F0F2
:10303000200F08D05C4AD2F8883023F440636169DD
:103040000B43C2F88830236813F0400F08D0564A6B
:10305000D2F8883023F44053A1690B43C2F888307A
:10306000236813F0800F08D04F4AD2F8883023F439
:103070004043E1690B43C2F88830236813F4807F32
:1030800008D0494AD2F8883023F44033216A0B43F0
:10309000C2F88830236813F4007F08D0424AD2F87F
:1030A000883023F44023616A0B43C2F888302368D8
:1030B00013F4806F0CD03C4AD2F8883023F44013CC
:1030C000A16A0B43C2F88830A36AB3F5801F57D0BA
:1030D000236813F4006F0CD0334AD2F8883023F4FD
:1030E0004003E16A0B43C2F88830E36AB3F5800F0E
:1030F0004BD0236813F4805F0CD02B4AD2F8883071
:1031000023F04073216B0B43C2F88830236BB3F17B
:10311000807F3FD0236813F4005F0CD0224AD2F89E
:10312000883023F04063616B0B43C2F88830636BD7
:10313000B3F1006F33D0236813F4804F0CD01A4AD8
:10314000D2F8883023F04063A16B0B43C2F888307B
:10315000A36BB3F1006F2BD0236813F4004F0CD096
:10316000114AD2F8883023F04053E16B0B43C2F888
:103170008830E36BB3F1805F1FD0284603B0F0BD09
:10318000D36843F48013D360A2E7D36843F4801379
:10319000D360AEE7D36843F48013D360BAE7D36853
:1031A00043F48013D360C6E7001002400070004073
:1031B000D36843F48013D360CEE7D36843F48033FD
:1031C000D360DAE700286FD010B50446436A33B9FC
:1031D0004368B3F5827F05D00023C36102E000237A
:1031E000036143610023A36294F85D30002B52D049
:1031F000022384F85D302268136823F040031360D3
:10320000E368B3F5E06F4CD90022B3F5706F04D0DA
:10321000B3F5E06F01D00023A362636803F4827307
:10322000A16801F404410B43216901F002010B4341
:10323000616901F001010B43A16901F400710B43C5
:10324000E16901F038010B43216A01F080010B4371
:10325000A16A01F4005120680B430360638B03F003
:103260000403616A01F010010B43616B01F0080176
:103270000B43E16801F470610B43216813434B6019
:103280002268D36923F40063D36100202066012300
:1032900084F85D3010BD84F85C302046FEF780F87D
:1032A000A6E74FF48052B0E7012070470D488546ED
:1032B000FEF73CFA0C480D490D4A002302E0D458B1
:1032C000C4500433C4188C42F9D30A4A0A4C002370
:1032D00001E013600432A242FBD300F01BFAFDF7B9
:1032E000E3FCFEE7008000200000002068000020D2
:1032F0005C49000868000020CC020020FEE70000C6
:10330000002310B50446C0E90033C0E904338360EC
:1033100081814366C2818361194608225C3000F0D6
:1033200028F90D4B63620D4BA3620D4BE3620D4B0D
:1033300023630D4B24629C4206D003F16802944241
:1033400002D0D0339C4205D104F15800BDE81040B2
:1033500000F004BA10BD00BFED3400080F350008BE
:10336000473500086B3500087C010020024A0349FC
:10337000034800F069B800BF0C000020714000084D
:103380001C00002041680C4B994210B5044601D046
:1033900000F06EFEA168094B994202D0204600F071
:1033A00067FEE168064B994204D02046BDE8104014
:1033B00000F05EBE10BD00BF7C010020E4010020D3
:1033C0004C02002010B50B4B0B4C0C4A1A602046E7
:1033D00000220421FFF794FF04F168000122092173
:1033E000FFF78EFF04F1D0000222BDE81040122149
:1033F000FFF786BFB40200207C0100206D33000877
:10340000014800F0ACB900BFBD020020014800F047
:10341000A7B900BFBD02002010B50446FFF7F0FFBA
:10342000236A1BB1BDE81040FFF7F0BF044B2362D5
:10343000044B1B68002BF5D1FFF7C4FFF2E700BF78
:1034400085330008B40200202DE9F843074688467A
:1034500014460026D4E90195B9F1010905D524687F
:10346000002CF7D13046BDE8F883AB89012B07D992
:10347000B5F90E30013303D029463846C04706431C
:103480006835E9E70CB430B5174B0C1E1D689DB0CC
:1034900008DA8B232B604FF0FF301DB0BDE83040C1
:1034A00002B070474FF40273ADF8143014BF04F14A
:1034B000FF332346049307934FF6FF730290069061
:1034C000ADF81630209A21AB02A92846019300F0EE
:1034D000C3FA431CBCBF8B232B60002CDDD0029BA6
:1034E00000221A70D9E700BF1800002010B50C4662
:1034F000B1F90E1000F0EAF80028ABBF636DA389A4
:103500001B1823F48053ACBF6365A38110BD2DE964
:10351000F0411F468B89DB0505460C46164605D54E
:10352000B1F90E100223002200F0BEF8A389B4F90D
:103530000E1023F48053A38132463B462846BDE853
:10354000F04100F0D5B810B50C46B1F90E1000F0FE
:10355000ABF8431CA38915BF606523F4805343F483
:103560008053A38118BFA38110BDB1F90E1000F0E4
:103570008BB802440346934200D1704703F8011B05
:10358000F9E730B50446257823460134002DFAD1F9
:10359000013A04D311F8014B03F8014B04B930BDD3
:1035A000002AF5D11A70F3E710B50139034632B19C
:1035B00011F8014F03F8014B013A002CF7D11A44DE
:1035C0000021934200D110BD03F8011BF9E7000070
:1035D000164B2DE9F0411F687C6C05460E46ECB990
:1035E000502000F027F90246786420B9104B1148AA
:1035F0005B2100F0B7F8C0E90044C0E90244C0E92B
:103600000444C0E90A44C0E90C44C0E90E44C0E9DE
:103610001044C0E912448461047744627A6C3146F4
:1036200028460123BDE8F04100F006B8180000204C
:103630004C48000863480008F0B5044608B914680F
:1036400044B1204614F8015B0F4617F8016B1EB910
:1036500065B91560002005E0B542F6D1002BF0D128
:1036600014600370F0BD1C460CE01DB9274614F829
:10367000013B0E4616F8015BAB42F6D1002BF2D0AF
:1036800000233B701460EDE738B5064D0023044677
:1036900008462B6001F038F8431C02D12B6803B1B7
:1036A000236038BDB802002038B5074D04460846EF
:1036B000114600222A601A4601F04EF8431C02D13E
:1036C0002B6803B1236038BDB802002038B5074D20
:1036D00004460846114600222A601A4601F044F8C2
:1036E000431C02D12B6803B1236038BDB80200200F
:1036F00038B5074D04460846114600222A601A468E
:1037000001F048F8431C02D12B6803B1236038BD97
:10371000B802002070B50D4D0D4C641BA41000269E
:10372000A64209D10B4D0C4C01F03EF8641BA410CD
:103730000026A64205D170BD55F8043B98470136D6
:10374000EEE755F8043B98470136F2E75449000884
:103750005449000854490008584900087047704708
:10376000704700001FB514461A46094B1B680546F2
:10377000D8684CB1074B0091CDE9013406492B467E
:1037800000F09EFC00F0E6FC044B1C46F3E700BF93
:1037900018000020DA480008E7480008154900082A
:1037A00038B50546002941D051F8043C0C1F002BC8
:1037B000B8BFE41800F0E8F81D4A136833B9636035
:1037C00014602846BDE8384000F0E4B8A34208D9A8
:1037D000206821188B4201BF19685B6809182160B5
:1037E000EDE71A465B680BB1A342FAD9116850188D
:1037F000A0420BD120680144501883421160E0D1EF
:1038000018685B68536008441060DAE702D90C233B
:103810002B60D6E7206821188B4204BF19685B68CB
:10382000636004BF091821605460CAE738BD00BF57
:10383000C4020020024B0146186800F025B800BF02
:103840001800002070B50F4E0C463168054611B9BE
:1038500000F062FC30602146284600F05DFC431C0D
:1038600003D14FF0FF34204670BDC41C24F0030484
:10387000A042F8D0211A284600F04EFC0130F2D1C7
:10388000EFE700BFC00200202DE9F843CD1C25F072
:10389000030508350C2D38BF0C25002D064601DB2D
:1038A000A94204D90C2333600020BDE8F883DFF877
:1038B000D48000F069F8D8F800301C4644BB294693
:1038C0003046FFF7BFFF431C044658D1D8F80040EC
:1038D0002746002F43D1002C4BD023683946304671
:1038E00004EB030900F018FC814542D121686D1AF0
:1038F00029463046FFF7A6FF01303AD023682B4413
:103900002360D8F800305A6862BBC8F800700FE036
:103910002268521B20D40B2A17D96119A3422560B3
:1039200018BF5960636808BFC8F8001062514B6047
:10393000304600F02FF804F10B00231D20F00700A3
:10394000C21A1CBF1B1AA350AFE76268A3420CBF88
:10395000C8F800205A60EBE723466468AEE73C46AF
:103960007F68B6E71A465B68A342FBD10023536029
:10397000DEE70C233360304600F00CF894E7056076
:10398000D6E700BFC40200200148FFF7E8BE00BF31
:10399000BC0200200148FFF7E3BE00BFBC020020CC
:1039A0002DE9F0478E681F46BE420B6882460C46E2
:1039B00090462DD8B1F90C2012F4906F26D065698D
:1039C000096905EB4505A3EB010905EBD5757B1CE2
:1039D0004B446D109D4238BF1D46530527D52946DF
:1039E000FFF752FF064660B321694A4600F0A4FB88
:1039F000A38923F4906343F08003A381266165616A
:103A00004E44A5EB09052660A5603E46BE4200D99E
:103A10003E4620683246414600F064FBA3689B1B8B
:103A2000A3602368334423600020BDE8F0872A4662
:103A300000F097FB06460028E0D121695046FFF7C9
:103A4000AFFE0C23CAF80030A38943F04003A381E2
:103A50004FF0FF30E9E700002DE9F04F98468B89E1
:103A60001B069DB007460D46144610D50B6973B969
:103A70004021FFF709FF2860286130B90C233B6023
:103A80004FF0FF301DB0BDE8F08F40236B61002385
:103A9000099320238DF82930CDF80C803023DFF8EE
:103AA0009C818DF82A304FF0010923469A4613F87D
:103AB000012B0AB1252AF9D1BAEB040B0BD05B46D6
:103AC000224629463846FFF76BFF013000F0A780F9
:103AD000099A5A4409929AF80030002B00F09F800E
:103AE00000234FF0FF32CDE905230AF1010A0493C8
:103AF00007938DF853301A935446052214F8011B8E
:103B00004E48FCF76DFB049AD8B9D00644BF202379
:103B10008DF85330110744BF2B238DF853309AF89A
:103B200000302A2B15D0079A544600204FF00A0C7B
:103B3000214611F8013B303B092B4BD9B0B107921C
:103B400014E0A0EB080309FA03F313430493A2461D
:103B5000D2E7039B191D1B680391002BBBBF5B427F
:103B600042F0020207930793B8BF049223782E2BEA
:103B70000AD163782A2B32D1039B1A1D1B6803924A
:103B800043EAE37302340593DFF8C0A021780322EF
:103B90005046FCF725FB38B1049BA0EB0A004022FD
:103BA000824013430134049314F8011B24488DF818
:103BB00028100622FCF714FB002836D0214B1BBB33
:103BC000039B073323F0070308330393099B334414
:103BD00009936AE70CFB02320C460120A8E7002398
:103BE0000134059319464FF00A0C204610F8012BBA
:103BF000303A092A03D9002BC6D00591C4E70CFB43
:103C0000012104460123F0E703AB00932A460E4B43
:103C100004A93846AFF30080421C0646D6D1AB89D2
:103C20005B063FF52DAF09982CE703AB00932A46BE
:103C3000054B04A9384600F079F8EDE7164900086D
:103C40002049000800000000A13900081C490008B4
:103C50002DE9F047164698468A680B69DDF82090F2
:103C60009342B8BF1346336091F8432007460C4691
:103C70000AB1013333602368990642BF33680233C7
:103C80003360256815F0060506D104F1190AE368CA
:103C900032689B1AAB4226DC94F843302268003B22
:103CA00018BF012392062BD404F143024146384643
:103CB000C84701301ED02368226903F00603042B95
:103CC00002BFE5683368ED1AA3680CBF25EAE57505
:103CD00000259342C4BF9B1AED1800261A34B54242
:103CE0001AD1002008E00123524641463846C84711
:103CF000013003D14FF0FF30BDE8F0870135C6E752
:103D0000E1185A1C302081F84300224494F84510F1
:103D100082F843100233C7E7012322464146384662
:103D2000C8470130E6D00136D9E700002DE9FF474A
:103D30000F7E0C9E782F914680460C469A4601F1E4
:103D4000430207D8622F0AD8002F00F0D180582FE5
:103D500000F0B88004F1420684F842703AE0A7F11E
:103D60006303152BF6D801A151F823F0C53D0008D7
:103D7000D93D0008553D0008553D0008553D000857
:103D8000553D0008D93D0008553D0008553D000847
:103D9000553D0008553D0008D73E0008033E000889
:103DA000913E0008553D0008553D0008F93E0008C9
:103DB000553D0008033E0008553D0008553D0008EC
:103DC000993E000833681A1D1B68326004F14206F0
:103DD00084F8423001239CE033682068191D31606B
:103DE000060601D51D6803E04506FBD5B3F9005072
:103DF000002D03DA2D236D4284F8433058480A23FE
:103E000011E021683368080653F8045B02D44906C0
:103E100048BFADB26F2F5248336014BF0A23082346
:103E2000002184F843106668A660002E05DB216837
:103E30002E4321F0040121604BD01646B5FBF3F16F
:103E400003FB1157C75D06F8017D2F46BB420D46A7
:103E5000F4D9082B0BD12368DF0708D523696168E3
:103E60009942DEBF302306F8013C06F1FF36921B73
:103E70002261CDF800A04B4603AA21464046FFF739
:103E8000E7FE01304AD14FF0FF3004B0BDE8F087C3
:103E9000236843F0200323603248782784F8457074
:103EA000236831681F0651F8045B02D45F0648BFDF
:103EB000ADB23160D90744BF43F0200323601DB188
:103EC0001023ADE72648E9E7236823F020032360A9
:103ED000F6E71646BDE7336825686169181D30604E
:103EE0002E061B6801D5196002E06806FBD5198013
:103EF000002323611646BCE733681A1D32601E6832
:103F0000626800213046FCF76BF908B1801B6060E5
:103F100063682361002384F84330AAE723693246AB
:103F200049464046D0470130ADD023689B0713D4A3
:103F3000E068039B9842B8BF1846A6E701233246C3
:103F400049464046D04701309DD00135E36803998A
:103F50005B1AAB42F2DCEBE7002504F11906F5E74A
:103F60002749000838490008B1F90C202DE9F04133
:103F7000160705460C4654D44B68002B02DC0B6C2C
:103F8000002B48DDE66A002E45D0002312F4805253
:103F90002F68216A2B6030D0626DA389590705D53F
:103FA0006368D21A636B0BB1236CD21A0023E66AE2
:103FB000216A2846B047431CA38906D129681D29D8
:103FC0002BD82A4ACA40D60727D500226260D904D6
:103FD0002269226004D5421C01D12B6803B96065B7
:103FE000616B2F60B9B104F14403994202D02846B5
:103FF000FFF7D6FB002363630DE001232846B0479B
:104000000246501CC9D12B68002BC6D01D2B01D0F5
:10401000162B1ED12F60002022E043F040031BB27C
:104020001BE00F69002FF6D093070E6808BF4B699D
:104030000F6018BF0023A6EB07088B60B8F1000FD4
:10404000E9DD216AA66A43463A462846B047002879
:1040500008DCB4F90C3043F04003A3814FF0FF308B
:10406000BDE8F0810744A8EB0008E7E70100402025
:1040700038B50B6905460C4613B90025284638BDEE
:1040800018B1036A0BB9FFF7C7F9B4F90C30002B6C
:10409000F3D0626ED00704D4990502D4A06DFFF767
:1040A0005EFB28462146FFF75FFF636EDA07054691
:1040B000E4D4A3899B05E1D4A06DFFF751FBDDE7B4
:1040C0000EB403B5014603AB054853F8042B006852
:1040D000019300F09DF802B05DF804EB03B0704767
:1040E00018000020884210B501EB020402D9844276
:1040F000234607D8431EA14208D011F8012B03F82C
:10410000012FF8E7024401468A4200D110BD13F89E
:10411000014D02F8014DF7E738B5064D002304467E
:1041200008462B6000F028FB431C02D12B6803B12A
:10413000236038BDB80200200A44914200F1FF33E9
:1041400000D1704710B511F8014B03F8014F9142AF
:10415000F9D110BD08B5062000F02EFA012000F0BC
:1041600021FB2DE9F041074614460D4621B9BDE873
:10417000F0411146FFF788BB2AB9FFF711FB25462E
:104180002846BDE8F08100F033FA8442064602D8A2
:10419000B4EB500FF4D821463846FFF775FB804644
:1041A00008B94546ECE7B4422246294628BF3246C4
:1041B000FFF7C2FF29463846FFF7F2FAF1E79368A6
:1041C000013B002B10B4936008DA9469A34201DB31
:1041D0000A2903D15DF8044B00F032B91368581C6A
:1041E0001060197008465DF8044B7047F8B5064634
:1041F0000F461446D518AC4201D1002007E014F850
:10420000011B3A463046FFF7DAFF431CF3D1F8BDF5
:104210002DE9F04F0D469DB014469846064618B15C
:10422000036A0BB9FFF7F8F86B6ED90705D4AB89B1
:104230009A0502D4A86DFFF792FAAB891B0701D546
:104240002B699BB92946304600F038F970B16B6E86
:10425000DC0704D54FF0FF301DB0BDE8F08FAB890F
:104260009805F7D4A86DFFF77BFAF3E700230993CD
:1042700020238DF82930CDF80C803023DFF8AC8175
:104280008DF82A304FF0010923469A4613F8012B86
:104290000AB1252AF9D1BAEB040B0BD05B462246B2
:1042A00029463046FFF7A2FF013000F0A780099AA7
:1042B0005A4409929AF80030002B00F09F800023A6
:1042C0004FF0FF32CDE905230AF1010A0493079369
:1042D0008DF853301A935446052214F8011B5348A5
:1042E000FBF77EFF049AD8B9D10644BF20238DF88E
:1042F0005330130744BF2B238DF853309AF8003006
:104300002A2B15D0079A544600204FF00A0C21465C
:1043100011F8013B303B092B4BD9B0B1079214E0A7
:10432000A0EB080309FA03F313430493A246D2E770
:10433000039B191D1B680391002BBBBF5B4242F01E
:10434000020207930793B8BF049223782E2B0AD159
:1043500063782A2B32D1039B1A1D1B68039243EA10
:10436000E37302340593DFF8D4A02178032250468A
:10437000FBF736FF38B1049BA0EB0A0040228240D5
:1043800013430134049314F8011B29488DF82810B5
:104390000622FBF725FF00283FD0264B1BBB039BC3
:1043A000073323F0070308330393099B3B44099326
:1043B0006AE70CFB02320C460120A8E70023013417
:1043C000059319464FF00A0C204610F8012B303A9D
:1043D000092A03D9002BC6D00591C4E70CFB0121A3
:1043E00004460123F0E703AB00932A46124B04A9CD
:1043F0003046AFF300800746781CD6D16B6ED907E4
:1044000005D4AB899A0502D4A86DFFF7A9F9AB8949
:104410005B063FF51FAF09981EE703AB00932A46E2
:10442000054B04A93046FFF781FCE4E71649000874
:104430002049000800000000ED4100081C49000868
:10444000F8B50E461446054618B1036A0BB9FEF7D7
:10445000E3FFA369A360A3891A0701D5236943B9C0
:104460002146284600F02AF818B14FF0FF373846A9
:10447000F8BD23682269981A6369F6B28342374609
:1044800005DC21462846FFF7F3FD0028EDD1A3689F
:10449000013BA36023685A1C22601E706269431CA2
:1044A0009A4204D0A389DB07E1D50A2EDFD1214649
:1044B0002846FFF7DDFD0028D9D0D6E738B5294BCF
:1044C000054618680C4618B1036A0BB9FEF7A4FF3D
:1044D000B4F90C30190722D4DA0607D409222A606D
:1044E00043F04003A3814FF0FF3033E0580712D56B
:1044F000616B41B104F14403994202D02846FFF7B1
:104500004FF900236363A38923F02403A3810023CD
:10451000636023692360A38943F00803A3812369AF
:104520004BB9A38903F42073B3F5007F03D0214670
:10453000284600F08BF8B4F90C3013F001020AD0D1
:104540000022A26062695242A261226942B913F05C
:104550008000C5D138BD990758BF6269A260F4E7F1
:104560000020F7E7180000201F2938B505460C4643
:1045700004D9162303604FF0FF3038BDC26B12B16F
:1045800052F821304BB9284600F030F82246014657
:104590002846BDE8384000F017B8012B0AD0591C56
:1045A00003D1162303600120E7E7002142F824101D
:1045B000204698470020E0E7024B01461868FFF7C5
:1045C000D3BF00BF1800002038B5074D00230446B4
:1045D000084611462B6000F0B7F8431C02D12B6847
:1045E00003B1236038BD00BFB802002000F09CB8C2
:1045F00051F8043C181F002BBCBF0B58C018704763
:1046000070B50C46B1F90E10002996B015461E463D
:104610000DDAA38913F0800F4FF0000114BF40237F
:104620004FF48063002031602B6016B070BD6A4685
:1046300000F048F80028ECDB019901F47041A1F585
:104640000053594259414FF48063EBE78B89F7B52A
:104650009D0706460C4607D504F1470323602361F6
:104660000123636103B0F0BD01AB6A46FFF7C8FFE9
:10467000009F054639463046FFF706F948B9B4F9B8
:104680000C309A05EED423F0030343F00203A38118
:10469000E2E7A389206043F08003A381019BC4E982
:1046A00004075BB1B4F90E10304600F01DF828B1D4
:1046B000A38923F0030343F00103A381A3891D43CE
:1046C000A581CFE738B5074D0023044608461146BB
:1046D0002B6000F021F8431C02D12B6803B123604A
:1046E00038BD00BFB802002038B5064D002304468F
:1046F00008462B6000F020F8431C02D12B6803B160
:10470000236038BDB8020020024B58221A604FF0D7
:10471000FF307047B8020020024B58221A604FF059
:10472000FF307047B8020020024B58221A604FF049
:10473000FF307047B8020020024B58221A60002058
:10474000704700BFB8020020024B58221A604FF099
:10475000FF307047B8020020024B58221A604FF019
:10476000FF307047B8020020024B58221A604FF009
:10477000FF307047B8020020044A05491368002B37
:1047800008BF0B461844106018467047C802002046
:10479000D0020020024B58221A604FF0FF307047C1
:1047A000B8020020FEE700BFF8B500BFF8BC08BCA7
:1047B0009E467047F8B500BFF8BC08BC9E467047DF
:1047C000B56206010800F001000000000000002AA8
:1047D000B56206010800F00200000000000001318F
:1047E000B56206010800F003000000000000023876
:1047F000B56206010800F004000000000000033F5D
:10480000B56206010800F005000000000000044643
:10481000B56206080600C80001000100DE6A00005B
:104820002C00000025732C25732C25732C25730078
:1048300025732C25732C2573000000000000000058
:104840000000000001020304060708095245454E16
:1048500054206D616C6C6F63207375636365656470
:104860006564002F5F5F772F61726D2D6E6F6E65CF
:104870002D656162692D6763632D787061636B2FAD
:1048800061726D2D6E6F6E652D656162692D676356
:10489000632D787061636B2F6275696C642F776923
:1048A0006E33322D7836342F736F75726365732FC4
:1048B0006E65776C69622D63796777696E2F6E65B7
:1048C000776C69622F6C6962632F737472696E67AB
:1048D0002F737472746F6B2E63002C2066756E6379
:1048E00074696F6E3A2000617373657274696F6EDC
:1048F0002022257322206661696C65643A2066690E
:104900006C6520222573222C206C696E652025643D
:10491000257325730A00232D302B2000686C4C0072
:1049200065666745464700303132333435363738AF
:10493000394142434445460030313233343536370D
:0C494000383961626364656600000000A5
:08494C0094B8FF7F0100000098
:04495400110900083D
:04495800ED0800085E
:10495C000024F40001000000100000000000000022
:10496C00030000007C0100201C000020000000005F
:10497C007C010020E40100204C020020000000001B
:10498C00000000000000000000000000000000001B
:10499C00000000000000000000000000000000000B
:1049AC0000000000000000000000000000000000FB
:0849BC000000000000000000F3
:04000005080032AD10
:00000001FF
