:020000040800F2
:1000000000800020851E00087105000873050008A7
:100010007505000877050008790500080000000054
:100020000000000000000000000000007B05000848
:100030007D050008000000007F050008810500081C
:10004000D51E0008D51E0008D51E0008D51E0008C4
:10005000D51E0008D51E0008D51E0008D51E0008B4
:10006000D51E0008D51E0008D51E0008D51E0008A4
:10007000D51E0008D51E0008D51E0008D51E000894
:10008000D51E000800000000D51E0008D51E00087F
:10009000D51E0008D51E0008D51E0008D51E000874
:1000A000D51E0008D51E0008D51E0008D51E000864
:1000B000D51E0008D51E0008D51E0008D51E000854
:1000C000D51E0008D51E0008D51E0008D51E000844
:1000D000D51E0008D51E0008D51E0008D51E000834
:1000E00089050008D51E0008D51E0008D51E000889
:1000F000D51E0008D51E0008D51E0008000000000F
:1001000000000000D51E00080000000009060008DD
:10011000D51E000800000000D51E0008D51E0008EE
:10012000D51E0008D51E0008D51E0008D51E0008E3
:10013000D51E00080000000000000000D51E0008C9
:10014000D51E0008D51E00080000000000000000B9
:10015000000000000000000000000000000000009F
:10016000000000000000000000000000D51E000894
:10017000D51E000800000000000000000000000084
:1001800000000000D51E0008000000000000000074
:10019000000000000000000000000000000000005F
:1001A0000000000000000000D51E0008D51E000859
:1001B000D51E0008D51E0008D51E0008000000004E
:1001C00000000000D51E0008000000000000000034
:0801D000D51E0008D51E000831
:1001D80010B5054C237833B9044B13B10448AFF379
:1001E80000800123237010BD1000002000000000D3
:1001F800301F000808B5034B1BB103490348AFF390
:10020800008008BD0000000014000020301F000816
:1002180070B588B000240394049405940694079458
:100228002D4BDA6C42F00102DA64DA6C02F001025A
:100238000192019ADA6C42F00202DA64DB6C03F094
:1002480002030293029B22464FF4B0514FF09040B4
:1002580000F0D8FB214D22464021284600F0D2FB71
:1002680040F2971303930494059403A94FF0904028
:1002780000F0DEFA012603960494059403A92846A3
:1002880000F0D6FA4FF4B0530393049605940694FD
:1002980003A94FF0904000F0CBFA4FF400630393AA
:1002A8004FF404130493059403A94FF0904000F011
:1002B800BFFA4023039304960594069403A928469D
:1002C80000F0B6FA22462146282000F049FA2820F4
:1002D80000F056FA08B070BD001002400004004853
:1002E80008B51548154B0360A3F17563A3F57A2388
:1002F800A3F605434360002383600122C2600361C3
:1003080043618361C361036200F090FB50B900212F
:10031800094800F0EFFB40B90021074800F018FC3D
:1003280030B908BD00F066F8F1E700F063F8F3E7CC
:1003380000F060F8F5E700BF2C00002000540040F2
:10034800F0B59BB0044600211591169117911891AC
:100358001991442204A801F0BAFD2268224B9A425E
:1003680001D01BB0F0BD4023049304A801F080F82D
:10037800002835D11D4CE36C43F00103E364E36CC2
:1003880003F001030193019BE36C43F00203E36470
:10039800E36C03F002030293029B4FF400431593AE
:1003A800122716970025179518950426199615A94A
:1003B8004FF0904000F03CFA80231593169717955C
:1003C8001895199615A90A4800F032FAA36D43F456
:1003D8000013A365A36D03F400130393039BC0E705
:1003E80000F008F8C6E700BF0054004000100240C3
:1003F8000004004872B6FEE700B595B03822002127
:1004080006A801F064FD002001900290039004907A
:10041800059000F0C9FB022306934FF480720992FD
:1004280040220A920D930E9304220F9255221092A5
:1004380011931293139306A800F068FC80B90F2358
:100448000193032302930023039304930593042148
:100458000DEB010000F010FF20B915B05DF804FBAA
:10046800FFF7C8FFFFF7C6FF08B500F003F9FFF76D
:10047800C3FFFFF7CDFEFFF733FF00F001F8FEE7FB
:1004880008B50E480E4B03600023436083604FF4A9
:10049800E062C260036143614FF4007282610362EB
:1004A800436283620722C2620363436301F05FFA17
:1004B80000B908BDFFF79EFFFBE700BF80000020E2
:1004C800003C004000B589B00023039304930593D2
:1004D800069307930268164B9A4202D009B05DF85A
:1004E80004FB03F5EA339A6D42F400429A659A6D6B
:1004F80002F400420192019ADA6C42F00202DA64D4
:10050800DB6C03F002030293029B3823039302235C
:1005180004930623079303A9064800F089F90022EB
:100528001146332000F01CF9332000F029F9D5E7F3
:10053800003C00400004004882B00A4B1A6E42F0AA
:1005480001021A661A6E02F001020092009A9A6D70
:1005580042F080529A659B6D03F080530193019B92
:1005680002B0704700100240FEE7FEE7FEE7FEE734
:10057800FEE770477047704708B500F08BF808BD74
:1005880010B586B01B4B1B788DF80C30DB238DF82B
:100598000D308DF80E308DF80F308DF810308DF845
:1005A80011308DF812308DF813308DF814308DF825
:1005B80015308DF816308DF817300F4C4FF47A73CC
:1005C80000930C2322460DEB03010C4801F043FA7B
:1005D8002378C52B02D0C92B03D005E0054BA522F3
:1005E8001A70044BA5221A704FF4006000F010FA3C
:1005F80006B010BD00000020E400002080000020AC
:1006080008B5024801F09EFB08BD00BF800000202D
:10061800034AD2F8883043F47003C2F88830704730
:1006280000ED00E0104B1B680BB90120704710B5B6
:1006380004464FF47A70B0FBF3F30C4A1068B0FB31
:10064800F3F000F0A1F868B90F2C01D901200AE0F5
:10065800002221464FF0FF3000F082F8044B1C6066
:10066800002000E0012010BD080000200400002048
:100678000C00002010B5032000F060F80020FFF700
:10068800D1FF10B10124204610BD0446FFF754FFE6
:10069800F9E70000034A1368034909680B4413602B
:1006A800704700BFF000002008000020014B1868C8
:1006B800704700BFF0000020002807DB00F01F0291
:1006C800400901239340024A42F82030704700BF96
:1006D80000E100E0002808DB0901C9B200F1604030
:1006E80000F5614080F80013704700F00F00090121
:1006F800C9B2014B1954704714ED00E000B500F081
:100708000700C0F1070CBCF1040F28BF4FF0040C20
:10071800031D062B0FD9C31E4FF0FF3E0EFA0CF037
:1007280021EA000199400EFA03FE22EA0E0241EA8C
:1007380002005DF804FB0023EEE70000074AD368D7
:1007480023F4E0631B041B0C000200F4E060034385
:1007580043F0BF6343F40033D360704700ED00E01B
:1007680010B50446054BD868C0F30220FFF7C6FF52
:1007780001462046FFF7AEFF10BD00BF00ED00E0C8
:1007880008B5FFF799FF08BD0138B0F1807F0BD29B
:100798004FF0E0235861054AF02182F82310002029
:1007A800986107221A6170470120704700ED00E048
:1007B80008B590F82530DBB2022B09D00423C363B7
:1007C800012380F82530002280F82420184608BD2F
:1007D8000268136823F00E0313600268136823F09D
:1007E80001031360826C136823F480731360436CF5
:1007F80003F01F02016C012393404B60C36C026D30
:100808005A60436D33B11A6822F480721A60836D9E
:10081800C26D5A60012380F82530002380F8243007
:10082800836B13B198470020D1E70020CFE7000081
:10083800F0B583B0002362E085685E000324B4400D
:1008480025EA0405CC68B4402C438460456825EA51
:100858000C054C68C4F300149C402C4344605FE0D2
:10086800DD08083550F8254003F0070C4FEA8C0CDA
:100878004FF00F0E0EFA0CFE24EA0E0E0C6904FA65
:100888000CF444EA0E0440F8254060E0052400E03A
:10089800002404FA0EF42C430CF1020C554D45F8D3
:1008A8002C40554CA568D44325EA02064F6817F436
:1008B800801F01D042EA05064F4DAE60ED6804EA9C
:1008C80005064F6817F4001F01D042EA05064A4D95
:1008D800EE606D6804EA05064F6817F4003F01D022
:1008E80042EA0506444D6E602D682C404E6816F4A9
:1008F800803F01D042EA05043F4A146001330A6888
:1009080032FA03F474D04FF0010C0CFA03FC1CEA21
:100918000202F3D04C6804F00304013C012C8BD98B
:100928004C6804F00304032C0CD0C4685D004FF03D
:10093800030C0CFA05FC24EA0C0C8C68AC4044EA65
:100948000C04C4604C6804F00304022C88D00468CA
:100958004FEA430E4FF0030C0CFA0EFC24EA0C0C81
:100968004C6804F0030404FA0EF444EA0C0404602E
:100978004C6814F4403FC1D0204C256E45F0010569
:100988002566246E04F001040194019C4FEA930C3F
:100998000CF10205174C54F8255003F0030E4FEAEA
:1009A8008E0E0F2404FA0EF425EA0405B0F1904FD8
:1009B8003FF46EAF124CA04212D004F58064A042FE
:1009C80010D004F58064A0420ED004F58064A042E3
:1009D8000CD004F58064A0423FF458AF062458E7D1
:1009E800012456E7022454E7032452E7042450E77D
:1009F80003B0F0BD000001400004014000100240B7
:100A0800000400480AB181617047816270477047ED
:100A180008B5054B5B69034200D108BD024B58611C
:100A2800FFF7F5FFF9E700BF0004014000285FD099
:100A380010B5044690F84130002B48D0242384F8A0
:100A480041302268136823F0010313606368226849
:100A580023F0706313612268936823F40043936062
:100A6800E368012B38D0A368226843F404439360F9
:100A7800E368022B36D02268536823F4006353607E
:100A88002268536843F0007343F4004353602268BC
:100A9800D36823F40043D360236962691343A169CF
:100AA800226843EA0123D360E369216A22680B4381
:100AB80013602268136843F0010313600020606428
:100AC800202384F84130206384F8420010BD80F868
:100AD8004030FFF735FCB1E7A368226843F40043D0
:100AE8009360C5E72268536843F400635360C7E71F
:100AF80001207047034690F84120D2B2202A23D122
:100B080090F84020012A21D0012280F84020242298
:100B180080F841200068026822F00102026018682B
:100B2800026822F48052026018680268114301606A
:100B380019680A6842F001020A60202283F84120FD
:100B4800002083F840007047022070470220704759
:100B5800034690F84120D2B2202A21D190F84020B3
:100B6800012A1FD0012280F84020242280F8412049
:100B78000068026822F0010202601868026822F424
:100B8800706242EA0122026019680A6842F00102B2
:100B98000A60202283F84120002083F84000704733
:100BA8000220704702207047002836D13E4B1B6850
:100BB80003F4C063B3F5806F08D03B4AD2F88030A5
:100BC80023F48073C2F8803000207047364AD2F888
:100BD800803023F48073C2F88030136823F4C06334
:100BE80043F400731360314B1B68322202FB03F39A
:100BF8002F4AA2FB03239B0C013300E0013B2A4A46
:100C0800526912F4806F01D0002BF7D1264B5B6933
:100C180013F4806F44D100207047B0F5007F08D0EE
:100C2800214A136823F4C06343F4806313600020EF
:100C380070471D4B1B6803F4C063B3F5806F08D081
:100C4800194AD2F8803043F48073C2F8803000200B
:100C58007047154AD2F8803043F48073C2F8803068
:100C6800136823F4C06343F4007313600F4B1B68CD
:100C7800322202FB03F30E4AA2FB03239B0C01332F
:100C880000E0013B084A526912F4806F01D0002B42
:100C9800F7D1054B5B6913F4806F03D100207047CF
:100CA80003207047032070470070004004000020B4
:100CB80083DE1B43124BDA6802F00302DB68C3F3DE
:100CC80003130133032A11D00E48B0FBF3F00C4B89
:100CD800DB68C3F3062303FB00F0094BDB68C3F3AF
:100CE800416301335B00B0FBF3F070470648B0FB8B
:100CF800F3F0034BDB68C3F3062303FB00F0ECE7D8
:100D0800001002400024F40000127A00002800F0CD
:100D18004F8270B582B00446036813F0010F37D0D4
:100D2800A44A936803F00C03D26802F003020C2B68
:100D380023D0082B23D06368B3F5803F4ED0B3F59A
:100D4800A02F51D09B4B1A6822F480321A601A687F
:100D580022F480221A606368002B52D0FFF7A6FCA9
:100D68000546944B1B6813F4003F11D1FFF79EFC16
:100D7800401B6428F5D9032023E2032AD9D18D4BDF
:100D88001B6813F4003F03D06368002B00F0128245
:100D9800236813F0020F5DD0864A936803F00C03B2
:100DA800D26802F003020C2B3AD0042B3AD0E36845
:100DB800002B75D07F4A136843F480731360FFF7E4
:100DC80075FC05467B4B1B6813F4806F5FD1FFF7FA
:100DD8006DFC401B0228F5D90320F2E1754A13681F
:100DE80043F480331360B6E703F18043A3F53C3343
:100DF8001A6842F480221A601A6842F480321A6033
:100E0800A9E7FFF753FC05466A4B1B6813F4003F3C
:100E1800BED0FFF74BFC401B6428F5D90320D0E176
:100E2800022AC2D1634B1B6813F4806F03D0E368B6
:100E3800002B00F0C1815F4A536823F0FE4321690B
:100E480043EA016353605C4B1868FFF7EBFB00282B
:100E580040F0B481236813F0080F4CD063699BB34A
:100E6800544AD2F8943043F00103C2F89430FFF7A3
:100E78001DFC05464F4BD3F8943013F0020F3AD1BE
:100E8800FFF714FC401B0228F4D9032099E1494AD2
:100E9800536823F0FE43216943EA01635360D9E7AD
:100EA800444A136823F480731360FFF7FFFB054679
:100EB800404B1B6813F4806FCCD0FFF7F7FB401B47
:100EC8000228F5D903207CE13A4AD2F8943023F07D
:100ED8000103C2F89430FFF7E9FB0546354BD3F818
:100EE800943013F0020F06D0FFF7E0FB401B0228F6
:100EF800F4D9032065E1236813F0040F00F0818022
:100F08002C4B9B6D13F0805F36D12A4B9A6D42F0C3
:100F180080529A659B6D03F080530193019B0125D4
:100F2800264B1B6813F4807F28D0A368012B39D087
:100F3800052B45D01F4BD3F8902022F00102C3F8AF
:100F48009020D3F8902022F00402C3F89020A368E0
:100F5800002B43D0FFF7AAFB0646164BD3F8903078
:100F680013F0020F4CD1FFF7A1FB801B41F288332D
:100F78009842F2D9032024E10025D1E70F4A1368EB
:100F880043F480731360FFF791FB06460B4B1B6815
:100F980013F4807FC9D1FFF789FB801B0228F5D99C
:100FA80003200EE1034AD2F8903043F00103C2F85F
:100FB8009030CCE7001002400C0000200070004088
:100FC800884BD3F8902042F00402C3F89020D3F85D
:100FD800902042F00102C3F89020B8E7FFF766FBC3
:100FE8000646804BD3F8903013F0020F08D0FFF775
:100FF8005DFB801B41F288339842F2D90320E0E080
:10100800E5B9236813F0200F35D0A369E3B1754A19
:10101800D2F8983043F00103C2F89830FFF746FB46
:101028000546704BD3F8983013F0020F23D1FFF721
:101038003DFB401B0228F4D90320C2E0694A936DA6
:1010480023F080539365DCE7664AD2F8983023F0A2
:101058000103C2F89830FFF729FB0546614BD3F826
:10106800983013F0020F06D0FFF720FB401B022830
:10107800F4D90320A5E0E369002B00F0A180594AC8
:10108800926802F00C020C2A64D0022B13D0554A45
:10109800136823F080731360FFF708FB0446514B75
:1010A8001B6813F0007F4ED0FFF700FB001B0228DF
:1010B800F5D9032085E04B4A136823F08073136049
:1010C800FFF7F4FA0546474B1B6813F0007F06D07C
:1010D800FFF7ECFA401B0228F5D9032071E0414ADA
:1010E800D36841491940236A606A013843EA00130A
:1010F800A06A43EA0023206B4008013843EA4053C2
:10110800606B4008013843EA4063E06A43EAC06321
:101118001943D160136843F080731360D36843F0B8
:101128008073D360FFF7C2FA04462E4B1B6813F096
:10113800007F06D1FFF7BAFA001B0228F5D9032071
:101148003FE000203DE0274AD168284B0B40D360A0
:10115800002036E0012B36D0224BDB6803F0030178
:10116800226A914231D103F0F002616A0139B2EB8F
:10117800011F2CD103F4FE42A16AB2EB012F28D142
:1011880003F07842E16AB2EBC16F24D103F4C001E5
:10119800226B5208013AB1EB425F1ED103F0C063E3
:1011A800626B5208013AB3EB426F18D1002008E095
:1011B80001207047012004E0012002E0012000E046
:1011C800002002B070BD0120FBE70120F9E70120F3
:1011D800F7E70120F5E70120F3E70120F1E7012017
:1011E800EFE700BF001002400C809F01FCFFEEFEFD
:1011F8001E4B9B6803F00C03042B33D01B4B9B68DE
:1012080003F00C03082B2FD0184B9B6803F00C033A
:101218000C2B01D000207047144BDA6802F003024F
:10122800DB68C3F303130133032A11D01048B0FB62
:10123800F3F00E4BDB68C3F3062303FB00F00B4B04
:10124800DB68C3F3416301335B00B0FBF3F0704725
:101258000848B0FBF3F0054BDB68C3F3062303FB38
:1012680000F0ECE70248704702487047001002405F
:101278000024F40000127A00002800F0E680F8B597
:101288000C460546744B1B6803F00F038B420BD2C8
:10129800714A136823F00F030B431360136803F0BC
:1012A8000F038B4240F0D3802E6816F001065FD002
:1012B8006B68032B2FD0022B4DD0684B1B6813F49F
:1012C800806F00F0C680FFF793FF654B98424DD9B9
:1012D800624A936823F0F00343F08003936080260A
:1012E8005E4A936823F0030369680B439360FFF732
:1012F800DDF90746594B9B6803F00C036A68B3EBAA
:10130800820F35D0FFF7D2F9C01B41F288339842DB
:10131800F0D9032078E0514B1B6813F0007F01D10E
:10132800012071E0FFF7C6FC4D4B98421AD94B4B90
:101338009B6813F0F00F05D02E6816F00206CFD088
:10134800AB688BB9454A936823F0F00343F08003F8
:1013580093608026C4E7414B1B6813F4003FB2D169
:10136800012051E00026BBE70026B9E70026B7E7D1
:101378002B6813F0020F48D013F0040F04D0374A3B
:10138800936843F4E06393602B6813F0080F06D06A
:10139800324A936823F47C5343F4E06393602F4A02
:1013A800936823F0F003A9680B4393602A4B1B68EA
:1013B80003F00F03A34230D82B6813F0040F06D0B4
:1013C800264A936823F4E063E9680B4393602B682B
:1013D80013F0080F07D0214A936823F46053296952
:1013E80043EAC1039360FFF703FF1C4B9B68C3F3F9
:1013F80003131C4AD35C03F01F03D8401A4B186030
:101408001A4B1868FFF70EF9F8BD802ECED1134A93
:10141800936823F0F0039360C8E70F4A136823F03A
:101428000F0323431360FFF741F906460A4B1B6875
:1014380003F00F03A342BFD0FFF738F9801B41F236
:1014480088339842F2D90320DEE701207047012053
:10145800DAE70120D8E700BF002002400010024070
:1014680000B4C404481F0008040000200C00002039
:10147800F0B583B00446036813F4002F69D0AE4B6F
:101488009B6D13F0805F1ED1AB4B9A6D42F080527A
:101498009A659B6D03F080530193019B0126A74A2F
:1014A800136843F480731360FFF700F90546A34BF4
:1014B8001B6813F4807F08D1FFF7F8F8401B022857
:1014C800F5D9032502E00026E9E7002545BB9A4B3C
:1014D800D3F8903013F4407315D0226C9A4212D08E
:1014E800954AD2F8903023F44073D2F8901041F422
:1014F8008031C2F89010D2F8901021F48031C2F8EF
:101508009010C2F8903013F0010F10D145B98A4AF3
:10151800D2F8903023F44073216C0B43C2F890301A
:10152800C6B1854A936D23F08053936512E0FFF7A7
:10153800BDF80746804BD3F8903013F0020FE5D181
:10154800FFF7B4F8C01B41F288339842F2D903255B
:10155800DCE70025236813F0010F08D0764AD2F89B
:10156800883023F0030361680B43C2F8883023688E
:1015780013F0020F08D0704AD2F8883023F00C0319
:10158800A1680B43C2F88830236813F0040F08D011
:10159800694AD2F8883023F03003E1680B43C2F877
:1015A8008830236813F0080F08D0634AD2F88830CF
:1015B80023F0C00321690B43C2F88830236813F075
:1015C800200F08D05C4AD2F8883023F44063616960
:1015D8000B43C2F88830236813F0400F08D0564AEE
:1015E800D2F8883023F44053A1690B43C2F88830FD
:1015F800236813F0800F08D04F4AD2F8883023F4BC
:101608004043E1690B43C2F88830236813F4807FB4
:1016180008D0494AD2F8883023F44033216A0B4372
:10162800C2F88830236813F4007F08D0424AD2F801
:10163800883023F44023616A0B43C2F8883023685A
:1016480013F4806F0CD03C4AD2F8883023F440134E
:10165800A16A0B43C2F88830A36AB3F5801F57D03C
:10166800236813F4006F0CD0334AD2F8883023F47F
:101678004003E16A0B43C2F88830E36AB3F5800F90
:101688004BD0236813F4805F0CD02B4AD2F88830F3
:1016980023F04073216B0B43C2F88830236BB3F1FE
:1016A800807F3FD0236813F4005F0CD0224AD2F821
:1016B800883023F04063616B0B43C2F88830636B5A
:1016C800B3F1006F33D0236813F4804F0CD01A4A5B
:1016D800D2F8883023F04063A16B0B43C2F88830FE
:1016E800A36BB3F1006F2BD0236813F4004F0CD019
:1016F800114AD2F8883023F04053E16B0B43C2F80B
:101708008830E36BB3F1805F1FD0284603B0F0BD8B
:10171800D36843F48013D360A2E7D36843F48013FB
:10172800D360AEE7D36843F48013D360BAE7D368D5
:1017380043F48013D360C6E70010024000700040F5
:10174800D36843F48013D360CEE7D36843F480337F
:10175800D360DAE72DE9F04782B005468846174698
:101768001E46FEF7A3FF0A9B1B1A03EB0609FEF7AA
:101778009DFF8246284B1B68C3F3CB3309FB03F359
:1017880001932B689C6838EA04040CBF01230023EA
:10179800BB423DD0B6F1FF3FF3D0FEF787FFA0EB89
:1017A8000A00484507D2019A02B14A46019B013B0B
:1017B80001939146E5E72A68536823F0E0035360F4
:1017C8006B68B3F5827F0BD0AB6AB3F5005F14D0BA
:1017D800012385F85D30002385F85C30032018E08C
:1017E800AB68B3F5004F02D0B3F5806FECD12A682F
:1017F800136823F040031360E6E72A68136823F4AC
:10180800005313602A68136843F400531360DFE73A
:10181800002002B0BDE8F087040000202DE9F04761
:1018280082B006460C4615461F4600238DF8033045
:10183800FEF73CFF0A9B1B1A03EB0708FEF736FF6F
:101848008146D6F800A0304B1B6803EB8303C3EB3B
:10185800C3031B0D08FB03F3019302E0B7F1FF3F3D
:1018680012D133689B6803EA040CAC4547D0B4F541
:10187800C06FF3D1002DF1D19AF80C30DBB28DF89E
:1018880003309DF80330E9E7FEF710FFA0EB0900ED
:10189800404507D2019A02B14246019B013B0193A0
:1018A8009046DEE73268536823F0E00353607368BC
:1018B800B3F5827F0BD0B36AB3F5005F14D0012370
:1018C80086F85D30002386F85C30032018E0B368A2
:1018D800B3F5004F02D0B3F5806FECD132681368CE
:1018E80023F040031360E6E73268136823F40053DB
:1018F80013603268136843F400531360DFE7002075
:1019080002B0BDE8F08700BF0400002070B582B0C7
:1019180004460D46164600920B4600224FF4C0516D
:10192800FFF77CFFB0B900962B46002280212046A5
:10193800FFF710FFA8B900962B4600224FF4C061AC
:101948002046FFF76BFF50B1236E43F02003236658
:10195800032004E0236E43F020032366032002B033
:1019680070BD236E43F0200323660320F7E70028A9
:101978006FD010B50446436A33B94368B3F5827F24
:1019880005D00023C36102E0002303614361002303
:10199800A36294F85D30002B52D0022384F85D30A6
:1019A8002268136823F040031360E368B3F5E06F1F
:1019B8004CD90022B3F5706F04D0B3F5E06F01D0B5
:1019C8000023A362636803F48273A16801F40441ED
:1019D8000B43216901F002010B43616901F0010128
:1019E8000B43A16901F400710B43E16901F038016F
:1019F8000B43216A01F080010B43A16A01F40051F5
:101A080020680B430360638B03F00403616A01F0F1
:101A180010010B43616B01F008010B43E16801F40D
:101A280070610B43216813434B602268D36923F428
:101A38000063D36100202066012384F85D3010BD67
:101A480084F85C302046FEF73DFDA6E74FF480524F
:101A5800B0E7012070472DE9F8431F46089D90F82C
:101A68005C30012B00F06B810446884691460123C7
:101A780080F85C30FEF71AFE064694F85D30DBB25B
:101A88006268012B0AD0B2F5827F40F04681A268D5
:101A9800002A40F04881042B40F04781B8F1000F3C
:101AA80000F04581B9F1000F00F04381002F00F0EC
:101AB800428194F85D30DBB2042B02D0052384F810
:101AC8005D3000232366C4F84090A4F84670A4F85B
:101AD8004470C4F83880E787A787E3642365E36820
:101AE800B3F5E06F01D8012F23D92268536823F496
:101AF8008053536023681A6812F0400F03D11A68A4
:101B080042F040021A60E368B3F5E06F5CD963689D
:101B18000BB1012F0BD1A26B23681288DA60A36B7B
:101B28000233A363E38F9BB2013B9BB2E387012798
:101B380030E02268536843F480535360DAE7A26BBD
:101B48001288DA60A36B0233A363E38F9BB2013B75
:101B58009BB2E387002723689A6812F0010F11D01F
:101B6800B4F8462092B26AB1DA68236C1A80236C02
:101B780002332364B4F846309BB2013B9BB2A4F80D
:101B880046300127FEF792FD831BAB4202D3B5F125
:101B9800FF3F14D1E38F9BB22BB9B4F846309BB208
:101BA800002B00F0AB8023689A6812F0020FD2D0A5
:101BB800E28F92B2002ACED0002FCCD0BFE701230B
:101BC80084F85D300320A9E063680BB1012F0FD1C1
:101BD800E38F9BB2012B0DD9A26B23681288DA60C0
:101BE800A36B0233A363E38F9BB2023B9BB2E387F1
:101BF800012749E0A26B236812781A73A36B01339B
:101C0800A363E38F9BB2013B9BB2E387F0E7E28FCC
:101C180092B2012A0CD9A26B1288DA60A36B023344
:101C2800A363E38F9BB2023B9BB2E38700273DE0AF
:101C3800A26B12781A73A36B0133A363E38F9BB271
:101C4800013B9BB2E387002730E02268536843F4E6
:101C58008053536001270DE0226C1B7B1370236CAB
:101C680001332364B4F846309BB2013B9BB2A4F81D
:101C780046300127FEF71AFD801BA84202D3B5F1B2
:101C8800FF3F36D1002D34D0E38F9BB223B9B4F88F
:101C980046309BB2002B31D023689A6812F0020FAD
:101CA80004D0E28F92B20AB1002FB0D123689A68AB
:101CB80012F0010FDED0B4F8462092B2002AD9D033
:101CC800B4F8462092B2012AC6D9DA68236C1A8081
:101CD800236C02332364B4F846309BB2023B9BB2B8
:101CE800A4F84630B4F846309BB2012BADD9012791
:101CF800C0E7012384F85D3003200FE0324629460F
:101D08002046FFF703FE10B1202323660120236E2F
:101D18009BB9012384F85D3000E00220002384F899
:101D28005C30BDE8F8830220F8E70220F6E70120DE
:101D3800F4E70120F2E70120F0E70120EEE70220B6
:101D4800EFE7704730B585B004460268516893687C
:101D5800C3F3801013F0400F05D113F0010F02D028
:101D680011F0400F69D113F0020F02D011F0800F6B
:101D780067D1C3F3401513F0200F03D110B913F442
:101D8800807F61D011F0200F5ED078B194F85D00AB
:101D9800C0B203285AD0206E40F00400206600200C
:101DA8000090D068009090680090009865B1206E0F
:101DB80040F00100206600200290906802901068B0
:101DC80020F040001060029A13F4807F09D0236E3F
:101DD80043F0080323660023039323689B68039357
:101DE800039B236E002B2FD02268536823F0E00357
:101DF8005360012384F85D3011F0030F2ED0226860
:101E0800536823F003035360A36D4BB1154A9A63DB
:101E1800A06DFEF7CDFC18B1236E43F04003236696
:101E2800636D8BB10F4A9A63606DFEF7C1FC58B1C0
:101E3800236E43F04003236606E0E36C2046984790
:101E480002E0236D2046984705B030BD002301937A
:101E5800D368019393680193019BF5E72046FFF748
:101E680070FFF1E7711E000808B5806A0023A0F82A
:101E78004630C387FFF765FF08BD00000D4885465B
:101E8800FEF7C6FB0C480D490D4A002302E0D45862
:101E9800C4500433C4188C42F9D30A4A0A4C0023AC
:101EA80001E013600432A242FBD300F019F8FEF7F8
:101EB800DBFAFEE700800020000000201000002070
:101EC800601F000810000020F4000020FEE7024414
:101ED8000346934200D1704703F8011BF9E700005D
:101EE80070B50D4D0D4C641BA4100026A64209D1F7
:101EF8000B4D0C4C00F018F8641BA4100026A642E9
:101F080005D170BD55F8043B98470136EEE755F802
:101F1800043B98470136F2E7581F0008581F00088D
:101F2800581F00085C1F0008F8B500BFF8BC08BCC3
:101F38009E467047F8B500BFF8BC08BC9E4670477F
:101F48000000000000000000010203040607080961
:041F5800FD0100087F
:041F5C00D90100089F
:101F6000A10000000024F4000100000010000000A7
:0400000508001E854C
:00000001FF
