:020000040800F2
:10000000008000209D1C0008890500088B05000861
:100010008D0500088F05000891050008000000000C
:100020000000000000000000000000009305000830
:1000300095050008000000009705000899050008D4
:10004000ED1C0008ED1C0008ED1C0008ED1C00086C
:10005000ED1C0008ED1C0008ED1C0008ED1C00085C
:10006000ED1C0008ED1C0008ED1C0008ED1C00084C
:10007000ED1C0008ED1C0008ED1C0008ED1C00083C
:10008000ED1C000800000000ED1C0008ED1C00083D
:10009000ED1C0008ED1C0008ED1C0008ED1C00081C
:1000A000ED1C0008ED1C0008ED1C0008ED1C00080C
:1000B000ED1C0008ED1C0008ED1C0008ED1C0008FC
:1000C000ED1C0008ED1C0008ED1C0008ED1C0008EC
:1000D000ED1C0008ED1C0008ED1C0008ED1C0008DC
:1000E000A1050008ED1C0008ED1C0008ED1C00082F
:1000F000ED1C0008ED1C0008ED1C000800000000CD
:1001000000000000ED1C000800000000ED1C0008CD
:10011000ED1C000800000000ED1C0008ED1C0008AC
:10012000ED1C0008ED1C0008ED1C0008ED1C00088B
:10013000ED1C00080000000000000000ED1C00089D
:10014000ED1C0008ED1C000800000000000000008D
:10015000000000000000000000000000000000009F
:10016000000000000000000000000000ED1C00087E
:10017000ED1C00080000000000000000000000006E
:1001800000000000ED1C000800000000000000005E
:10019000000000000000000000000000000000005F
:1001A0000000000000000000ED1C0008ED1C00082D
:1001B000ED1C0008ED1C0008ED1C0008000000000C
:1001C00000000000ED1C000800000000000000001E
:0801D000ED1C0008ED1C000805
:1001D80010B5054C237833B9044B13B10448AFF379
:1001E80000800123237010BD1800002000000000CB
:1001F800481D000808B5034B1BB103490348AFF37A
:10020800008008BD000000001C000020481D0008F8
:1002180070B588B000240394049405940694079458
:100228002D4BDA6C42F00102DA64DA6C02F001025A
:100238000192019ADA6C42F00202DA64DB6C03F094
:1002480002030293029B22464FF4B0514FF09040B4
:1002580000F080FB214D22464021284600F07AFB21
:1002680040F2971303930494059403A94FF0904028
:1002780000F086FA012603960494059403A92846FB
:1002880000F07EFA4FF4B053039304960594069455
:1002980003A94FF0904000F073FA4FF40063039302
:1002A8004FF404130493059403A94FF0904000F011
:1002B80067FA4023039304960594069403A92846F5
:1002C80000F05EFA22462146282000F031FA282064
:1002D80000F03EFA08B070BD00100240000400486B
:1002E80008B51548154B0360A3F17563A3F57A2388
:1002F800A3F605434360002383600122C2600361C3
:1003080043618361C361036200F038FB50B9002187
:10031800094800F097FB40B90021074800F0C0FBEE
:1003280030B908BD00F066F8F1E700F063F8F3E7CC
:1003380000F060F8F5E700BF3400002000540040EA
:10034800F0B59BB0044600211591169117911891AC
:100358001991442204A801F0C6FC2268224B9A4253
:1003680001D01BB0F0BD4023049304A801F028F885
:10037800002835D11D4CE36C43F00103E364E36CC2
:1003880003F001030193019BE36C43F00203E36470
:10039800E36C03F002030293029B4FF400431593AE
:1003A800122716970025179518950426199615A94A
:1003B8004FF0904000F0E4F98023159316971795B5
:1003C8001895199615A90A4800F0DAF9A36D43F4AF
:1003D8000013A365A36D03F400130393039BC0E705
:1003E80000F008F8C6E700BF0054004000100240C3
:1003F8000004004872B6FEE700B595B03822002127
:1004080006A801F070FC002001900290039004906F
:10041800059000F071FB022306934FF48072099255
:1004280040220A920D930E9304220F9255221092A5
:1004380011931293139306A800F010FC80B90F23B0
:100448000193032302930023039304930593042148
:100458000DEB010000F0B8FE20B915B05DF804FB03
:10046800FFF7C8FFFFF7C6FF08B500F0EBF8FFF786
:10047800C3FFFFF7CDFEFFF733FF00F015F8094B78
:10048800B0221A70D1225A709A70DA70D2221A7178
:100498005A719A71DA71D3221A725A729A72DA728E
:1004A800EDE700BF0000002008B50E480E4B0360C2
:1004B8000023436083604FF4E062C26003614361DC
:1004C8004FF4007282610362436283620722C26250
:1004D8000363436301F0F3F900B908BDFFF78AFF2E
:1004E800FBE700BF94000020003C004000B589B045
:1004F8000023039304930593069307930268124B12
:100508009A4202D009B05DF804FB03F5EA339A6D0C
:1005180042F400429A659A6D02F400420192019AEF
:10052800DA6C42F00202DA64DB6C03F00203029335
:10053800029B38230393022304930623079303A9FA
:10054800024800F01DF9DDE7003C004000040048C7
:1005580082B00A4B1A6E42F001021A661A6E02F055
:1005680001020092009A9A6D42F080529A659B6D42
:1005780003F080530193019B02B0704700100240C2
:10058800FEE7FEE7FEE7FEE7FEE7704770477047C5
:1005980008B500F067F808BD10B582B04FF40060E8
:1005A80000F0DEF90B4C4FF47A7300930C232246CB
:1005B80009490A4801F0F7F92378C52B05D0C92B5A
:1005C80006D1054BBC221A7002E0034BB3221A7005
:1005D80002B010BD88000020000000209400002018
:1005E800034AD2F8883043F47003C2F88830704761
:1005F80000ED00E0104B1B680BB90120704710B5E7
:1006080004464FF47A70B0FBF3F30C4A1068B0FB61
:10061800F3F000F0A1F868B90F2C01D901200AE025
:10062800002221464FF0FF3000F082F8044B1C6096
:10063800002000E0012010BD100000200C00002068
:100648001400002010B5032000F060F80020FFF728
:10065800D1FF10B10124204610BD0446FFF778FFF2
:10066800F9E70000034A1368034909680B4413605B
:10067800704700BFF800002010000020014B1868E8
:10068800704700BFF8000020002807DB00F01F02B9
:10069800400901239340024A42F82030704700BFC6
:1006A80000E100E0002808DB0901C9B200F1604060
:1006B80000F5614080F80013704700F00F00090151
:1006C800C9B2014B1954704714ED00E000B500F0B1
:1006D8000700C0F1070CBCF1040F28BF4FF0040C51
:1006E800031D062B0FD9C31E4FF0FF3E0EFA0CF068
:1006F80021EA000199400EFA03FE22EA0E0241EABD
:1007080002005DF804FB0023EEE70000074AD36807
:1007180023F4E0631B041B0C000200F4E0600343B5
:1007280043F0BF6343F40033D360704700ED00E04B
:1007380010B50446054BD868C0F30220FFF7C6FF82
:1007480001462046FFF7AEFF10BD00BF00ED00E0F8
:1007580008B5FFF799FF08BD0138B0F1807F0BD2CB
:100768004FF0E0235861054AF02182F82310002059
:10077800986107221A6170470120704700ED00E078
:10078800F0B583B0002362E085685E000324B440BE
:1007980025EA0405CC68B4402C438460456825EA02
:1007A8000C054C68C4F300149C402C4344605FE083
:1007B800DD08083550F8254003F0070C4FEA8C0C8B
:1007C8004FF00F0E0EFA0CFE24EA0E0E0C6904FA16
:1007D8000CF444EA0E0440F8254060E0052400E0EB
:1007E800002404FA0EF42C430CF1020C554D45F884
:1007F8002C40554CA568D44325EA02064F6817F4E7
:10080800801F01D042EA05064F4DAE60ED6804EA4C
:1008180005064F6817F4001F01D042EA05064A4D45
:10082800EE606D6804EA05064F6817F4003F01D0D2
:1008380042EA0506444D6E602D682C404E6816F459
:10084800803F01D042EA05043F4A146001330A6838
:1008580032FA03F474D04FF0010C0CFA03FC1CEAD2
:100868000202F3D04C6804F00304013C012C8BD93C
:100878004C6804F00304032C0CD0C4685D004FF0EE
:10088800030C0CFA05FC24EA0C0C8C68AC4044EA16
:100898000C04C4604C6804F00304022C88D004687B
:1008A8004FEA430E4FF0030C0CFA0EFC24EA0C0C32
:1008B8004C6804F0030404FA0EF444EA0C040460DF
:1008C8004C6814F4403FC1D0204C256E45F001051A
:1008D8002566246E04F001040194019C4FEA930CF0
:1008E8000CF10205174C54F8255003F0030E4FEA9B
:1008F8008E0E0F2404FA0EF425EA0405B0F1904F89
:100908003FF46EAF124CA04212D004F58064A042AE
:1009180010D004F58064A0420ED004F58064A04293
:100928000CD004F58064A0423FF458AF062458E781
:10093800012456E7022454E7032452E7042450E72D
:1009480003B0F0BD00000140000401400010024067
:10095800000400480AB1816170478162704770479E
:1009680008B5054B5B69034200D108BD024B5861CD
:10097800FFF7F5FFF9E700BF0004014000285FD04A
:1009880010B5044690F84130002B48D0242384F851
:1009980041302268136823F00103136063682268FA
:1009A80023F0706313612268936823F40043936013
:1009B800E368012B38D0A368226843F404439360AA
:1009C800E368022B36D02268536823F4006353602F
:1009D8002268536843F0007343F40043536022686D
:1009E800D36823F40043D360236962691343A16980
:1009F800226843EA0123D360E369216A22680B4332
:100A080013602268136843F00103136000206064D8
:100A1800202384F84130206384F8420010BD80F818
:100A28004030FFF78DFCB1E7A368226843F4004328
:100A38009360C5E72268536843F400635360C7E7CF
:100A480001207047034690F84120D2B2202A23D1D2
:100A580090F84020012A21D0012280F84020242249
:100A680080F841200068026822F0010202601868DC
:100A7800026822F48052026018680268114301601B
:100A880019680A6842F001020A60202283F84120AE
:100A9800002083F84000704702207047022070470A
:100AA800034690F84120D2B2202A21D190F8402064
:100AB800012A1FD0012280F84020242280F84120FA
:100AC8000068026822F0010202601868026822F4D5
:100AD800706242EA0122026019680A6842F0010263
:100AE8000A60202283F84120002083F840007047E4
:100AF8000220704702207047002836D13E4B1B6801
:100B080003F4C063B3F5806F08D03B4AD2F8803055
:100B180023F48073C2F8803000207047364AD2F838
:100B2800803023F48073C2F88030136823F4C063E4
:100B380043F400731360314B1B68322202FB03F34A
:100B48002F4AA2FB03239B0C013300E0013B2A4AF6
:100B5800526912F4806F01D0002BF7D1264B5B69E4
:100B680013F4806F44D100207047B0F5007F08D09F
:100B7800214A136823F4C06343F4806313600020A0
:100B880070471D4B1B6803F4C063B3F5806F08D032
:100B9800194AD2F8803043F48073C2F880300020BC
:100BA8007047154AD2F8803043F48073C2F8803019
:100BB800136823F4C06343F4007313600F4B1B687E
:100BC800322202FB03F30E4AA2FB03239B0C0133E0
:100BD80000E0013B084A526912F4806F01D0002BF3
:100BE800F7D1054B5B6913F4806F03D10020704780
:100BF8000320704703207047007000400C0000205D
:100C080083DE1B43124BDA6802F00302DB68C3F38E
:100C180003130133032A11D00E48B0FBF3F00C4B39
:100C2800DB68C3F3062303FB00F0094BDB68C3F35F
:100C3800416301335B00B0FBF3F070470648B0FB3B
:100C4800F3F0034BDB68C3F3062303FB00F0ECE788
:100C5800001002400024F40000127A00002800F07E
:100C68004F8270B582B00446036813F0010F37D085
:100C7800A44A936803F00C03D26802F003020C2B19
:100C880023D0082B23D06368B3F5803F4ED0B3F54B
:100C9800A02F51D09B4B1A6822F480321A601A6830
:100CA80022F480221A606368002B52D0FFF7E6FC1A
:100CB8000546944B1B6813F4003F11D1FFF7DEFC87
:100CC800401B6428F5D9032023E2032AD9D18D4B90
:100CD8001B6813F4003F03D06368002B00F01282F6
:100CE800236813F0020F5DD0864A936803F00C0363
:100CF800D26802F003020C2B3AD0042B3AD0E368F6
:100D0800002B75D07F4A136843F480731360FFF794
:100D1800B5FC05467B4B1B6813F4806F5FD1FFF76A
:100D2800ADFC401B0228F5D90320F2E1754A13688F
:100D380043F480331360B6E703F18043A3F53C33F3
:100D48001A6842F480221A601A6842F480321A60E3
:100D5800A9E7FFF793FC05466A4B1B6813F4003FAD
:100D6800BED0FFF78BFC401B6428F5D90320D0E1E7
:100D7800022AC2D1634B1B6813F4806F03D0E36867
:100D8800002B00F0C1815F4A536823F0FE432169BC
:100D980043EA016353605C4B1868FFF72BFC00289B
:100DA80040F0B481236813F0080F4CD063699BB3FB
:100DB800544AD2F8943043F00103C2F89430FFF754
:100DC8005DFC05464F4BD3F8943013F0020F3AD12F
:100DD800FFF754FC401B0228F4D9032099E1494A43
:100DE800536823F0FE43216943EA01635360D9E75E
:100DF800444A136823F480731360FFF73FFC0546E9
:100E0800404B1B6813F4806FCCD0FFF737FC401BB6
:100E18000228F5D903207CE13A4AD2F8943023F02D
:100E28000103C2F89430FFF729FC0546354BD3F887
:100E3800943013F0020F06D0FFF720FC401B022865
:100E4800F4D9032065E1236813F0040F00F08180D2
:100E58002C4B9B6D13F0805F36D12A4B9A6D42F074
:100E680080529A659B6D03F080530193019B012585
:100E7800264B1B6813F4807F28D0A368012B39D038
:100E8800052B45D01F4BD3F8902022F00102C3F860
:100E98009020D3F8902022F00402C3F89020A36891
:100EA800002B43D0FFF7EAFB0646164BD3F89030E9
:100EB80013F0020F4CD1FFF7E1FB801B41F288339E
:100EC8009842F2D9032024E10025D1E70F4A13689C
:100ED80043F480731360FFF7D1FB06460B4B1B6886
:100EE80013F4807FC9D1FFF7C9FB801B0228F5D90D
:100EF80003200EE1034AD2F8903043F00103C2F810
:100F08009030CCE700100240140000200070004030
:100F1800884BD3F8902042F00402C3F89020D3F80D
:100F2800902042F00102C3F89020B8E7FFF7A6FB33
:100F38000646804BD3F8903013F0020F08D0FFF725
:100F48009DFB801B41F288339842F2D90320E0E0F0
:100F5800E5B9236813F0200F35D0A369E3B1754ACA
:100F6800D2F8983043F00103C2F89830FFF786FBB7
:100F78000546704BD3F8983013F0020F23D1FFF7D2
:100F88007DFB401B0228F4D90320C2E0694A936D17
:100F980023F080539365DCE7664AD2F8983023F053
:100FA8000103C2F89830FFF769FB0546614BD3F897
:100FB800983013F0020F06D0FFF760FB401B0228A1
:100FC800F4D90320A5E0E369002B00F0A180594A79
:100FD800926802F00C020C2A64D0022B13D0554AF6
:100FE800136823F080731360FFF748FB0446514BE6
:100FF8001B6813F0007F4ED0FFF740FB001B022850
:10100800F5D9032085E04B4A136823F080731360F9
:10101800FFF734FB0546474B1B6813F0007F06D0EB
:10102800FFF72CFB401B0228F5D9032071E0414A49
:10103800D36841491940236A606A013843EA0013BA
:10104800A06A43EA0023206B4008013843EA405372
:10105800606B4008013843EA4063E06A43EAC063D2
:101068001943D160136843F080731360D36843F069
:101078008073D360FFF702FB04462E4B1B6813F006
:10108800007F06D1FFF7FAFA001B0228F5D90320E2
:101098003FE000203DE0274AD168284B0B40D36051
:1010A800002036E0012B36D0224BDB6803F0030129
:1010B800226A914231D103F0F002616A0139B2EB40
:1010C800011F2CD103F4FE42A16AB2EB012F28D1F3
:1010D80003F07842E16AB2EBC16F24D103F4C00196
:1010E800226B5208013AB1EB425F1ED103F0C06394
:1010F800626B5208013AB3EB426F18D1002008E046
:1011080001207047012004E0012002E0012000E0F6
:10111800002002B070BD0120FBE70120F9E70120A3
:10112800F7E70120F5E70120F3E70120F1E70120C7
:10113800EFE700BF001002400C809F01FCFFEEFEAD
:101148001E4B9B6803F00C03042B33D01B4B9B688E
:1011580003F00C03082B2FD0184B9B6803F00C03EB
:101168000C2B01D000207047144BDA6802F0030200
:10117800DB68C3F303130133032A11D01048B0FB13
:10118800F3F00E4BDB68C3F3062303FB00F00B4BB5
:10119800DB68C3F3416301335B00B0FBF3F07047D6
:1011A8000848B0FBF3F0054BDB68C3F3062303FBE9
:1011B80000F0ECE702487047024870470010024010
:1011C8000024F40000127A00002800F0E680F8B548
:1011D8000C460546744B1B6803F00F038B420BD279
:1011E800714A136823F00F030B431360136803F06D
:1011F8000F038B4240F0D3802E6816F001065FD0B3
:101208006B68032B2FD0022B4DD0684B1B6813F44F
:10121800806F00F0C680FFF793FF654B98424DD969
:10122800624A936823F0F00343F0800393608026BA
:101238005E4A936823F0030369680B439360FFF7E2
:101248001DFA0746594B9B6803F00C036A68B3EB19
:10125800820F35D0FFF712FAC01B41F2883398424B
:10126800F0D9032078E0514B1B6813F0007F01D1BF
:10127800012071E0FFF7C6FC4D4B98421AD94B4B41
:101288009B6813F0F00F05D02E6816F00206CFD039
:10129800AB688BB9454A936823F0F00343F08003A9
:1012A80093608026C4E7414B1B6813F4003FB2D11A
:1012B800012051E00026BBE70026B9E70026B7E782
:1012C8002B6813F0020F48D013F0040F04D0374AEC
:1012D800936843F4E06393602B6813F0080F06D01B
:1012E800324A936823F47C5343F4E06393602F4AB3
:1012F800936823F0F003A9680B4393602A4B1B689B
:1013080003F00F03A34230D82B6813F0040F06D064
:10131800264A936823F4E063E9680B4393602B68DB
:1013280013F0080F07D0214A936823F46053296902
:1013380043EAC1039360FFF703FF1C4B9B68C3F3A9
:1013480003131C4AD35C03F01F03D8401A4B1860E0
:101358001A4B1868FFF74EF9F8BD802ECED1134A04
:10136800936823F0F0039360C8E70F4A136823F0EB
:101378000F0323431360FFF781F906460A4B1B68E6
:1013880003F00F03A342BFD0FFF778F9801B41F2A7
:1013980088339842F2D90320DEE701207047012004
:1013A800DAE70120D8E700BF002002400010024021
:1013B80000B4C404601D00080C00002014000020C4
:1013C800F0B583B00446036813F4002F69D0AE4B20
:1013D8009B6D13F0805F1ED1AB4B9A6D42F080522B
:1013E8009A659B6D03F080530193019B0126A74AE0
:1013F800136843F480731360FFF740F90546A34B65
:101408001B6813F4807F08D1FFF738F9401B0228C6
:10141800F5D9032502E00026E9E7002545BB9A4BEC
:10142800D3F8903013F4407315D0226C9A4212D03E
:10143800954AD2F8903023F44073D2F8901041F4D2
:101448008031C2F89010D2F8901021F48031C2F89F
:101458009010C2F8903013F0010F10D145B98A4AA4
:10146800D2F8903023F44073216C0B43C2F89030CB
:10147800C6B1854A936D23F08053936512E0FFF758
:10148800FDF80746804BD3F8903013F0020FE5D1F2
:10149800FFF7F4F8C01B41F288339842F2D90325CC
:1014A800DCE70025236813F0010F08D0764AD2F84C
:1014B800883023F0030361680B43C2F8883023683F
:1014C80013F0020F08D0704AD2F8883023F00C03CA
:1014D800A1680B43C2F88830236813F0040F08D0C2
:1014E800694AD2F8883023F03003E1680B43C2F828
:1014F8008830236813F0080F08D0634AD2F8883080
:1015080023F0C00321690B43C2F88830236813F025
:10151800200F08D05C4AD2F8883023F44063616910
:101528000B43C2F88830236813F0400F08D0564A9E
:10153800D2F8883023F44053A1690B43C2F88830AD
:10154800236813F0800F08D04F4AD2F8883023F46C
:101558004043E1690B43C2F88830236813F4807F65
:1015680008D0494AD2F8883023F44033216A0B4323
:10157800C2F88830236813F4007F08D0424AD2F8B2
:10158800883023F44023616A0B43C2F8883023680B
:1015980013F4806F0CD03C4AD2F8883023F44013FF
:1015A800A16A0B43C2F88830A36AB3F5801F57D0ED
:1015B800236813F4006F0CD0334AD2F8883023F430
:1015C8004003E16A0B43C2F88830E36AB3F5800F41
:1015D8004BD0236813F4805F0CD02B4AD2F88830A4
:1015E80023F04073216B0B43C2F88830236BB3F1AF
:1015F800807F3FD0236813F4005F0CD0224AD2F8D2
:10160800883023F04063616B0B43C2F88830636B0A
:10161800B3F1006F33D0236813F4804F0CD01A4A0B
:10162800D2F8883023F04063A16B0B43C2F88830AE
:10163800A36BB3F1006F2BD0236813F4004F0CD0C9
:10164800114AD2F8883023F04053E16B0B43C2F8BB
:101658008830E36BB3F1805F1FD0284603B0F0BD3C
:10166800D36843F48013D360A2E7D36843F48013AC
:10167800D360AEE7D36843F48013D360BAE7D36886
:1016880043F48013D360C6E70010024000700040A6
:10169800D36843F48013D360CEE7D36843F4803330
:1016A800D360DAE72DE9F04782B005468846174649
:1016B8001E46FEF7E3FF0A9B1B1A03EB0609FEF71B
:1016C800DDFF8246284B1B68C3F3CB3309FB03F3CA
:1016D80001932B689C6838EA04040CBF012300239B
:1016E800BB423DD0B6F1FF3FF3D0FEF7C7FFA0EBFA
:1016F8000A00484507D2019A02B14A46019B013BBC
:1017080001939146E5E72A68536823F0E0035360A4
:101718006B68B3F5827F0BD0AB6AB3F5005F14D06A
:10172800012385F85D30002385F85C30032018E03C
:10173800AB68B3F5004F02D0B3F5806FECD12A68DF
:10174800136823F040031360E6E72A68136823F45C
:10175800005313602A68136843F400531360DFE7EB
:10176800002002B0BDE8F0870C0000202DE9F0470A
:1017780082B006460C4615461F4600238DF80330F6
:10178800FEF77CFF0A9B1B1A03EB0708FEF776FFA0
:101798008146D6F800A0304B1B6803EB8303C3EBEC
:1017A800C3031B0D08FB03F3019302E0B7F1FF3FEE
:1017B80012D133689B6803EA040CAC4547D0B4F5F2
:1017C800C06FF3D1002DF1D19AF80C30DBB28DF84F
:1017D80003309DF80330E9E7FEF750FFA0EB09005E
:1017E800404507D2019A02B14246019B013B019351
:1017F8009046DEE73268536823F0E003536073686D
:10180800B3F5827F0BD0B36AB3F5005F14D0012320
:1018180086F85D30002386F85C30032018E0B36852
:10182800B3F5004F02D0B3F5806FECD1326813687E
:1018380023F040031360E6E73268136823F400538B
:1018480013603268136843F400531360DFE7002025
:1018580002B0BDE8F08700BF0C00002070B582B070
:1018680004460D46164600920B4600224FF4C0511E
:10187800FFF77CFFB0B900962B4600228021204656
:10188800FFF710FFA8B900962B4600224FF4C0615D
:101898002046FFF76BFF50B1236E43F02003236609
:1018A800032004E0236E43F020032366032002B0E4
:1018B80070BD236E43F0200323660320F7E700285A
:1018C8006FD010B50446436A33B94368B3F5827FD5
:1018D80005D00023C36102E00023036143610023B4
:1018E800A36294F85D30002B52D0022384F85D3057
:1018F8002268136823F040031360E368B3F5E06FD0
:101908004CD90022B3F5706F04D0B3F5E06F01D065
:101918000023A362636803F48273A16801F404419D
:101928000B43216901F002010B43616901F00101D8
:101938000B43A16901F400710B43E16901F038011F
:101948000B43216A01F080010B43A16A01F40051A5
:1019580020680B430360638B03F00403616A01F0A2
:1019680010010B43616B01F008010B43E16801F4BE
:1019780070610B43216813434B602268D36923F4D9
:101988000063D36100202066012384F85D3010BD18
:1019980084F85C302046FEF7A9FDA6E74FF4805294
:1019A800B0E7012070472DE9F8431F46089D90F8DD
:1019B8005C30012B00F06B81044688469146012378
:1019C80080F85C30FEF75AFE064694F85D30DBB2CC
:1019D8006268012B0AD0B2F5827F40F04681A26886
:1019E800002A40F04881042B40F04781B8F1000FED
:1019F80000F04581B9F1000F00F04381002F00F09D
:101A0800428194F85D30DBB2042B02D0052384F8C0
:101A18005D3000232366C4F84090A4F84670A4F80B
:101A28004470C4F83880E787A787E3642365E368D0
:101A3800B3F5E06F01D8012F23D92268536823F446
:101A48008053536023681A6812F0400F03D11A6854
:101A580042F040021A60E368B3F5E06F5CD963684E
:101A68000BB1012F0BD1A26B23681288DA60A36B2C
:101A78000233A363E38F9BB2013B9BB2E387012749
:101A880030E02268536843F480535360DAE7A26B6E
:101A98001288DA60A36B0233A363E38F9BB2013B26
:101AA8009BB2E387002723689A6812F0010F11D0D0
:101AB800B4F8462092B26AB1DA68236C1A80236CB3
:101AC80002332364B4F846309BB2013B9BB2A4F8BE
:101AD80046300127FEF7D2FD831BAB4202D3B5F196
:101AE800FF3F14D1E38F9BB22BB9B4F846309BB2B9
:101AF800002B00F0AB8023689A6812F0020FD2D056
:101B0800E28F92B2002ACED0002FCCD0BFE70123BB
:101B180084F85D300320A9E063680BB1012F0FD171
:101B2800E38F9BB2012B0DD9A26B23681288DA6070
:101B3800A36B0233A363E38F9BB2023B9BB2E387A1
:101B4800012749E0A26B236812781A73A36B01334B
:101B5800A363E38F9BB2013B9BB2E387F0E7E28F7D
:101B680092B2012A0CD9A26B1288DA60A36B0233F5
:101B7800A363E38F9BB2023B9BB2E38700273DE060
:101B8800A26B12781A73A36B0133A363E38F9BB222
:101B9800013B9BB2E387002730E02268536843F497
:101BA8008053536001270DE0226C1B7B1370236C5C
:101BB80001332364B4F846309BB2013B9BB2A4F8CE
:101BC80046300127FEF75AFD801BA84202D3B5F123
:101BD800FF3F36D1002D34D0E38F9BB223B9B4F840
:101BE80046309BB2002B31D023689A6812F0020F5E
:101BF80004D0E28F92B20AB1002FB0D123689A685C
:101C080012F0010FDED0B4F8462092B2002AD9D0E3
:101C1800B4F8462092B2012AC6D9DA68236C1A8031
:101C2800236C02332364B4F846309BB2023B9BB268
:101C3800A4F84630B4F846309BB2012BADD9012741
:101C4800C0E7012384F85D3003200FE032462946BF
:101C58002046FFF703FE10B1202323660120236EE0
:101C68009BB9012384F85D3000E00220002384F84A
:101C78005C30BDE8F8830220F8E70220F6E701208F
:101C8800F4E70120F2E70120F0E70120EEE7022067
:101C9800EFE700000D488546FEF7A2FC0C480D4909
:101CA8000D4A002302E0D458C4500433C4188C42AF
:101CB800F9D30A4A0A4C002301E013600432A24215
:101CC800FBD300F019F8FEF7CFFBFEE700800020F9
:101CD8000000002018000020781D000818000020CF
:101CE800FC000020FEE702440346934200D17047FF
:101CF80003F8011BF9E7000070B50D4D0D4C641B8E
:101D0800A4100026A64209D10B4D0C4C00F018F87F
:101D1800641BA4100026A64205D170BD55F8043BEB
:101D280098470136EEE755F8043B98470136F2E745
:101D3800701D0008701D0008701D0008741D000843
:101D4800F8B500BFF8BC08BC9E467047F8B500BFA0
:081D5800F8BC08BC9E46704770
:101D6000000000000000000001020304060708094B
:041D7000FD01000869
:041D7400D901000889
:101D7800B0D1D1D1D2D2D2D2D3D3D3D30024F4008C
:081D8800010000001000000042
:0400000508001C9D36
:00000001FF
