:020000040800F2
:10000000008000209D3400086D0F00086F0F00086D
:10001000710F0008730F0008750F00080000000042
:10002000000000000000000000000000770F000842
:10003000790F0008000000007B0F00087D0F00080A
:10004000ED340008ED340008ED340008ED3400080C
:10005000ED340008ED340008ED340008ED340008FC
:10006000ED340008ED340008ED340008ED340008EC
:10007000ED340008ED340008ED340008ED340008DC
:10008000ED34000800000000ED340008ED340008F5
:10009000ED340008ED340008ED340008ED340008BC
:1000A000ED340008ED340008ED340008ED340008AC
:1000B000ED340008ED340008ED340008ED3400089C
:1000C000ED340008ED340008ED340008ED3400088C
:1000D000ED340008ED340008ED340008ED3400087C
:1000E000850F0008ED340008ED340008ED340008F9
:1000F000ED340008ED340008ED3400080000000085
:1001000000000000ED3400080000000009100008A5
:10011000ED34000800000000ED340008ED34000864
:10012000ED340008ED340008ED340008ED3400082B
:10013000ED3400080000000000000000ED3400086D
:10014000ED340008ED34000800000000000000005D
:10015000000000000000000000000000000000009F
:10016000000000000000000000000000ED34000866
:10017000ED34000800000000000000000000000056
:1001800000000000ED340008000000000000000046
:10019000000000000000000000000000000000005F
:1001A0000000000000000000ED340008ED340008FD
:1001B000ED340008ED340008ED34000800000000C4
:1001C00000000000ED340008000000000000000006
:0801D000ED340008ED340008D5
:1001D80070B54FF0FF0C4CF4E06C1CEA11541DBFD5
:1001E8001CEA135594EA0C0F95EA0C0F00F0DEF8A0
:1001F8002C4481EA030621EA4C5123EA4C5350EA85
:10020800013518BF52EA033541F4801143F48013D5
:1002180038D0A0FB02CE4FF00005E1FB02E506F066
:100228000042E0FB03E54FF00006E1FB03569CF0BB
:10023800000F18BF4EF0010EA4F1FF04B6F5007FC1
:1002480064F5407404D25FEA4E0E6D4146EB060633
:1002580042EAC62141EA55514FEAC52040EA5E50BC
:100268004FEACE2EB4F1FD0C88BFBCF5E06F1ED866
:10027800BEF1004F08BF5FEA500E50F1000041EB9D
:10028800045170BD06F0004646EA010140EA02004A
:1002980081EA0301B4EB5C04C2BFD4EB0C0541EA6C
:1002A800045170BD41F480114FF0000E013C00F381
:1002B800AB8014F1360FDEBF002001F0004170BDA5
:1002C800C4F10004203C35DA0C341BDC04F11404BE
:1002D800C4F1200500FA05F320FA04F001FA05F24A
:1002E80040EA020001F0004221F0004110EBD37017
:1002F80021FA04F642EB06015EEA430E08BF20EA43
:10030800D37070BDC4F10C04C4F1200500FA04F3E5
:1003180020FA05F001FA04F240EA020001F0004177
:1003280010EBD37041F100015EEA430E08BF20EAEA
:10033800D37070BDC4F1200500FA05F24EEA020E32
:1003480020FA04F301FA05F243EA020321FA04F061
:1003580001F0004121FA04F220EA020000EBD37018
:100368005EEA430E08BF20EAD37070BD94F0000F18
:100378000FD101F00046400041EB010111F4801F4C
:1003880008BF013CF7D041EA060195F0000F18BFFD
:10039800704703F00046520043EB030313F4801F39
:1003A80008BF013DF7D043EA0603704794EA0C0FF3
:1003B8000CEA135518BF95EA0C0F0CD050EA410609
:1003C80018BF52EA4306D1D181EA030101F0004186
:1003D8004FF0000070BD50EA410606BF10461946AE
:1003E80052EA430619D094EA0C0F02D150EA0136BA
:1003F80013D195EA0C0F05D152EA03361CBF1046FB
:1004080019460AD181EA030101F0004141F0FE4199
:1004180041F470014FF0000070BD41F0FE4141F41D
:10042800780170BD81F0004102E000BF83F0004315
:1004380030B54FEA41044FEA430594EA050F08BF77
:1004480090EA020F1FBF54EA000C55EA020C7FEA3B
:10045800645C7FEA655C00F0E2804FEA5454D4EBB8
:100468005555B8BF6D420CDD2C4480EA020281EA82
:10047800030382EA000083EA010180EA020281EABA
:100488000303362D88BF30BD11F0004F4FEA01310C
:100498004FF4801C4CEA113102D0404261EB41011B
:1004A80013F0004F4FEA03334CEA133302D05242A1
:1004B80063EB430394EA050F00F0A780A4F101045D
:1004C800D5F1200E0DDB02FA0EFC22FA05F2801897
:1004D80041F1000103FA0EF2801843FA05F359417D
:1004E8000EE0A5F120050EF1200E012A03FA0EFCFC
:1004F80028BF4CF0020C43FA05F3C01851EBE37126
:1005080001F0004507D54FF0000EDCF1000C7EEB42
:1005180000006EEB0101B1F5801F1BD3B1F5001F80
:100528000CD349085FEA30004FEA3C0C04F101049F
:100538004FEA445212F5800F80F09A80BCF1004FC8
:1005480008BF5FEA500C50F1000041EB045141EA4A
:10055800050130BD5FEA4C0C404141EB0101013C13
:1005680028BFB1F5801FE9D291F0000F04BF014602
:100578000020B1FA81F308BF2033A3F10B03B3F1D4
:1005880020020CDA0C3208DD02F1140CC2F10C0264
:1005980001FA0CF021FA02F10CE002F11402D8BFC2
:1005A800C2F1200C01FA02F120FA0CFCDCBF41EA8E
:1005B8000C019040E41AA2BF01EB0451294330BD5D
:1005C8006FEA04041F3C1CDA0C340EDC04F114043A
:1005D800C4F1200220FA04F001FA02F340EA030011
:1005E80021FA04F345EA030130BDC4F10C04C4F157
:1005F800200220FA02F001FA04F340EA0300294637
:1006080030BD21FA04F0294630BD94F0000F83F480
:10061800801306BF81F480110134013D4EE77FEA63
:10062800645C18BF7FEA655C29D094EA050F08BFAF
:1006380090EA020F05D054EA000C04BF1946104690
:1006480030BD91EA030F1EBF0021002030BD5FEAD4
:10065800545C05D14000494128BF41F0004130BDFC
:1006680014F580043CBF01F5801130BD01F0004550
:1006780045F0FE4141F470014FF0000030BD7FEAC3
:10068800645C1ABF194610467FEA655C1CBF0B46BE
:10069800024650EA013406BF52EA033591EA030FD5
:1006A80041F4002130BD00BF90F0000F04BF0021CD
:1006B800704730B54FF4806404F132044FF0000500
:1006C8004FF0000150E700BF90F0000F04BF002179
:1006D800704730B54FF4806404F1320410F00045DF
:1006E80048BF40424FF000013EE700BF42004FEADA
:1006F800E2014FEA31014FEA02701FBF12F07F4357
:1007080093F07F4F81F06051704732F07F4208BF0D
:10071800704793F07F4F04BF41F40021704730B514
:100728004FF4607401F0004521F000411CE700BF60
:1007380050EA010208BF704730B54FF000050AE0E3
:1007480050EA010208BF704730B511F0004502D5E4
:10075800404261EB41014FF4806404F132045FEAE6
:10076800915C3FF4D8AE4FF003025FEADC0C18BF8F
:1007780003325FEADC0C18BF033202EBDC02C2F181
:10078800200300FA03FC20FA02F001FA03FE40EA13
:100798000E0021FA02F11444BDE600BF4FEA4102FF
:1007A800B2F1E04324BFB3F5001CDCF1FE5C0DD9C7
:1007B80001F0004C4FEAC0024CEA5070B2F1004F11
:1007C80040EB830008BF20F00100704711F0804F14
:1007D80021D113F13872BCBF01F00040704741F4D9
:1007E80080114FEA5252C2F11802C2F1200C10FADD
:1007F8000CF320FA02F018BF40F001004FEAC123C1
:100808004FEAD32303FA0CFC40EA0C0023FA02F364
:100818004FEA4303CCE77FEA625307D150EA01333A
:100828001EBF4FF0FE4040F44000704701F000400A
:1008380040F0FE4040F40000704700BF10B5054C82
:10084800237833B9044B13B10448AFF30080012374
:10085800237010BD0C00002000000000483500087F
:1008680008B5034B1BB103490348AFF3008008BD2B
:1008780000000000100000204835000870B588B05E
:100888000024039404940594069407942D4BDA6C81
:1008980042F00102DA64DA6C02F001020192019A74
:1008A800DA6C42F00202DA64DB6C03F002030293B2
:1008B800029B22464FF4B0514FF0904000F0BDFD2E
:1008C800214D22464021284600F0B7FD40F29713FB
:1008D80003930494059403A94FF0904000F0BCFCE6
:1008E800012603960494059403A9284600F0B4FC55
:1008F8004FF4B053039304960594069403A94FF05C
:10090800904000F0A9FC4FF4006303934FF40413E4
:100918000493059403A94FF0904000F09DFC4023F8
:10092800039304960594069403A9284600F094FCC2
:1009380022462146282000F027FC282000F034FC1D
:1009480008B070BD001002400004004808B5154802
:10095800154B0360A3F17563A3F57A23A3F605434A
:100968004360002383600122C260036143618361A5
:10097800C361036200F021FF50B90021094801F06A
:10098800B0F940B90021074801F0D9F930B908BDDC
:1009980000F066F8F1E700F063F8F3E700F060F8BC
:1009A800F5E700BF2800002000540040F0B59BB0D8
:1009B8000446002115911691179118911991442216
:1009C80004A802F090FD2268224B9A4201D01BB085
:1009D800F0BD4023049304A801F042FE002835D15D
:1009E8001D4CE36C43F00103E364E36C03F0010383
:1009F8000193019BE36C43F00203E364E36C03F0AF
:100A080002030293029B4FF4004315931227169793
:100A18000025179518950426199615A94FF09040AA
:100A280000F01AFC802315931697179518951996B8
:100A380015A90A4800F010FCA36D43F40013A36540
:100A4800A36D03F400130393039BC0E700F008F8B9
:100A5800C6E700BF005400400010024000040048F0
:100A680072B6FEE700B595B03822002106A802F05C
:100A78003AFD00200190029003900490059001F047
:100A88008BF9022306934FF48072099240220A924E
:100A98000D930E9304220F925522109211931293E4
:100AA800139306A801F02AFA80B90F2301930323B0
:100AB8000293002303930493059304210DEB010093
:100AC80001F0D2FC20B915B05DF804FBFFF7C8FFB0
:100AD800FFF7C6FF30B5ADF5965D85B000F0CAFAF0
:100AE800FFF7C0FFFFF7CAFEFFF730FF00F0C6F9B7
:100AF8004FF47A730A22EC214D4801F053F801288B
:100B0800FDD0012408E0611EE2B24A4B03EB41012B
:100B1800474800F0ADF80134062CF4DD4FF4965246
:100B2800002104A802F0DFFC002426E000224FF494
:100B380080514FF0904000F080FC9DF8063023B9BA
:100B48009DF80530DBB2012B62D000224FF4007112
:100B58004FF0904000F071FC02AB03AA0821344822
:100B680000F0EEF8B4F5966F5FDA04AB03EB84039C
:100B7800029A1A60013400F099FA01212E4800F017
:100B880055FC0DF10103187001214FF0904000F061
:100B98004DFC0DF1020318704FF480714FF0904036
:100BA80000F044FC0DF10303187010214FF0904041
:100BB80000F03CFC01AB187004214FF0904000F0AD
:100BC80035FC0DF10503187080214FF0904000F0BE
:100BD8002DFC0DF10605287002214FF0904000F021
:100BE80025FC0DF1070318702B78DBB2012B9DD182
:100BF8009DF80530002B99D19DF80730002B95D131
:100C080001224FF480514FF0904000F016FC94E719
:100C18009DF80730DBB2012B97D101224FF4007108
:100C28004FF0904000F009FC96E70024A3E700BFCE
:100C3800280000207C0000200004004800B583B094
:100C480013464FF47A7200920A46EC2100F0ECFE4B
:100C580003B05DF804FB00B583B013464FF47A7215
:100C680000920A46EC2100F00DFE03B05DF804FB8B
:100C780030B585B005460C465200D2B2603A8DF8C0
:100C88000420012201A9FFF7E6FF022000F014FA70
:100C9800022269462846FFF7D1FF9DF800209DF8FB
:100CA800013003EB0223238005B030BD30B587B097
:100CB80005461446114440318DF80C10012203A951
:100CC800FFF7C9FF012000F0F7F9082C09D8DFE881
:100CD80004F0050826082A082E083200012000F032
:100CE800EBF900238DF80C30012203A92846FFF701
:100CF800B2FF022000F0E0F9032202A92846FFF71C
:100D08009DFF8DF807009DF808209DF809301B020B
:100D180003EB02439DF80A00184407B030BD0320D6
:100D280000F0CAF9DDE7042000F0C6F9D9E706208B
:100D380000F0C2F9D5E70A2000F0BEF9D1E70000BB
:100D4800F8B52DED048B07460E4615461C460A4697
:100D58001021FFF7ABFF08EE900A32460021384613
:100D6800FFF7A4FF08EE100A394908884B8809EEF6
:100D7800103AB8EE499A8B8809EE903AF8EE699ADB
:100D8800CB8807EE903AB8EE677A0B8906EE903A70
:100D9800F8EE666A4B8907EE903AF8EE677A9FEDAF
:100DA8002D6A66EE866AF8EE688A78EEE68A67EE5D
:100DB800A87ADFED296A67EEA67ADFED286A77EE72
:100DC800A67A9FED276AC7EE866AC5ED006A67EEC8
:100DD800287A9FED247A67EE877A9FED237A29EEA9
:100DE800079A39EE279A07EE900AF8EE677A17EE17
:100DF800900AFFF77BFC00221C4BFFF7E9F9064637
:100E08000F4669EEA89ADFED1A7A69EEA77A17EE0F
:100E1800900AFFF76BFC02460B4630463946FFF74F
:100E280007FBFFF7BBFC07EE900AB8EE488A28EEEE
:100E3800278ADFED107A28EE278A38EE498A9FED57
:100E48000E7AC8EE077AC4ED007ABDEC048BF8BDC3
:100E58007C00002000008043000000340000FA44B9
:100E68000000C8420000003C000080470000E0404D
:100E78000000803B000000350000A04808B50E487F
:100E88000E4B03600023436083604FF4E062C2604E
:100E9800036143614FF400728261036243628362BB
:100EA8000722C2620363436301F09AFE00B908BDDA
:100EB800FFF7D6FDFBE700BF88000020003C00409C
:100EC80000B589B000230393049305930693079311
:100ED8000268164B9A4202D009B05DF804FB03F58C
:100EE800EA339A6D42F400429A659A6D02F4004220
:100EF8000192019ADA6C42F00202DA64DB6C03F0C8
:100F080002030293029B38230393022304930623CC
:100F1800079303A9064800F09FF9002211463320E1
:100F280000F032F9332000F03FF9D5E7003C0040EB
:100F38000004004882B00A4B1A6E42F001021A6699
:100F48001A6E02F001020092009A9A6D42F08052E5
:100F58009A659B6D03F080530193019B02B0704723
:100F680000100240FEE7FEE7FEE7FEE7FEE77047F7
:100F78007047704708B500F08DF808BD10B584B00B
:100F88001B4B93E8070004AB03E90700194C4FF427
:100F98007A7301222146184802F00BF92378C13BE5
:100FA800082B1ED8DFE803F00F1D051D171D1D1D9A
:100FB8001A001249A1230B704FF47A7301220E48CC
:100FC80001F082FE0DE04FF47A730C2201A90A4861
:100FD80001F07AFE05E0094BA5221A70074BA522FD
:100FE8001A704FF4006000F02FFA04B010BD00BF73
:100FF80060350008EC00002088000020ED0000208B
:1010080008B5024802F0AAF908BD00BF8800002010
:10101800034AD2F8883043F47003C2F88830704726
:1010280000ED00E0104B1B680BB90120704710B5AC
:1010380004464FF47A70B0FBF3F30C4A1068B0FB27
:10104800F3F000F0B5F868B90F2C01D901200AE0D7
:10105800002221464FF0FF3000F096F8044B1C6048
:10106800002000E0012010BD040000200000002046
:101078000800002010B5032000F074F80020FFF7E6
:10108800D1FF10B10124204610BD0446FFF752FFDE
:10109800F9E70000034A1368034909680B44136021
:1010A800704700BFF000002004000020014B1868C2
:1010B800704700BFF000002038B50446FFF7F6FF80
:1010C8000546B4F1FF3F02D0044B1B681C44FFF7F0
:1010D800EDFF401BA042FAD338BD00BF040000203A
:1010E800002807DB00F01F02400901239340024A51
:1010F80042F82030704700BF00E100E0002808DB1C
:101108000901C9B200F1604000F5614080F80013A0
:10111800704700F00F000901C9B2014B195470471C
:1011280014ED00E000B500F00700C0F1070CBCF1B9
:10113800040F28BF4FF0040C031D062B0FD9C31E44
:101148004FF0FF3E0EFA0CF021EA000199400EFA2A
:1011580003FE22EA0E0241EA02005DF804FB0023C6
:10116800EEE70000074AD36823F4E0631B041B0C76
:10117800000200F4E060034343F0BF6343F400332C
:10118800D360704700ED00E010B50446054BD86801
:10119800C0F30220FFF7C6FF01462046FFF7AEFF67
:1011A80010BD00BF00ED00E008B5FFF799FF08BDCE
:1011B8000138B0F1807F0BD24FF0E0235861054A27
:1011C800F02182F823100020986107221A617047E5
:1011D8000120704700ED00E008B590F82530DBB23B
:1011E800022B09D00423C363012380F82530002291
:1011F80080F82420184608BD0268136823F00E03FF
:1012080013600268136823F001031360826C13688B
:1012180023F480731360436C03F01F02016C0123F5
:1012280093404B60C36C026D5A60436D33B11A68CA
:1012380022F480721A60836DC26D5A60012380F8AF
:101248002530002380F82430836B13B198470020A1
:10125800D1E70020CFE70000F0B583B0002362E0BB
:1012680085685E000324B44025EA0405CC68B440D0
:101278002C438460456825EA0C054C68C4F30014C7
:101288009C402C4344605FE0DD08083550F8254059
:1012980003F0070C4FEA8C0C4FF00F0E0EFA0CFE01
:1012A80024EA0E0E0C6904FA0CF444EA0E0440F821
:1012B800254060E0052400E0002404FA0EF42C43E5
:1012C8000CF1020C554D45F82C40554CA568D443FB
:1012D80025EA02064F6817F4801F01D042EA050686
:1012E8004F4DAE60ED6804EA05064F6817F4001F1D
:1012F80001D042EA05064A4DEE606D6804EA05062B
:101308004F6817F4003F01D042EA0506444D6E606D
:101318002D682C404E6816F4803F01D042EA05043F
:101328003F4A146001330A6832FA03F474D04FF06C
:10133800010C0CFA03FC1CEA0202F3D04C6804F01E
:101348000304013C012C8BD94C6804F00304032CE2
:101358000CD0C4685D004FF0030C0CFA05FC24EABD
:101368000C0C8C68AC4044EA0C04C4604C6804F073
:101378000304022C88D004684FEA430E4FF0030C94
:101388000CFA0EFC24EA0C0C4C6804F0030404FA72
:101398000EF444EA0C0404604C6814F4403FC1D0D5
:1013A800204C256E45F001052566246E04F00104E5
:1013B8000194019C4FEA930C0CF10205174C54F868
:1013C800255003F0030E4FEA8E0E0F2404FA0EF494
:1013D80025EA0405B0F1904F3FF46EAF124CA042DD
:1013E80012D004F58064A04210D004F58064A042B5
:1013F8000ED004F58064A0420CD004F58064A042AD
:101408003FF458AF062458E7012456E7022454E76E
:10141800032452E7042450E703B0F0BD0000014064
:10142800000401400010024000040048036919420A
:1014380001D001207047002070470AB181617047D0
:10144800816270477047000008B5054B5B6903422D
:1014580000D108BD024B5861FFF7F4FFF9E700BF60
:101468000004014003689A6912F0020F01D00022BB
:101478009A6203689A6912F0010F03D19A6942F0DF
:1014880001029A61704710B4019CC1F3090141EA55
:1014980002411943214321F0004102685368640D59
:1014A80004F4806444F07F7444F4583444F47F7442
:1014B80044F0030423EA04030B4353605DF8044B30
:1014C80070472DE9F041044603689E6916F010063E
:1014D8007CD00D4690461022DA61002637462368F4
:1014E800986910F0200F30D17FBBB5F1FF3FF6D0DF
:1014F800FFF7DCFDA0EB0800A84201D8002DEED1D3
:1015080021684B6803F4804394F84220D2B288697A
:1015180010F4004F02D00BB9202A0ED123689B6922
:1015280013F0200FDBD1FFF7C1FDA0EB080019284D
:10153800F4D946F020060127D1E74B6843F48043ED
:101548004B60FFF7B3FD8046E8E70FB92022DA6168
:1015580046F0040601252268936913F4807F05D0BC
:1015680046F001064FF48071D161012513F4806FB4
:1015780006D046F0080622684FF48061D161012543
:1015880013F4007F24D046F0020623684FF400725B
:10159800DA6101252046FFF765FF2268536823F0CA
:1015A800FF7323F48B3323F4FF7323F00103536099
:1015B800636C33436364202384F84130002384F848
:1015C800423084F840302846BDE8F0810025C2E763
:1015D800002DF8D0DEE770B504460D4616462368A0
:1015E8009B6913F0020F22D1324629462046FFF7A5
:1015F80068FFF0B9B5F1FF3FF1D0FFF757FD801B49
:10160800A84201D8002DEAD123689B6913F0020F84
:10161800E5D1636C43F020036364202384F84130F0
:10162800002384F8423084F84030012000E0002094
:1016380070BD0120FCE72DE9F843054688461746AA
:101648001E46DDF820902B689C6938EA04040CBF1C
:1016580001230023BB4227D14A4631462846FFF7DB
:1016680030FF20BBB6F1FF3FEDD0FFF71FFDA0EB29
:101678000900B04201D8002EE5D12B689B6938EAF1
:1016880003030CBF01230023BB42DCD16B6C43F086
:1016980020036B64202385F84130002385F842300D
:1016A80085F84030012000E00020BDE8F8830120E3
:1016B800FBE770B504460D46164604E023689B69AF
:1016C80013F0200F12D023689B6913F0200F1BD151
:1016D800324629462046FFF7F4FEB8B9FFF7E6FC84
:1016E800801BA842EAD8002DEDD1E7E7636C43F0F0
:1016F80020036364202384F84130002384F84230B7
:1017080084F84030012000E0002070BD0120FCE793
:10171800F8B504460E461746002518E00023636412
:10172800FFF7C4FCC01BB04200D886B97DB9236856
:101738009B6913F0040F0AD1636C43F020036364C0
:10174800202384F84130002384F8403001252368A1
:101758009B6913F0040F2ED16DBB3A4631462046E3
:10176800FFF7AFFE00B1012523689A6912F0200F38
:10177800D6D0002DD4D19A699A6912F0100FCDD025
:101788001022DA610423636423682022DA61216865
:101798004B6823F0FF7323F48B3323F4FF7323F098
:1017A80001034B6084F84120002384F8423084F818
:1017B80040300125B4E72846F8BD00285FD010B5B1
:1017C800044690F84130002B48D0242384F8413057
:1017D8002268136823F0010313606368226823F00A
:1017E800706313612268936823F400439360E3688D
:1017F800012B38D0A368226843F404439360E3685C
:10180800022B36D02268536823F4006353602268A1
:10181800536843F0007343F4004353602268D3686D
:1018280023F40043D360236962691343A1692268E2
:1018380043EA0123D360E369216A22680B431360FA
:101848002268136843F001031360002060642023BA
:1018580084F84130206384F8420010BD80F840309D
:10186800FFF7A4F8B1E7A368226843F40043936044
:10187800C5E72268536843F400635360C7E7012053
:10188800704700002DE9F04782B00F460A9E90F895
:101898004110C9B2202940F0B780044690469946C5
:1018A80090F84030012B00F0B3804FF0010A80F827
:1018B80040A0FFF7FBFB05460090192352464FF462
:1018C80000412046FFF7B7FE002840F0A3802123FF
:1018D80084F84130102384F8423000236364C4F84C
:1018E8002480A4F82A906363638D9BB2FF2B1ED9D2
:1018F800FF2323854FF08073228DEAB1226898F880
:1019080000109162626A01326262628D92B2013A9B
:1019180092B26285228D013A92B222850132414902
:101928000091D2B239462046FFF7ADFD18E0638D2D
:1019380023854FF00073DFE73A490091D2B2394668
:101948002046FFF7A0FD0BE0628D92B222850023AE
:1019580000934FF00073D2B239462046FFF793FD4B
:10196800638D9BB2002B33D02A4631462046FFF7C1
:1019780032FE002850D1626A236812789A62636A3C
:1019880001336362638D9BB2013B9BB26385238DF8
:10199800013B9BB22385628D92B2002AE0D0002BD6
:1019A800DED100953346002280212046FFF743FE12
:1019B800A0BB638D9BB2FF2BC6D9FF2222850023D3
:1019C80000934FF0807339462046FFF75CFDC7E768
:1019D8002A4631462046FFF76CFE08BB23682022C2
:1019E800DA6121684B6823F0FF7323F48B3323F407
:1019F800FF7323F001034B6084F84120002384F82F
:101A0800423084F8403000E0022002B0BDE8F087A0
:101A18000220FAE70120F8E70120F6E70120F4E7C1
:101A28000120F2E7002000802DE9F04782B00F4640
:101A38000A9E90F84110C9B2202940F0A2800446BD
:101A48009046994690F84030012B00F09E804FF068
:101A5800010A80F840A0FFF729FB054600901923EA
:101A680052464FF400412046FFF7E5FD002840F0BC
:101A78008E80222384F84130102384F842300023DA
:101A88006364C4F82480A4F82A906363638D9BB2CE
:101A9800FF2B0AD9FF222285414B00934FF0807318
:101AA80039462046FFF7EFFC18E0628D92B2228596
:101AB8003B4B00934FF00073D2B239462046FFF7F4
:101AC800E2FC0BE0628D92B22285002300934FF076
:101AD8000073D2B239462046FFF7D5FC638D9BB21E
:101AE800002B32D02A4631462046FFF711FE002847
:101AF8004FD123685A6A636A1A70636A0133636252
:101B0800228D013A92B22285638D9BB2013B9BB232
:101B18006385638D9BB2002BE0D0002ADED100954F
:101B2800334680212046FFF786FDA0BB638D9BB21C
:101B3800FF2BC7D9FF222285002300934FF0807323
:101B480039462046FFF79FFCC8E72A46314620461B
:101B5800FFF7AFFD08BB23682022DA6121684B68D4
:101B680023F0FF7323F48B3323F4FF7323F0010373
:101B78004B6084F84120002384F8423084F84030D8
:101B880000E0022002B0BDE8F0870220FAE7012059
:101B9800F8E70120F6E70120F4E70120F2E700BFAB
:101BA800002400802DE9F04385B01D4600230393EF
:101BB80090F84130DBB2202B40F0898006468846F9
:101BC800914603689B6913F4004F40F0828090F8B7
:101BD8004030012B7FD0012380F84030242380F847
:101BE80041300023436441E0C8F3090343F0007324
:101BF80043F4005343E033689C69C4F340149B6981
:101C0800C3F30013C4B9BBB9B5F1FF3FF3D0FFF775
:101C18004DFAC01BA84201D8002DECD1202386F82C
:101C28004130736C43F020037364002386F840301E
:101C3800012005B0BDE8F08333689B6913F0100FED
:101C48002AD000972B46002220213046FFF7F3FCCC
:101C5800002844D133681022DA6133682022DA611F
:101C6800039B01330393039B4B4526D2F368012B57
:101C7800BAD0C8F3090343F0007343F42053326821
:101C88005360FFF713FA074633689C69C4F340149E
:101C98009B69C3F30013B5E700972B460022202168
:101CA8003046FFF7C8FCC0B932682023D36186F8F4
:101CB8004130002386F84030BBE786F84120736C3A
:101CC80013437364002386F840300120B1E70220F3
:101CD800AFE70220ADE70220ABE70120A9E701202A
:101CE800A7E7034690F84120D2B2202A23D190F8E2
:101CF8004020012A21D0012280F84020242280F8A7
:101D080041200068026822F0010202601868026837
:101D180022F4805202601868026811430160196851
:101D28000A6842F001020A60202283F8412000205C
:101D380083F840007047022070470220704703462E
:101D480090F84120D2B2202A21D190F84020012ACF
:101D58001FD0012280F84020242280F8412000680A
:101D6800026822F0010202601868026822F47062B8
:101D780042EA0122026019680A6842F001020A6018
:101D8800202283F84120002083F840007047022079
:101D98007047022070470000002836D13E4B1B6870
:101DA80003F4C063B3F5806F08D03B4AD2F88030A3
:101DB80023F48073C2F8803000207047364AD2F886
:101DC800803023F48073C2F88030136823F4C06332
:101DD80043F400731360314B1B68322202FB03F398
:101DE8002F4AA2FB03239B0C013300E0013B2A4A44
:101DF800526912F4806F01D0002BF7D1264B5B6932
:101E080013F4806F44D100207047B0F5007F08D0EC
:101E1800214A136823F4C06343F4806313600020ED
:101E280070471D4B1B6803F4C063B3F5806F08D07F
:101E3800194AD2F8803043F48073C2F88030002009
:101E48007047154AD2F8803043F48073C2F8803066
:101E5800136823F4C06343F4007313600F4B1B68CB
:101E6800322202FB03F30E4AA2FB03239B0C01332D
:101E780000E0013B084A526912F4806F01D0002B40
:101E8800F7D1054B5B6913F4806F03D100207047CD
:101E980003207047032070470070004000000020B6
:101EA80083DE1B43124BDA6802F00302DB68C3F3DC
:101EB80003130133032A11D00E48B0FBF3F00C4B87
:101EC800DB68C3F3062303FB00F0094BDB68C3F3AD
:101ED800416301335B00B0FBF3F070470648B0FB89
:101EE800F3F0034BDB68C3F3062303FB00F0ECE7D6
:101EF800001002400024F40000127A00002800F0CC
:101F08004F8270B582B00446036813F0010F37D0D2
:101F1800A44A936803F00C03D26802F003020C2B66
:101F280023D0082B23D06368B3F5803F4ED0B3F598
:101F3800A02F51D09B4B1A6822F480321A601A687D
:101F480022F480221A606368002B52D0FFF7AEF8A3
:101F58000546944B1B6813F4003F11D1FFF7A6F810
:101F6800401B6428F5D9032023E2032AD9D18D4BDD
:101F78001B6813F4003F03D06368002B00F0128243
:101F8800236813F0020F5DD0864A936803F00C03B0
:101F9800D26802F003020C2B3AD0042B3AD0E36843
:101FA800002B75D07F4A136843F480731360FFF7E2
:101FB8007DF805467B4B1B6813F4806F5FD1FFF7F4
:101FC80075F8401B0228F5D90320F2E1754A136819
:101FD80043F480331360B6E703F18043A3F53C3341
:101FE8001A6842F480221A601A6842F480321A6031
:101FF800A9E7FFF75BF805466A4B1B6813F4003F37
:10200800BED0FFF753F8401B6428F5D90320D0E170
:10201800022AC2D1634B1B6813F4806F03D0E368B4
:10202800002B00F0C1815F4A536823F0FE43216909
:1020380043EA016353605C4B1868FEF7F3FF00281E
:1020480040F0B481236813F0080F4CD063699BB348
:10205800544AD2F8943043F00103C2F89430FFF7A1
:1020680025F805464F4BD3F8943013F0020F3AD1B8
:10207800FFF71CF8401B0228F4D9032099E1494ACC
:10208800536823F0FE43216943EA01635360D9E7AB
:10209800444A136823F480731360FFF707F8054672
:1020A800404B1B6813F4806FCCD0FEF7FFFF401B3A
:1020B8000228F5D903207CE13A4AD2F8943023F07B
:1020C8000103C2F89430FEF7F1FF0546354BD3F80B
:1020D800943013F0020F06D0FEF7E8FF401B0228E9
:1020E800F4D9032065E1236813F0040F00F0818020
:1020F8002C4B9B6D13F0805F36D12A4B9A6D42F0C2
:1021080080529A659B6D03F080530193019B0125D2
:10211800264B1B6813F4807F28D0A368012B39D085
:10212800052B45D01F4BD3F8902022F00102C3F8AD
:102138009020D3F8902022F00402C3F89020A368DE
:10214800002B43D0FEF7B2FF0646164BD3F890306B
:1021580013F0020F4CD1FEF7A9FF801B41F2883320
:102168009842F2D9032024E10025D1E70F4A1368E9
:1021780043F480731360FEF799FF06460B4B1B6808
:1021880013F4807FC9D1FEF791FF801B0228F5D98F
:1021980003200EE1034AD2F8903043F00103C2F85D
:1021A8009030CCE70010024008000020007000408A
:1021B800884BD3F8902042F00402C3F89020D3F85B
:1021C800902042F00102C3F89020B8E7FEF76EFFB6
:1021D8000646804BD3F8903013F0020F08D0FEF774
:1021E80065FF801B41F288339842F2D90320E0E072
:1021F800E5B9236813F0200F35D0A369E3B1754A18
:10220800D2F8983043F00103C2F89830FEF74EFF39
:102218000546704BD3F8983013F0020F23D1FEF720
:1022280045FF401B0228F4D90320C2E0694A936D98
:1022380023F080539365DCE7664AD2F8983023F0A0
:102248000103C2F89830FEF731FF0546614BD3F819
:10225800983013F0020F06D0FEF728FF401B022823
:10226800F4D90320A5E0E369002B00F0A180594AC6
:10227800926802F00C020C2A64D0022B13D0554A43
:10228800136823F080731360FEF710FF0446514B68
:102298001B6813F0007F4ED0FEF708FF001B0228D2
:1022A800F5D9032085E04B4A136823F08073136047
:1022B800FEF7FCFE0546474B1B6813F0007F06D06F
:1022C800FEF7F4FE401B0228F5D9032071E0414ACD
:1022D800D36841491940236A606A013843EA001308
:1022E800A06A43EA0023206B4008013843EA4053C0
:1022F800606B4008013843EA4063E06A43EAC06320
:102308001943D160136843F080731360D36843F0B6
:102318008073D360FEF7CAFE04462E4B1B6813F089
:10232800007F06D1FEF7C2FE001B0228F5D9032064
:102338003FE000203DE0274AD168284B0B40D3609E
:10234800002036E0012B36D0224BDB6803F0030176
:10235800226A914231D103F0F002616A0139B2EB8D
:10236800011F2CD103F4FE42A16AB2EB012F28D140
:1023780003F07842E16AB2EBC16F24D103F4C001E3
:10238800226B5208013AB1EB425F1ED103F0C063E1
:10239800626B5208013AB3EB426F18D1002008E093
:1023A80001207047012004E0012002E0012000E044
:1023B800002002B070BD0120FBE70120F9E70120F1
:1023C800F7E70120F5E70120F3E70120F1E7012015
:1023D800EFE700BF001002400C809F01FCFFEEFEFB
:1023E8001E4B9B6803F00C03042B33D01B4B9B68DC
:1023F80003F00C03082B2FD0184B9B6803F00C0339
:102408000C2B01D000207047144BDA6802F003024D
:10241800DB68C3F303130133032A11D01048B0FB60
:10242800F3F00E4BDB68C3F3062303FB00F00B4B02
:10243800DB68C3F3416301335B00B0FBF3F0704723
:102448000848B0FBF3F0054BDB68C3F3062303FB36
:1024580000F0ECE70248704702487047001002405D
:102468000024F40000127A00002800F0E680F8B595
:102478000C460546744B1B6803F00F038B420BD2C6
:10248800714A136823F00F030B431360136803F0BA
:102498000F038B4240F0D3802E6816F001065FD000
:1024A8006B68032B2FD0022B4DD0684B1B6813F49D
:1024B800806F00F0C680FFF793FF654B98424DD9B7
:1024C800624A936823F0F00343F080039360802608
:1024D8005E4A936823F0030369680B439360FEF731
:1024E800E5FD0746594B9B6803F00C036A68B3EB9C
:1024F800820F35D0FEF7DAFDC01B41F288339842CF
:10250800F0D9032078E0514B1B6813F0007F01D10C
:10251800012071E0FFF7C6FC4D4B98421AD94B4B8E
:102528009B6813F0F00F05D02E6816F00206CFD086
:10253800AB688BB9454A936823F0F00343F08003F6
:1025480093608026C4E7414B1B6813F4003FB2D167
:10255800012051E00026BBE70026B9E70026B7E7CF
:102568002B6813F0020F48D013F0040F04D0374A39
:10257800936843F4E06393602B6813F0080F06D068
:10258800324A936823F47C5343F4E06393602F4A00
:10259800936823F0F003A9680B4393602A4B1B68E8
:1025A80003F00F03A34230D82B6813F0040F06D0B2
:1025B800264A936823F4E063E9680B4393602B6829
:1025C80013F0080F07D0214A936823F46053296950
:1025D80043EAC1039360FFF703FF1C4B9B68C3F3F7
:1025E80003131C4AD35C03F01F03D8401A4B18602E
:1025F8001A4B1868FEF716FDF8BD802ECED1134A87
:10260800936823F0F0039360C8E70F4A136823F038
:102618000F0323431360FEF749FD06460A4B1B6868
:1026280003F00F03A342BFD0FEF740FD801B41F229
:1026380088339842F2D90320DEE701207047012051
:10264800DAE70120D8E700BF00200240001002406E
:1026580000B4C40470350008000000200800002001
:10266800F0B583B00446036813F4002F69D0AE4B6D
:102678009B6D13F0805F1ED1AB4B9A6D42F0805278
:102688009A659B6D03F080530193019B0126A74A2D
:10269800136843F480731360FEF708FD0546A34BE7
:1026A8001B6813F4807F08D1FEF700FD401B022849
:1026B800F5D9032502E00026E9E7002545BB9A4B3A
:1026C800D3F8903013F4407315D0226C9A4212D08C
:1026D800954AD2F8903023F44073D2F8901041F420
:1026E8008031C2F89010D2F8901021F48031C2F8ED
:1026F8009010C2F8903013F0010F10D145B98A4AF2
:10270800D2F8903023F44073216C0B43C2F8903018
:10271800C6B1854A936D23F08053936512E0FEF7A6
:10272800C5FC0746804BD3F8903013F0020FE5D173
:10273800FEF7BCFCC01B41F288339842F2D903254E
:10274800DCE70025236813F0010F08D0764AD2F899
:10275800883023F0030361680B43C2F8883023688C
:1027680013F0020F08D0704AD2F8883023F00C0317
:10277800A1680B43C2F88830236813F0040F08D00F
:10278800694AD2F8883023F03003E1680B43C2F875
:102798008830236813F0080F08D0634AD2F88830CD
:1027A80023F0C00321690B43C2F88830236813F073
:1027B800200F08D05C4AD2F8883023F4406361695E
:1027C8000B43C2F88830236813F0400F08D0564AEC
:1027D800D2F8883023F44053A1690B43C2F88830FB
:1027E800236813F0800F08D04F4AD2F8883023F4BA
:1027F8004043E1690B43C2F88830236813F4807FB3
:1028080008D0494AD2F8883023F44033216A0B4370
:10281800C2F88830236813F4007F08D0424AD2F8FF
:10282800883023F44023616A0B43C2F88830236858
:1028380013F4806F0CD03C4AD2F8883023F440134C
:10284800A16A0B43C2F88830A36AB3F5801F57D03A
:10285800236813F4006F0CD0334AD2F8883023F47D
:102868004003E16A0B43C2F88830E36AB3F5800F8E
:102878004BD0236813F4805F0CD02B4AD2F88830F1
:1028880023F04073216B0B43C2F88830236BB3F1FC
:10289800807F3FD0236813F4005F0CD0224AD2F81F
:1028A800883023F04063616B0B43C2F88830636B58
:1028B800B3F1006F33D0236813F4804F0CD01A4A59
:1028C800D2F8883023F04063A16B0B43C2F88830FC
:1028D800A36BB3F1006F2BD0236813F4004F0CD017
:1028E800114AD2F8883023F04053E16B0B43C2F809
:1028F8008830E36BB3F1805F1FD0284603B0F0BD8A
:10290800D36843F48013D360A2E7D36843F48013F9
:10291800D360AEE7D36843F48013D360BAE7D368D3
:1029280043F48013D360C6E70010024000700040F3
:10293800D36843F48013D360CEE7D36843F480337D
:10294800D360DAE72DE9F04782B005468846174696
:102958001E46FEF7ABFB0A9B1B1A03EB0609FEF7A4
:10296800A5FB8246284B1B68C3F3CB3309FB03F353
:1029780001932B689C6838EA04040CBF01230023E8
:10298800BB423DD0B6F1FF3FF3D0FEF78FFBA0EB83
:102998000A00484507D2019A02B14A46019B013B09
:1029A80001939146E5E72A68536823F0E0035360F2
:1029B8006B68B3F5827F0BD0AB6AB3F5005F14D0B8
:1029C800012385F85D30002385F85C30032018E08A
:1029D800AB68B3F5004F02D0B3F5806FECD12A682D
:1029E800136823F040031360E6E72A68136823F4AA
:1029F800005313602A68136843F400531360DFE739
:102A0800002002B0BDE8F087000000202DE9F04763
:102A180082B006460C4615461F4600238DF8033043
:102A2800FEF744FB0A9B1B1A03EB0708FEF73EFB65
:102A38008146D6F800A0304B1B6803EB8303C3EB39
:102A4800C3031B0D08FB03F3019302E0B7F1FF3F3B
:102A580012D133689B6803EA040CAC4547D0B4F53F
:102A6800C06FF3D1002DF1D19AF80C30DBB28DF89C
:102A780003309DF80330E9E7FEF718FBA0EB0900E7
:102A8800404507D2019A02B14246019B013B01939E
:102A98009046DEE73268536823F0E00353607368BA
:102AA800B3F5827F0BD0B36AB3F5005F14D001236E
:102AB80086F85D30002386F85C30032018E0B368A0
:102AC800B3F5004F02D0B3F5806FECD132681368CC
:102AD80023F040031360E6E73268136823F40053D9
:102AE80013603268136843F400531360DFE7002073
:102AF80002B0BDE8F08700BF0000002070B582B0CA
:102B080004460D46164600920B4600224FF4C0516B
:102B1800FFF77CFFB0B900962B46002280212046A3
:102B2800FFF710FFA8B900962B4600224FF4C061AA
:102B38002046FFF76BFF50B1236E43F02003236656
:102B4800032004E0236E43F020032366032002B031
:102B580070BD236E43F0200323660320F7E770B5AA
:102B680082B004460D4616464368B3F5827F0DD001
:102B780000962B46002280212046FFF7E3FE90B9FD
:102B88006368B3F5827F14D002B070BD8368B3F573
:102B9800004F02D0B3F5806FEAD12268136823F0A2
:102BA80040031360E4E7236E43F020032366032009
:102BB800EAE7A368B3F5004F02D0B3F5806FE3D11D
:102BC80000962B4600224FF4C0612046FFF71EFFF7
:102BD8000028D9D0236E43F0200323660320D3E7CF
:102BE80000286FD010B50446436A33B94368B3F57B
:102BF800827F05D00023C36102E0002303614361A3
:102C08000023A36294F85D30002B52D0022384F88D
:102C18005D302268136823F040031360E368B3F55E
:102C2800E06F4CD90022B3F5706F04D0B3F5E06FB4
:102C380001D00023A362636803F48273A16801F4DE
:102C480004410B43216901F002010B43616901F062
:102C580001010B43A16901F400710B43E16901F023
:102C680038010B43216A01F080010B43A16A01F48A
:102C7800005120680B430360638B03F00403616A0F
:102C880001F010010B43616B01F008010B43E1688F
:102C980001F470610B43216813434B602268D369C8
:102CA80023F40063D36100202066012384F85D309B
:102CB80010BD84F85C302046FEF702F9A6E74FF411
:102CC8008052B0E7012070472DE9F04383B01D46DC
:102CD80090F85C30012B00F0F48004468846914659
:102CE800012380F85C30FEF7E1F9074694F85D604F
:102CF800F6B2012E40F0DD80B8F1000F00F0DA8066
:102D0800B9F1000F00F0D680032384F85D3000236A
:102D18002366C4F83880A4F83C90A4F83E90236455
:102D2800A4F84430A4F846302365E364A368B3F5F7
:102D3800004F1ED023681A6812F0400F03D11A689A
:102D480042F040021A60E368B3F5E06F44D9636863
:102D580013B1B9F1010F20D1A26B23681288DA6090
:102D6800A36B0233A363E38F9BB2013B9BB2E38760
:102D780013E02268136823F0400313602268136885
:102D880043F480431360D5E7FEF790F9C01BA842CF
:102D980002D3B5F1FF3F1AD1CDB1E38F9BB2002B1F
:102DA8006FD023689A6812F0020FEDD0A26B1288D8
:102DB800DA60A36B0233A363B4F83EC01FFA8CFC3D
:102DC8000CF1FF3C1FFA8CFCA4F83EC0E5E7012398
:102DD80084F85D3003266DE0636813B1B9F1010F23
:102DE80032D1E38F9BB2012B0CD9A26B23681288D6
:102DF800DA60A36B0233A363E38F9BB2023B9BB2FF
:102E0800E38721E0A26B236812781A73A36B01335E
:102E1800A363E38F9BB2013B9BB2E38714E0A36BF0
:102E28001B781373A36B0133A363E38F9BB2013B3E
:102E38009BB2E38708E0FEF739F9C01BA84202D32A
:102E4800B5F1FF3F18D1BDB1E38F9BB2CBB122687A
:102E5800936813F0020FEED0E38F9BB2012BDED9FB
:102E6800A36B1B88D360A36B0233A363E38F9BB26E
:102E7800023B9BB2E387E7E7012384F85D30032632
:102E880018E03A4629462046FFF738FE08B12023C5
:102E98002366A36833B901932368DA6801929B68B3
:102EA8000193019B236E2BB9012384F85D30002622
:102EB80000E00226002384F85C30304603B0BDE809
:102EC800F0830226F9E72DE9F8431F46089D90F89C
:102ED8005C30012B00F06B81044688469146012343
:102EE80080F85C30FEF7E2F8064694F85D30DBB215
:102EF8006268012B0AD0B2F5827F40F04681A26851
:102F0800002A40F04881042B40F04781B8F1000FB7
:102F180000F04581B9F1000F00F04381002F00F067
:102F2800428194F85D30DBB2042B02D0052384F88B
:102F38005D3000232366C4F84090A4F84670A4F8D6
:102F48004470C4F83880E787A787E3642365E3689B
:102F5800B3F5E06F01D8012F23D92268536823F411
:102F68008053536023681A6812F0400F03D11A681F
:102F780042F040021A60E368B3F5E06F5CD9636819
:102F88000BB1012F0BD1A26B23681288DA60A36BF7
:102F98000233A363E38F9BB2013B9BB2E387012714
:102FA80030E02268536843F480535360DAE7A26B39
:102FB8001288DA60A36B0233A363E38F9BB2013BF1
:102FC8009BB2E387002723689A6812F0010F11D09B
:102FD800B4F8462092B26AB1DA68236C1A80236C7E
:102FE80002332364B4F846309BB2013B9BB2A4F889
:102FF80046300127FEF75AF8831BAB4202D3B5F1DE
:10300800FF3F14D1E38F9BB22BB9B4F846309BB283
:10301800002B00F0AB8023689A6812F0020FD2D020
:10302800E28F92B2002ACED0002FCCD0BFE7012386
:1030380084F85D300320A9E063680BB1012F0FD13C
:10304800E38F9BB2012B0DD9A26B23681288DA603B
:10305800A36B0233A363E38F9BB2023B9BB2E3876C
:10306800012749E0A26B236812781A73A36B013316
:10307800A363E38F9BB2013B9BB2E387F0E7E28F48
:1030880092B2012A0CD9A26B1288DA60A36B0233C0
:10309800A363E38F9BB2023B9BB2E38700273DE02B
:1030A800A26B12781A73A36B0133A363E38F9BB2ED
:1030B800013B9BB2E387002730E02268536843F462
:1030C8008053536001270DE0226C1B7B1370236C27
:1030D80001332364B4F846309BB2013B9BB2A4F899
:1030E80046300127FDF7E2FF801BA84202D3B5F165
:1030F800FF3F36D1002D34D0E38F9BB223B9B4F80B
:1031080046309BB2002B31D023689A6812F0020F28
:1031180004D0E28F92B20AB1002FB0D123689A6826
:1031280012F0010FDED0B4F8462092B2002AD9D0AE
:10313800B4F8462092B2012AC6D9DA68236C1A80FC
:10314800236C02332364B4F846309BB2023B9BB233
:10315800A4F84630B4F846309BB2012BADD901270C
:10316800C0E7012384F85D3003200FE0324629468A
:103178002046FFF7C3FC10B1202323660120236EED
:103188009BB9012384F85D3000E00220002384F815
:103198005C30BDE8F8830220F8E70220F6E701205A
:1031A800F4E70120F2E70120F0E70120EEE7022032
:1031B800EFE72DE9F04383B0044690F85D60F6B27E
:1031C800012E40F0C080884691461D464368B3F5FD
:1031D800827F3DD094F85C30012B00F0BC80012345
:1031E80084F85C30FDF762FF0746B8F1000F00F085
:1031F800AB80B9F1000F00F0A780042384F85D309C
:1032080000232366C4F84080A4F84490A4F84690AC
:10321800A363A387E387E3642365E368B3F5E06FFB
:1032280023D92268536823F480535360A368B3F505
:10323800004F20D023681A6812F0400F03D11A6893
:1032480042F040021A60E368B3F5E06F27D94CE01A
:103258008368002BBED1042380F85D3000951346A7
:103268000A46FFF730FE064671E02268536843F4C9
:1032780080535360DAE72268136823F04003136031
:103288002268136823F480431360D3E7FDF70EFF29
:10329800C01BA84202D3B5F1FF3F18D1BDB1B4F8A5
:1032A80046309BB2002B3FD023689A6812F0010F7A
:1032B800ECD0226C1B7B1370236C01332364B4F8AD
:1032C80046309BB2013B9BB2A4F84630E7E70123A6
:1032D80084F85D30032637E0FDF7E8FEC01BA842FE
:1032E80002D3B5F1FF3F1AD1CDB1B4F846309BB245
:1032F800D3B123689A6812F0010FEDD0DA68236C15
:103308001A80236C02332364B4F846C01FFA8CFC7D
:103318000CF1FF3C1FFA8CFCA4F846C0E5E701233A
:1033280084F85D3003260FE03A4629462046FFF729
:1033380016FC08B120232366236E2BB9012384F8D9
:103348005D30002600E00226002384F85C30304619
:1033580003B0BDE8F0830226F9E7704730B585B0C1
:103368000446026851689368C3F3801013F0400F55
:1033780005D113F0010F02D011F0400F69D113F0FD
:10338800020F02D011F0800F67D1C3F3401513F07C
:10339800200F03D110B913F4807F61D011F0200FF2
:1033A8005ED078B194F85D00C0B203285AD0206E80
:1033B80040F00400206600200090D06800909068DB
:1033C8000090009865B1206E40F001002066002052
:1033D800029090680290106820F040001060029AF5
:1033E80013F4807F09D0236E43F00803236600237B
:1033F800039323689B680393039B236E002B2FD0B2
:103408002268536823F0E0035360012384F85D3099
:1034180011F0030F2ED02268536823F00303536082
:10342800A36D4BB1154A9A63A06DFDF7D5FE18B18F
:10343800236E43F040032366636D8BB10F4A9A6392
:10344800606DFDF7C9FE58B1236E43F04003236653
:1034580006E0E36C2046984702E0236D2046984733
:1034680005B030BD00230193D3680193936801939D
:10347800019BF5E72046FFF770FFF1E78934000864
:1034880008B5806A0023A0F84630C387FFF765FFB8
:1034980008BD00000D488546FDF7BAFD0C480D49EA
:1034A8000D4A002302E0D458C4500433C4188C4297
:1034B800F9D30A4A0A4C002301E013600432A242FD
:1034C800FBD300F019F8FDF705FBFEE700800020AC
:1034D800000000200C000020883500080C000020A7
:1034E800F4000020FEE702440346934200D17047EF
:1034F80003F8011BF9E7000070B50D4D0D4C641B76
:10350800A4100026A64209D10B4D0C4C00F018F867
:10351800641BA4100026A64205D170BD55F8043BD3
:1035280098470136EEE755F8043B98470136F2E72D
:10353800803500088035000880350008843500088B
:10354800F8B500BFF8BC08BC9E467047F8B500BF88
:08355800F8BC08BC9E46704758
:10356000DBDBDBDBDBDBDBDBDBDBDBDB0000000017
:103570000000000000000000010203040607080923
:0435800069080008CE
:0435840045080008EE
:0C3588000024F40001000000100000000E
:040000050800349D1E
:00000001FF
