:020000040800F2
:1000000000800020491C0008F5050008F7050008DD
:10001000F9050008FB050008FD05000800000000C8
:10002000000000000000000000000000FF050008C4
:10003000010600080000000003060008050600088D
:10004000991C0008991C0008991C0008991C0008BC
:10005000991C0008991C0008991C0008991C0008AC
:10006000991C0008991C0008991C0008991C00089C
:10007000991C0008991C0008991C0008991C00088C
:10008000991C000800000000991C0008991C000839
:10009000991C0008991C0008991C0008991C00086C
:1000A000991C0008991C0008991C0008991C00085C
:1000B000991C0008991C0008991C0008991C00084C
:1000C000991C0008991C0008991C0008991C00083C
:1000D000991C0008991C0008991C0008991C00082C
:1000E000991C0008991C0008991C0008991C00081C
:1000F000991C0008991C0008991C000800000000C9
:1001000000000000991C000800000000991C000875
:10011000991C000800000000991C0008991C0008A8
:10012000991C0008991C0008991C0008991C0008DB
:10013000991C00080000000000000000991C000845
:10014000991C0008991C0008000000000000000035
:10015000000000000000000000000000000000009F
:10016000000000000000000000000000991C0008D2
:10017000991C0008000000000000000000000000C2
:1001800000000000991C00080000000000000000B2
:10019000000000000000000000000000000000005F
:1001A0000000000000000000991C0008991C0008D5
:1001B000991C0008991C0008991C00080000000008
:1001C00000000000991C0008000000000000000072
:0801D000991C0008991C0008AD
:1001D80010B5054C237833B9044B13B10448AFF379
:1001E80000800123237010BD0C00002000000000D7
:1001F800F41C000808B5034B1BB103490348AFF3CF
:10020800008008BD0000000010000020F41C000859
:10021800F0B589B0002403940494059406940794D7
:100228002D4BDA6C42F02002DA64DA6C02F020021C
:100238000092009ADA6C42F00102DA64DA6C02F099
:1002480001020192019ADA6C42F00202DA64DB6C74
:1002580003F002030293029B204F224603213846F3
:1002680000F08CFB224641F210714FF0904000F0F4
:1002780085FB1B4E224640F24111304600F07EFBC2
:1002880003230393012504950594069403A938468E
:1002980000F08AFA40F6EF0303930494059403A947
:1002A8004FF0904000F080FA41F2107303930495E8
:1002B8000594069403A94FF0904000F075FA40F2B7
:1002C8004113039304950594069403A9304600F05E
:1002D8006BFA09B0F0BD00BF0010024000140048DE
:1002E8000004004800B583B002460B464FF0FF31CA
:1002F80000918421024800F001FD03B05DF804FB81
:100308002800002000B500229446134607E010F8A4
:1003180002E07344DBB29C445FFA8CFC0132A1F129
:10032800020E9645F3DC00F80E30013900F801C0E2
:100338005DF804FB08B51548154B0360A3F1756318
:10034800A3F57A23A3F605434360002383600122C3
:10035800C260036143618361C361036200F069FCA9
:1003680050B90021094800F03AFE40B90021074879
:1003780000F063FE30B908BD00F066F8F1E700F060
:1003880063F8F3E700F060F8F5E700BF2800002005
:1003980000540040F0B59BB0044600211591169119
:1003A800179118911991442204A801F072FC22684F
:1003B800224B9A4201D01BB0F0BD4023049304A8FD
:1003C80001F0CCFA002835D11D4CE36C43F0010351
:1003D800E364E36C03F001030193019BE36C43F0D6
:1003E8000203E364E36C03F002030293029B4FF4FD
:1003F800004315931227169700251795189504267C
:10040800199615A94FF0904000F0CEF98023159366
:10041800169717951895199615A90A4800F0C4F962
:10042800A36D43F40013A365A36D03F400130393B2
:10043800039BC0E700F008F8C6E700BF005400407F
:10044800001002400004004872B6FEE700B595B0FF
:100458003822002106A801F01CFC0020019002901F
:1004680003900490059000F015FE022306934FF4C4
:100478008072099240220A920D930E9304220F92E1
:100488005522109211931293139306A800F0B4FE0C
:1004980080B90F230193032302930023039304934A
:1004A800059304210DEB010001F05CF920B915B0AA
:1004B8005DF804FBFFF7C8FFFFF7C6FF10B594B05F
:1004C80000F0D2F8FFF7C2FFFFF7A2FEFFF732FFF6
:1004D8004FF47A730A228421364800F0E1FC01289F
:1004E800FDD0354C0DF1400E94E80F00AEE8070042
:1004F8002EF8023B1B0C8EF800300DF1300E04F183
:1005080010030FCBAEE807002EF8023B1B0C8EF849
:1005180000300DF1200E04F120030FCBAEE80700E8
:100528002EF8023B1B0C8EF800300DF1100E04F172
:1005380030030FCBAEE807002EF8023B1B0C8EF8F9
:100548000030EE4604F1400C9CE80F00AEE80700CE
:100558002EF8023B1B0C8EF800300F2110A8FFF775
:10056800D1FE0F210CA8FFF7CDFE0F2108A8FFF739
:10057800C9FE0F2104A8FFF7C5FE0F216846FFF743
:10058800C1FE0F2110A8FFF7ADFE0F210CA8FFF741
:10059800A9FE0F2108A8FFF7A5FE0F2104A8FFF761
:1005A800A1FE0F216846FFF79DFE4FF47A7000F018
:1005B8007DF8E6E7280000200C1D000882B00A4BF1
:1005C8001A6E42F001021A661A6E02F001020092D7
:1005D800009A9A6D42F080529A659B6D03F08053A1
:1005E8000193019B02B0704700100240FEE7FEE74E
:1005F800FEE7FEE7FEE770477047704708B500F072
:1006080043F808BD034AD2F8883043F47003C2F8AF
:100618008830704700ED00E0104B1B680BB90120D3
:10062800704710B504464FF47A70B0FBF3F30C4AE8
:100638001068B0FBF3F000F0A3F868B90F2C01D9EB
:1006480001200AE0002221464FF0FF3000F088F830
:10065800044B1C60002000E0012010BD04000020B5
:10066800000000200800002010B5032000F066F804
:100678000020FFF7D1FF10B10124204610BD044629
:10068800FFF79CFFF9E70000034A1368034909686C
:100698000B441360704700BF7C000020040000205A
:1006A800014B1868704700BF7C00002038B504462D
:1006B800FFF7F6FF0546B4F1FF3F02D0044B1B6875
:1006C8001C44FFF7EDFF401BA042FAD338BD00BF22
:1006D80004000020002808DB0901C9B200F16040CD
:1006E80000F5614080F80013704700F00F00090121
:1006F800C9B2014B1954704714ED00E000B500F081
:100708000700C0F1070CBCF1040F28BF4FF0040C20
:10071800031D062B0FD9C31E4FF0FF3E0EFA0CF037
:1007280021EA000199400EFA03FE22EA0E0241EA8C
:1007380002005DF804FB0023EEE70000074AD368D7
:1007480023F4E0631B041B0C000200F4E060034385
:1007580043F0BF6343F40033D360704700ED00E01B
:1007680010B50446054BD868C0F30220FFF7C6FF52
:1007780001462046FFF7AEFF10BD00BF00ED00E0C8
:100788000138B0F1807F0BD24FF0E0235861054A61
:10079800F02182F823100020986107221A6170471F
:1007A8000120704700ED00E0F0B583B0002362E05F
:1007B80085685E000324B44025EA0405CC68B4408B
:1007C8002C438460456825EA0C054C68C4F3001482
:1007D8009C402C4344605FE0DD08083550F8254014
:1007E80003F0070C4FEA8C0C4FF00F0E0EFA0CFEBC
:1007F80024EA0E0E0C6904FA0CF444EA0E0440F8DC
:10080800254060E0052400E0002404FA0EF42C439F
:100818000CF1020C554D45F82C40554CA568D443B5
:1008280025EA02064F6817F4801F01D042EA050640
:100838004F4DAE60ED6804EA05064F6817F4001FD7
:1008480001D042EA05064A4DEE606D6804EA0506E5
:100858004F6817F4003F01D042EA0506444D6E6028
:100868002D682C404E6816F4803F01D042EA0504FA
:100878003F4A146001330A6832FA03F474D04FF027
:10088800010C0CFA03FC1CEA0202F3D04C6804F0D9
:100898000304013C012C8BD94C6804F00304032C9D
:1008A8000CD0C4685D004FF0030C0CFA05FC24EA78
:1008B8000C0C8C68AC4044EA0C04C4604C6804F02E
:1008C8000304022C88D004684FEA430E4FF0030C4F
:1008D8000CFA0EFC24EA0C0C4C6804F0030404FA2D
:1008E8000EF444EA0C0404604C6814F4403FC1D090
:1008F800204C256E45F001052566246E04F00104A0
:100908000194019C4FEA930C0CF10205174C54F822
:10091800255003F0030E4FEA8E0E0F2404FA0EF44E
:1009280025EA0405B0F1904F3FF46EAF124CA04297
:1009380012D004F58064A04210D004F58064A0426F
:100948000ED004F58064A0420CD004F58064A04267
:100958003FF458AF062458E7012456E7022454E729
:10096800032452E7042450E703B0F0BD000001401F
:100978000004014000100240000400480AB18161EF
:1009880070478162704703689A6912F0020F01D0BC
:1009980000229A6203689A6912F0010F03D19A69DA
:1009A80042F001029A61704710B4019CC1F3090139
:1009B80041EA02411943214321F00041026853688A
:1009C800640D04F4806444F07F7444F4583444F4AF
:1009D8007F7444F0030423EA04030B4353605DF877
:1009E800044B70472DE9F041044603689E6916F0F0
:1009F80010067CD00D4690461022DA610026374654
:100A08002368986910F0200F30D17FBBB5F1FF3F04
:100A1800F6D0FFF745FEA0EB0800A84201D8002D4C
:100A2800EED121684B6803F4804394F84220D2B297
:100A3800886910F4004F02D00BB9202A0ED1236820
:100A48009B6913F0200FDBD1FFF72AFEA0EB08000B
:100A58001928F4D946F020060127D1E74B6843F45A
:100A680080434B60FFF71CFE8046E8E70FB9202261
:100A7800DA6146F0040601252268936913F4807F41
:100A880005D046F001064FF48071D161012513F4B9
:100A9800806F06D046F0080622684FF48061D16165
:100AA800012513F4007F24D046F0020623684FF492
:100AB8000072DA6101252046FFF765FF2268536856
:100AC80023F0FF7323F48B3323F4FF7323F0010324
:100AD8005360636C33436364202384F841300023FC
:100AE80084F8423084F840302846BDE8F08100257B
:100AF800C2E7002DF8D0DEE770B504460D4616466D
:100B080023689B6913F0020F22D1324629462046FA
:100B1800FFF768FFF0B9B5F1FF3FF1D0FFF7C0FD6F
:100B2800801BA84201D8002DEAD123689B6913F0E5
:100B3800020FE5D1636C43F020036364202384F83B
:100B48004130002384F8423084F84030012000E02E
:100B5800002070BD0120FCE72DE9F84305468846D2
:100B680017461E46DDF820902B689C6938EA040475
:100B78000CBF01230023BB4227D14A4631462846F1
:100B8800FFF730FF20BBB6F1FF3FEDD0FFF788FD40
:100B9800A0EB0900B04201D8002EE5D12B689B6973
:100BA80038EA03030CBF01230023BB42DCD16B6C82
:100BB80043F020036B64202385F84130002385F837
:100BC800423085F84030012000E00020BDE8F8837D
:100BD8000120FBE770B504460D46164604E023687D
:100BE8009B6913F0200F12D023689B6913F0200F24
:100BF8001BD1324629462046FFF7F4FEB8B9FFF765
:100C08004FFD801BA842EAD8002DEDD1E7E7636CC1
:100C180043F020036364202384F84130002384F8E0
:100C2800423084F84030012000E0002070BD0120EF
:100C3800FCE700285FD010B5044690F84130002B3F
:100C480048D0242384F841302268136823F0010334
:100C580013606368226823F07063136122689368E5
:100C680023F400439360E368012B38D0A36822681B
:100C780043F404439360E368022B36D02268536838
:100C880023F4006353602268536843F0007343F40D
:100C9800004353602268D36823F40043D360236978
:100CA80062691343A169226843EA0123D360E369B7
:100CB800216A22680B4313602268136843F001031A
:100CC800136000206064202384F84130206384F896
:100CD800420010BD80F84030FFF75CFBB1E7A36825
:100CE800226843F400439360C5E72268536843F4DD
:100CF80000635360C7E70120704700002DE9F04703
:100D080082B00F460A9E90F84110C9B2202940F0DF
:100D1800B78004469046994690F84030012B00F081
:100D2800B3804FF0010A80F840A0FFF7B9FC0546F0
:100D38000090192352464FF400412046FFF70CFF5C
:100D4800002840F0A380212384F84130102384F840
:100D5800423000236364C4F82480A4F82A906363B3
:100D6800638D9BB2FF2B1ED9FF2323854FF0807321
:100D7800228DEAB1226898F800109162626A013205
:100D88006262628D92B2013A92B26285228D013A14
:100D980092B22285013241490091D2B239462046A9
:100DA800FFF702FE18E0638D23854FF00073DFE73D
:100DB8003A490091D2B239462046FFF7F5FD0BE0DB
:100DC800628D92B22285002300934FF00073D2B255
:100DD80039462046FFF7E8FD638D9BB2002B33D0E0
:100DE8002A4631462046FFF787FE002850D1626A1E
:100DF800236812789A62636A01336362638D9BB2D7
:100E0800013B9BB26385238D013B9BB22385628D99
:100E180092B2002AE0D0002BDED1009533460022A2
:100E280080212046FFF798FEA0BB638D9BB2FF2B65
:100E3800C6D9FF222285002300934FF080733946DC
:100E48002046FFF7B1FDC7E72A4631462046FFF79F
:100E5800C1FE08BB23682022DA6121684B6823F0B1
:100E6800FF7323F48B3323F4FF7323F001034B60E8
:100E780084F84120002384F8423084F8403000E0B0
:100E8800022002B0BDE8F0870220FAE70120F8E767
:100E98000120F6E70120F4E70120F2E700200080B6
:100EA8002DE9F04385B01D460023039390F84130A7
:100EB800DBB2202B40F089800646884691460368BD
:100EC8009B6913F4004F40F0828090F84030012B6A
:100ED8007FD0012380F84030242380F8413000235C
:100EE800436441E0C8F3090343F0007343F400533B
:100EF80043E033689C69C4F340149B69C3F300134F
:100F0800C4B9BBB9B5F1FF3FF3D0FFF7C9FBC01BAC
:100F1800A84201D8002DECD1202386F84130736C0B
:100F280043F020037364002386F84030012005B0A5
:100F3800BDE8F08333689B6913F0100F2AD000973F
:100F48002B46002220213046FFF706FE002844D118
:100F580033681022DA6133682022DA61039B013397
:100F68000393039B4B4526D2F368012BBAD0C8F3F1
:100F7800090343F0007343F4205332685360FFF7CA
:100F88008FFB074633689C69C4F340149B69C3F31D
:100F98000013B5E700972B46002220213046FFF7C3
:100FA800DBFDC0B932682023D36186F841300023C5
:100FB80086F84030BBE786F84120736C13437364AE
:100FC800002386F840300120B1E70220AFE7022075
:100FD800ADE70220ABE70120A9E70120A7E7034618
:100FE80090F84120D2B2202A23D190F84020012A3B
:100FF80021D0012280F84020242280F84120006876
:10100800026822F0010202601868026822F4805225
:101018000260186802681143016019680A6842F0A2
:1010280001020A60202283F84120002083F8400052
:1010380070470220704702207047034690F841200D
:10104800D2B2202A21D190F84020012A1FD00122B3
:1010580080F84020242280F841200068026822F0AD
:10106800010202601868026822F4706242EA0122F2
:10107800026019680A6842F001020A60202283F8B7
:101088004120002083F8400070470220704702206A
:1010980070470000002836D13E4B1B6803F4C0633C
:1010A800B3F5806F08D03B4AD2F8803023F48073C0
:1010B800C2F8803000207047364AD2F8803023F4D6
:1010C8008073C2F88030136823F4C06343F400735C
:1010D8001360314B1B68322202FB03F32F4AA2FB39
:1010E80003239B0C013300E0013B2A4A526912F4A6
:1010F800806F01D0002BF7D1264B5B6913F4806F0A
:1011080044D100207047B0F5007F08D0214A136809
:1011180023F4C06343F480631360002070471D4BC1
:101128001B6803F4C063B3F5806F08D0194AD2F87E
:10113800803043F48073C2F8803000207047154A2D
:10114800D2F8803043F48073C2F88030136823F4F7
:10115800C06343F4007313600F4B1B68322202FB19
:1011680003F30E4AA2FB03239B0C013300E0013B6F
:10117800084A526912F4806F01D0002BF7D1054B51
:101188005B6913F4806F03D1002070470320704718
:1011980003207047007000400000002083DE1B43DE
:1011A800124BDA6802F00302DB68C3F3031301335E
:1011B800032A11D00E48B0FBF3F00C4BDB68C3F3E5
:1011C800062303FB00F0094BDB68C3F341630133DB
:1011D8005B00B0FBF3F070470648B0FBF3F0034B3D
:1011E800DB68C3F3062303FB00F0ECE700100240C2
:1011F8000024F40000127A00002800F04F8270B535
:1012080082B00446036813F0010F37D0A44A9368EC
:1012180003F00C03D26802F003020C2B23D0082B36
:1012280023D06368B3F5803F4ED0B3F5A02F51D0DB
:101238009B4B1A6822F480321A601A6822F48022C2
:101248001A606368002B52D0FFF72AFA0546944BC0
:101258001B6813F4003F11D1FFF722FA401B6428E2
:10126800F5D9032023E2032AD9D18D4B1B6813F447
:10127800003F03D06368002B00F01282236813F04C
:10128800020F5DD0864A936803F00C03D26802F01F
:1012980003020C2B3AD0042B3AD0E368002B75D00C
:1012A8007F4A136843F480731360FFF7F9F9054622
:1012B8007B4B1B6813F4806F5FD1FFF7F1F9401B7C
:1012C8000228F5D90320F2E1754A136843F4803304
:1012D8001360B6E703F18043A3F53C331A6842F480
:1012E80080221A601A6842F480321A60A9E7FFF770
:1012F800D7F905466A4B1B6813F4003FBED0FFF7C9
:10130800CFF9401B6428F5D90320D0E1022AC2D1C5
:10131800634B1B6813F4806F03D0E368002B00F065
:10132800C1815F4A536823F0FE43216943EA0163A0
:1013380053605C4B1868FFF76FF9002840F0B481E0
:10134800236813F0080F4CD063699BB3544AD2F852
:10135800943043F00103C2F89430FFF7A1F9054631
:101368004F4BD3F8943013F0020F3AD1FFF798F9A6
:10137800401B0228F4D9032099E1494A536823F015
:10138800FE43216943EA01635360D9E7444A13687D
:1013980023F480731360FFF783F90546404B1B68FD
:1013A80013F4806FCCD0FFF77BF9401B0228F5D9E6
:1013B80003207CE13A4AD2F8943023F00103C2F8C2
:1013C8009430FFF76DF90546354BD3F8943013F098
:1013D800020F06D0FFF764F9401B0228F4D9032056
:1013E80065E1236813F0040F00F081802C4B9B6D9E
:1013F80013F0805F36D12A4B9A6D42F080529A657D
:101408009B6D03F080530193019B0125264B1B68BC
:1014180013F4807F28D0A368012B39D0052B45D041
:101428001F4BD3F8902022F00102C3F89020D3F884
:10143800902022F00402C3F89020A368002B43D028
:10144800FFF72EF90646164BD3F8903013F0020F2B
:101458004CD1FFF725F9801B41F288339842F2D925
:10146800032024E10025D1E70F4A136843F4807371
:101478001360FFF715F906460B4B1B6813F4807FC2
:10148800C9D1FFF70DF9801B0228F5D903200EE119
:10149800034AD2F8903043F00103C2F89030CCE709
:1014A800001002400800002000700040884BD3F86C
:1014B800902042F00402C3F89020D3F8902042F024
:1014C8000102C3F89020B8E7FFF7EAF80646804B18
:1014D800D3F8903013F0020F08D0FFF7E1F8801B23
:1014E80041F288339842F2D90320E0E0E5B9236855
:1014F80013F0200F35D0A369E3B1754AD2F89830BC
:1015080043F00103C2F89830FFF7CAF80546704B5C
:10151800D3F8983013F0020F23D1FFF7C1F8401B1E
:101528000228F4D90320C2E0694A936D23F080535E
:101538009365DCE7664AD2F8983023F00103C2F8D5
:101548009830FFF7ADF80546614BD3F8983013F0A3
:10155800020F06D0FFF7A4F8401B0228F4D9032095
:10156800A5E0E369002B00F0A180594A926802F0D7
:101578000C020C2A64D0022B13D0554A136823F0AE
:1015880080731360FFF78CF80446514B1B6813F007
:10159800007F4ED0FFF784F8001B0228F5D90320FE
:1015A80085E04B4A136823F080731360FFF778F8DF
:1015B8000546474B1B6813F0007F06D0FFF770F80D
:1015C800401B0228F5D9032071E0414AD3684149FC
:1015D8001940236A606A013843EA0013A06A43EAA3
:1015E8000023206B4008013843EA4053606B4008F1
:1015F800013843EA4063E06A43EAC0631943D160B3
:10160800136843F080731360D36843F08073D3602A
:10161800FFF746F804462E4B1B6813F0007F06D1EF
:10162800FFF73EF8001B0228F5D903203FE0002011
:101638003DE0274AD168284B0B40D360002036E0B4
:10164800012B36D0224BDB6803F00301226A91425A
:1016580031D103F0F002616A0139B2EB011F2CD1DC
:1016680003F4FE42A16AB2EB012F28D103F07842BD
:10167800E16AB2EBC16F24D103F4C001226B5208B6
:10168800013AB1EB425F1ED103F0C063626B5208AE
:10169800013AB3EB426F18D1002008E001207047EF
:1016A800012004E0012002E0012000E0002002B057
:1016B80070BD0120FBE70120F9E70120F7E70120D1
:1016C800F5E70120F3E70120F1E70120EFE700BF8C
:1016D800001002400C809F01FCFFEEFE1E4B9B6831
:1016E80003F00C03042B33D01B4B9B6803F00C0353
:1016F800082B2FD0184B9B6803F00C030C2B01D040
:1017080000207047144BDA6802F00302DB68C3F369
:1017180003130133032A11D01048B0FBF3F00E4B2A
:10172800DB68C3F3062303FB00F00B4BDB68C3F352
:10173800416301335B00B0FBF3F070470848B0FB2E
:10174800F3F0054BDB68C3F3062303FB00F0ECE77B
:101758000248704702487047001002400024F40015
:1017680000127A00002800F0E680F8B50C4605461D
:10177800744B1B6803F00F038B420BD2714A13683A
:1017880023F00F030B431360136803F00F038B421E
:1017980040F0D3802E6816F001065FD06B68032BEB
:1017A8002FD0022B4DD0684B1B6813F4806F00F0CC
:1017B800C680FFF793FF654B98424DD9624A9368FC
:1017C80023F0F00343F08003936080265E4A936819
:1017D80023F0030369680B439360FEF761FF074634
:1017E800594B9B6803F00C036A68B3EB820F35D042
:1017F800FEF756FFC01B41F288339842F0D9032008
:1018080078E0514B1B6813F0007F01D1012071E093
:10181800FFF7C6FC4D4B98421AD94B4B9B6813F007
:10182800F00F05D02E6816F00206CFD0AB688BB942
:10183800454A936823F0F00343F0800393608026C1
:10184800C4E7414B1B6813F4003FB2D1012051E0BB
:101858000026BBE70026B9E70026B7E72B6813F098
:10186800020F48D013F0040F04D0374A936843F4AA
:10187800E06393602B6813F0080F06D0324A936830
:1018880023F47C5343F4E06393602F4A936823F076
:10189800F003A9680B4393602A4B1B6803F00F03FE
:1018A800A34230D82B6813F0040F06D0264A936859
:1018B80023F4E063E9680B4393602B6813F0080F87
:1018C80007D0214A936823F46053296943EAC10386
:1018D8009360FFF703FF1C4B9B68C3F303131C4A79
:1018E800D35C03F01F03D8401A4B18601A4B1868D2
:1018F800FEF792FEF8BD802ECED1134A936823F0EE
:10190800F0039360C8E70F4A136823F00F032343DB
:101918001360FEF7C5FE06460A4B1B6803F00F036B
:10192800A342BFD0FEF7BCFE801B41F28833984229
:10193800F2D90320DEE7012070470120DAE7012011
:10194800D8E700BF002002400010024000B4C404E1
:101958005C1D00080000002008000020F0B583B0DE
:101968000446036813F4002F69D0AE4B9B6D13F047
:10197800805F1ED1AB4B9A6D42F080529A659B6D89
:1019880003F080530193019B0126A74A136843F48F
:1019980080731360FEF784FE0546A34B1B6813F49F
:1019A800807F08D1FEF77CFE401B0228F5D903256D
:1019B80002E00026E9E7002545BB9A4BD3F89030B2
:1019C80013F4407315D0226C9A4212D0954AD2F87B
:1019D800903023F44073D2F8901041F48031C2F86B
:1019E8009010D2F8901021F48031C2F89010C2F80B
:1019F800903013F0010F10D145B98A4AD2F89030CF
:101A080023F44073216C0B43C2F89030C6B1854A69
:101A1800936D23F08053936512E0FEF741FE07466D
:101A2800804BD3F8903013F0020FE5D1FEF738FE63
:101A3800C01B41F288339842F2D90325DCE7002520
:101A4800236813F0010F08D0764AD2F8883023F0C3
:101A5800030361680B43C2F88830236813F0020F50
:101A680008D0704AD2F8883023F00C03A1680B43E1
:101A7800C2F88830236813F0040F08D0694AD2F8F6
:101A8800883023F03003E1680B43C2F888302368BC
:101A980013F0080F08D0634AD2F8883023F0C00347
:101AA80021690B43C2F88830236813F0200F08D04F
:101AB8005C4AD2F8883023F4406361690B43C2F86A
:101AC8008830236813F0400F08D0564AD2F888307F
:101AD80023F44053A1690B43C2F88830236813F0FC
:101AE800800F08D04F4AD2F8883023F44043E16988
:101AF8000B43C2F88830236813F4807F08D0494A22
:101B0800D2F8883023F44033216A0B43C2F8883076
:101B1800236813F4007F08D0424AD2F8883023F4AF
:101B28004023616A0B43C2F88830236813F4806F3E
:101B38000CD03C4AD2F8883023F44013A16A0B43F6
:101B4800C2F88830A36AB3F5801F57D0236813F40E
:101B5800006F0CD0334AD2F8883023F44003E16A8E
:101B68000B43C2F88830E36AB3F5800F4BD0236883
:101B780013F4805F0CD02B4AD2F8883023F04073DE
:101B8800216B0B43C2F88830236BB3F1807F3FD0C1
:101B9800236813F4005F0CD0224AD2F8883023F06F
:101BA8004063616B0B43C2F88830636BB3F1006F1D
:101BB80033D0236813F4804F0CD01A4AD2F88830F7
:101BC80023F04063A16B0B43C2F88830A36BB3F1D9
:101BD800006F2BD0236813F4004F0CD0114AD2F8B1
:101BE800883023F04053E16B0B43C2F88830E36B35
:101BF800B3F1805F1FD0284603B0F0BDD36843F42B
:101C08008013D360A2E7D36843F48013D360AEE7B0
:101C1800D36843F48013D360BAE7D36843F48013DE
:101C2800D360C6E70010024000700040D36843F458
:101C38008013D360CEE7D36843F48033D360DAE708
:101C48000D488546FEF7DEFC0C480D490D4A002379
:101C580002E0D458C4500433C4188C42F9D30A4A59
:101C68000A4C002301E013600432A242FBD300F0C7
:101C780019F8FEF723FCFEE7008000200000002092
:101C88000C000020741D00080C00002080000020BB
:101C9800FEE702440346934200D1704703F8011B54
:101CA800F9E7000070B50D4D0D4C641BA41000261B
:101CB800A64209D10B4D0C4C00F018F8641BA41077
:101CC8000026A64205D170BD55F8043B9847013659
:101CD800EEE755F8043B98470136F2E76C1D00081B
:101CE8006C1D00086C1D0008701D0008F8B500BFC9
:101CF800F8BC08BC9E467047F8B500BFF8BC08BCE5
:041D08009E4670473C
:101D0C00B562060108F001000000000000000000B0
:101D1C00B562060108F0020000000000000000009F
:101D2C00B562060108F0030000000000000000008E
:101D3C00B562060108F0040000000000000000007D
:101D4C00B562060108F0050000000000000000006C
:101D5C00000000000000000001020304060708094F
:041D6C00FD0100086D
:041D7000D90100088D
:0C1D74000024F40001000000100000003A
:0400000508001C498A
:00000001FF
